{
	"contracts/blackjack.sol": {
		"Blackjack": {
			"abi": [
				{
					"anonymous": false,
					"inputs": [
						{
							"indexed": true,
							"internalType": "address",
							"name": "player",
							"type": "address"
						},
						{
							"indexed": false,
							"internalType": "uint256",
							"name": "handValue",
							"type": "uint256"
						}
					],
					"name": "handValueUpdated",
					"type": "event"
				},
				{
					"inputs": [
						{
							"internalType": "bool",
							"name": "hit",
							"type": "bool"
						}
					],
					"name": "playerAction",
					"outputs": [],
					"stateMutability": "nonpayable",
					"type": "function"
				},
				{
					"inputs": [
						{
							"internalType": "address",
							"name": "",
							"type": "address"
						}
					],
					"name": "playerBalances",
					"outputs": [
						{
							"internalType": "uint256",
							"name": "",
							"type": "uint256"
						}
					],
					"stateMutability": "view",
					"type": "function"
				},
				{
					"inputs": [
						{
							"internalType": "uint256",
							"name": "betAmount",
							"type": "uint256"
						}
					],
					"name": "startGame",
					"outputs": [],
					"stateMutability": "nonpayable",
					"type": "function"
				}
			],
			"devdoc": {
				"kind": "dev",
				"methods": {},
				"version": 1
			},
			"evm": {
				"assembly": "    /* \"contracts/blackjack.sol\":112:8015  contract Blackjack is BlackjackInterface { ... */\n  mstore(0x40, 0x80)\n    /* \"contracts/blackjack.sol\":182:183  7 */\n  0x07\n    /* \"contracts/blackjack.sol\":161:183  uint256 someNumber = 7 */\n  0x00\n  sstore\n    /* \"contracts/blackjack.sol\":257:262  false */\n  0x00\n    /* \"contracts/blackjack.sol\":238:262  bool gameStarted = false */\n  0x01\n  exp(0x0100, 0x00)\n  dup2\n  sload\n  dup2\n  0xff\n  mul\n  not\n  and\n  swap1\n  dup4\n  iszero\n  iszero\n  mul\n  or\n  swap1\n  sstore\n  pop\n    /* \"contracts/blackjack.sol\":513:514  0 */\n  0x00\n    /* \"contracts/blackjack.sol\":502:514  uint bet = 0 */\n  0x02\n  sstore\n    /* \"contracts/blackjack.sol\":112:8015  contract Blackjack is BlackjackInterface { ... */\n  callvalue\n  dup1\n  iszero\n  tag_1\n  jumpi\n  0x00\n  dup1\n  revert\ntag_1:\n  pop\n  dataSize(sub_0)\n  dup1\n  dataOffset(sub_0)\n  0x00\n  codecopy\n  0x00\n  return\nstop\n\nsub_0: assembly {\n        /* \"contracts/blackjack.sol\":112:8015  contract Blackjack is BlackjackInterface { ... */\n      mstore(0x40, 0x80)\n      callvalue\n      dup1\n      iszero\n      tag_1\n      jumpi\n      0x00\n      dup1\n      revert\n    tag_1:\n      pop\n      jumpi(tag_2, lt(calldatasize, 0x04))\n      shr(0xe0, calldataload(0x00))\n      dup1\n      0x1ff47629\n      eq\n      tag_3\n      jumpi\n      dup1\n      0x7b38314c\n      eq\n      tag_4\n      jumpi\n      dup1\n      0xe5ed1d59\n      eq\n      tag_5\n      jumpi\n    tag_2:\n      0x00\n      dup1\n      revert\n        /* \"contracts/blackjack.sol\":3211:4641  function playerAction(bool hit) external { ... */\n    tag_3:\n      tag_6\n      0x04\n      dup1\n      calldatasize\n      sub\n      dup2\n      add\n      swap1\n      tag_7\n      swap2\n      swap1\n      tag_8\n      jump\t// in\n    tag_7:\n      tag_9\n      jump\t// in\n    tag_6:\n      stop\n        /* \"contracts/blackjack.sol\":1014:1060  mapping(address => uint) public playerBalances */\n    tag_4:\n      tag_10\n      0x04\n      dup1\n      calldatasize\n      sub\n      dup2\n      add\n      swap1\n      tag_11\n      swap2\n      swap1\n      tag_12\n      jump\t// in\n    tag_11:\n      tag_13\n      jump\t// in\n    tag_10:\n      mload(0x40)\n      tag_14\n      swap2\n      swap1\n      tag_15\n      jump\t// in\n    tag_14:\n      mload(0x40)\n      dup1\n      swap2\n      sub\n      swap1\n      return\n        /* \"contracts/blackjack.sol\":1482:2551  function startGame(uint betAmount) external {... */\n    tag_5:\n      tag_16\n      0x04\n      dup1\n      calldatasize\n      sub\n      dup2\n      add\n      swap1\n      tag_17\n      swap2\n      swap1\n      tag_18\n      jump\t// in\n    tag_17:\n      tag_19\n      jump\t// in\n    tag_16:\n      stop\n        /* \"contracts/blackjack.sol\":3211:4641  function playerAction(bool hit) external { ... */\n    tag_9:\n        /* \"contracts/blackjack.sol\":3277:3280  hit */\n      dup1\n        /* \"contracts/blackjack.sol\":3274:3562  if(hit) { // if you hit you push and the value gets automatically updated... */\n      iszero\n      tag_21\n      jumpi\n        /* \"contracts/blackjack.sol\":3361:3372  playerHands */\n      0x05\n        /* \"contracts/blackjack.sol\":3361:3384  playerHands[msg.sender] */\n      0x00\n        /* \"contracts/blackjack.sol\":3373:3383  msg.sender */\n      caller\n        /* \"contracts/blackjack.sol\":3361:3384  playerHands[msg.sender] */\n      0xffffffffffffffffffffffffffffffffffffffff\n      and\n      0xffffffffffffffffffffffffffffffffffffffff\n      and\n      dup2\n      mstore\n      0x20\n      add\n      swap1\n      dup2\n      mstore\n      0x20\n      add\n      0x00\n      keccak256\n        /* \"contracts/blackjack.sol\":3361:3389  playerHands[msg.sender].hand */\n      0x00\n      add\n        /* \"contracts/blackjack.sol\":3395:3401  deal() */\n      tag_22\n        /* \"contracts/blackjack.sol\":3395:3399  deal */\n      tag_23\n        /* \"contracts/blackjack.sol\":3395:3401  deal() */\n      jump\t// in\n    tag_22:\n        /* \"contracts/blackjack.sol\":3361:3402  playerHands[msg.sender].hand.push(deal()) */\n      swap1\n      dup1\n      0x01\n      dup2\n      sload\n      add\n      dup1\n      dup3\n      sstore\n      dup1\n      swap2\n      pop\n      pop\n      0x01\n      swap1\n      sub\n      swap1\n      0x00\n      mstore\n      keccak256(0x00, 0x20)\n      add\n      0x00\n      swap1\n      swap2\n      swap1\n      swap2\n      swap1\n      swap2\n      pop\n      sstore\n        /* \"contracts/blackjack.sol\":3440:3450  msg.sender */\n      caller\n        /* \"contracts/blackjack.sol\":3423:3501  handValueUpdated(msg.sender, calculateHandValue(playerHands[msg.sender].hand)) */\n      0xffffffffffffffffffffffffffffffffffffffff\n      and\n      0xe253e6518a69ccffffb243cce683eafc40e1f53cf04def4e4340c79ad6565459\n        /* \"contracts/blackjack.sol\":3452:3500  calculateHandValue(playerHands[msg.sender].hand) */\n      tag_25\n        /* \"contracts/blackjack.sol\":3471:3482  playerHands */\n      0x05\n        /* \"contracts/blackjack.sol\":3471:3494  playerHands[msg.sender] */\n      0x00\n        /* \"contracts/blackjack.sol\":3483:3493  msg.sender */\n      caller\n        /* \"contracts/blackjack.sol\":3471:3494  playerHands[msg.sender] */\n      0xffffffffffffffffffffffffffffffffffffffff\n      and\n      0xffffffffffffffffffffffffffffffffffffffff\n      and\n      dup2\n      mstore\n      0x20\n      add\n      swap1\n      dup2\n      mstore\n      0x20\n      add\n      0x00\n      keccak256\n        /* \"contracts/blackjack.sol\":3471:3499  playerHands[msg.sender].hand */\n      0x00\n      add\n        /* \"contracts/blackjack.sol\":3452:3500  calculateHandValue(playerHands[msg.sender].hand) */\n      dup1\n      sload\n      dup1\n      0x20\n      mul\n      0x20\n      add\n      mload(0x40)\n      swap1\n      dup2\n      add\n      0x40\n      mstore\n      dup1\n      swap3\n      swap2\n      swap1\n      dup2\n      dup2\n      mstore\n      0x20\n      add\n      dup3\n      dup1\n      sload\n      dup1\n      iszero\n      tag_26\n      jumpi\n      0x20\n      mul\n      dup3\n      add\n      swap2\n      swap1\n      0x00\n      mstore\n      keccak256(0x00, 0x20)\n      swap1\n    tag_27:\n      dup2\n      sload\n      dup2\n      mstore\n      0x20\n      add\n      swap1\n      0x01\n      add\n      swap1\n      dup1\n      dup4\n      gt\n      tag_27\n      jumpi\n    tag_26:\n      pop\n      pop\n      pop\n      pop\n      pop\n        /* \"contracts/blackjack.sol\":3452:3470  calculateHandValue */\n      tag_28\n        /* \"contracts/blackjack.sol\":3452:3500  calculateHandValue(playerHands[msg.sender].hand) */\n      jump\t// in\n    tag_25:\n        /* \"contracts/blackjack.sol\":3423:3501  handValueUpdated(msg.sender, calculateHandValue(playerHands[msg.sender].hand)) */\n      mload(0x40)\n      tag_29\n      swap2\n      swap1\n      tag_15\n      jump\t// in\n    tag_29:\n      mload(0x40)\n      dup1\n      swap2\n      sub\n      swap1\n      log2\n        /* \"contracts/blackjack.sol\":3274:3562  if(hit) { // if you hit you push and the value gets automatically updated... */\n    tag_21:\n        /* \"contracts/blackjack.sol\":3630:3632  21 */\n      0x15\n        /* \"contracts/blackjack.sol\":3578:3626  calculateHandValue(playerHands[msg.sender].hand) */\n      tag_30\n        /* \"contracts/blackjack.sol\":3597:3608  playerHands */\n      0x05\n        /* \"contracts/blackjack.sol\":3597:3620  playerHands[msg.sender] */\n      0x00\n        /* \"contracts/blackjack.sol\":3609:3619  msg.sender */\n      caller\n        /* \"contracts/blackjack.sol\":3597:3620  playerHands[msg.sender] */\n      0xffffffffffffffffffffffffffffffffffffffff\n      and\n      0xffffffffffffffffffffffffffffffffffffffff\n      and\n      dup2\n      mstore\n      0x20\n      add\n      swap1\n      dup2\n      mstore\n      0x20\n      add\n      0x00\n      keccak256\n        /* \"contracts/blackjack.sol\":3597:3625  playerHands[msg.sender].hand */\n      0x00\n      add\n        /* \"contracts/blackjack.sol\":3578:3626  calculateHandValue(playerHands[msg.sender].hand) */\n      dup1\n      sload\n      dup1\n      0x20\n      mul\n      0x20\n      add\n      mload(0x40)\n      swap1\n      dup2\n      add\n      0x40\n      mstore\n      dup1\n      swap3\n      swap2\n      swap1\n      dup2\n      dup2\n      mstore\n      0x20\n      add\n      dup3\n      dup1\n      sload\n      dup1\n      iszero\n      tag_31\n      jumpi\n      0x20\n      mul\n      dup3\n      add\n      swap2\n      swap1\n      0x00\n      mstore\n      keccak256(0x00, 0x20)\n      swap1\n    tag_32:\n      dup2\n      sload\n      dup2\n      mstore\n      0x20\n      add\n      swap1\n      0x01\n      add\n      swap1\n      dup1\n      dup4\n      gt\n      tag_32\n      jumpi\n    tag_31:\n      pop\n      pop\n      pop\n      pop\n      pop\n        /* \"contracts/blackjack.sol\":3578:3596  calculateHandValue */\n      tag_28\n        /* \"contracts/blackjack.sol\":3578:3626  calculateHandValue(playerHands[msg.sender].hand) */\n      jump\t// in\n    tag_30:\n        /* \"contracts/blackjack.sol\":3578:3632  calculateHandValue(playerHands[msg.sender].hand) >= 21 */\n      lt\n        /* \"contracts/blackjack.sol\":3574:3908  if (calculateHandValue(playerHands[msg.sender].hand) >= 21) { // then you check either if you hit or if you stood if the value is >= 21. If it is >= 21 you go straight into the blackjackOrBust function otherwise you let the dealer go... */\n      tag_33\n      jumpi\n        /* \"contracts/blackjack.sol\":3825:3896  blackjackOrBust(calculateHandValue(playerHands[msg.sender].hand), true) */\n      tag_34\n        /* \"contracts/blackjack.sol\":3841:3889  calculateHandValue(playerHands[msg.sender].hand) */\n      tag_35\n        /* \"contracts/blackjack.sol\":3860:3871  playerHands */\n      0x05\n        /* \"contracts/blackjack.sol\":3860:3883  playerHands[msg.sender] */\n      0x00\n        /* \"contracts/blackjack.sol\":3872:3882  msg.sender */\n      caller\n        /* \"contracts/blackjack.sol\":3860:3883  playerHands[msg.sender] */\n      0xffffffffffffffffffffffffffffffffffffffff\n      and\n      0xffffffffffffffffffffffffffffffffffffffff\n      and\n      dup2\n      mstore\n      0x20\n      add\n      swap1\n      dup2\n      mstore\n      0x20\n      add\n      0x00\n      keccak256\n        /* \"contracts/blackjack.sol\":3860:3888  playerHands[msg.sender].hand */\n      0x00\n      add\n        /* \"contracts/blackjack.sol\":3841:3889  calculateHandValue(playerHands[msg.sender].hand) */\n      dup1\n      sload\n      dup1\n      0x20\n      mul\n      0x20\n      add\n      mload(0x40)\n      swap1\n      dup2\n      add\n      0x40\n      mstore\n      dup1\n      swap3\n      swap2\n      swap1\n      dup2\n      dup2\n      mstore\n      0x20\n      add\n      dup3\n      dup1\n      sload\n      dup1\n      iszero\n      tag_36\n      jumpi\n      0x20\n      mul\n      dup3\n      add\n      swap2\n      swap1\n      0x00\n      mstore\n      keccak256(0x00, 0x20)\n      swap1\n    tag_37:\n      dup2\n      sload\n      dup2\n      mstore\n      0x20\n      add\n      swap1\n      0x01\n      add\n      swap1\n      dup1\n      dup4\n      gt\n      tag_37\n      jumpi\n    tag_36:\n      pop\n      pop\n      pop\n      pop\n      pop\n        /* \"contracts/blackjack.sol\":3841:3859  calculateHandValue */\n      tag_28\n        /* \"contracts/blackjack.sol\":3841:3889  calculateHandValue(playerHands[msg.sender].hand) */\n      jump\t// in\n    tag_35:\n        /* \"contracts/blackjack.sol\":3891:3895  true */\n      0x01\n        /* \"contracts/blackjack.sol\":3825:3840  blackjackOrBust */\n      tag_38\n        /* \"contracts/blackjack.sol\":3825:3896  blackjackOrBust(calculateHandValue(playerHands[msg.sender].hand), true) */\n      jump\t// in\n    tag_34:\n        /* \"contracts/blackjack.sol\":3574:3908  if (calculateHandValue(playerHands[msg.sender].hand) >= 21) { // then you check either if you hit or if you stood if the value is >= 21. If it is >= 21 you go straight into the blackjackOrBust function otherwise you let the dealer go... */\n    tag_33:\n        /* \"contracts/blackjack.sol\":4061:4063  17 */\n      0x11\n        /* \"contracts/blackjack.sol\":4022:4057  calculateHandValue(dealerHand.hand) */\n      tag_39\n        /* \"contracts/blackjack.sol\":4041:4051  dealerHand */\n      0x06\n        /* \"contracts/blackjack.sol\":4041:4056  dealerHand.hand */\n      0x00\n      add\n        /* \"contracts/blackjack.sol\":4022:4057  calculateHandValue(dealerHand.hand) */\n      dup1\n      sload\n      dup1\n      0x20\n      mul\n      0x20\n      add\n      mload(0x40)\n      swap1\n      dup2\n      add\n      0x40\n      mstore\n      dup1\n      swap3\n      swap2\n      swap1\n      dup2\n      dup2\n      mstore\n      0x20\n      add\n      dup3\n      dup1\n      sload\n      dup1\n      iszero\n      tag_40\n      jumpi\n      0x20\n      mul\n      dup3\n      add\n      swap2\n      swap1\n      0x00\n      mstore\n      keccak256(0x00, 0x20)\n      swap1\n    tag_41:\n      dup2\n      sload\n      dup2\n      mstore\n      0x20\n      add\n      swap1\n      0x01\n      add\n      swap1\n      dup1\n      dup4\n      gt\n      tag_41\n      jumpi\n    tag_40:\n      pop\n      pop\n      pop\n      pop\n      pop\n        /* \"contracts/blackjack.sol\":4022:4040  calculateHandValue */\n      tag_28\n        /* \"contracts/blackjack.sol\":4022:4057  calculateHandValue(dealerHand.hand) */\n      jump\t// in\n    tag_39:\n        /* \"contracts/blackjack.sol\":4022:4063  calculateHandValue(dealerHand.hand) >= 17 */\n      lt\n        /* \"contracts/blackjack.sol\":4019:4634  if(calculateHandValue(dealerHand.hand) >= 17) { ... */\n      tag_42\n      jumpi\n        /* \"contracts/blackjack.sol\":4081:4095  decideWinner() */\n      tag_43\n        /* \"contracts/blackjack.sol\":4081:4093  decideWinner */\n      tag_44\n        /* \"contracts/blackjack.sol\":4081:4095  decideWinner() */\n      jump\t// in\n    tag_43:\n        /* \"contracts/blackjack.sol\":4019:4634  if(calculateHandValue(dealerHand.hand) >= 17) { ... */\n      jump(tag_45)\n    tag_42:\n        /* \"contracts/blackjack.sol\":4241:4251  dealerHand */\n      0x06\n        /* \"contracts/blackjack.sol\":4241:4256  dealerHand.hand */\n      0x00\n      add\n        /* \"contracts/blackjack.sol\":4262:4268  deal() */\n      tag_46\n        /* \"contracts/blackjack.sol\":4262:4266  deal */\n      tag_23\n        /* \"contracts/blackjack.sol\":4262:4268  deal() */\n      jump\t// in\n    tag_46:\n        /* \"contracts/blackjack.sol\":4241:4269  dealerHand.hand.push(deal()) */\n      swap1\n      dup1\n      0x01\n      dup2\n      sload\n      add\n      dup1\n      dup3\n      sstore\n      dup1\n      swap2\n      pop\n      pop\n      0x01\n      swap1\n      sub\n      swap1\n      0x00\n      mstore\n      keccak256(0x00, 0x20)\n      add\n      0x00\n      swap1\n      swap2\n      swap1\n      swap2\n      swap1\n      swap2\n      pop\n      sstore\n        /* \"contracts/blackjack.sol\":4458:4460  21 */\n      0x15\n        /* \"contracts/blackjack.sol\":4420:4455  calculateHandValue(dealerHand.hand) */\n      tag_48\n        /* \"contracts/blackjack.sol\":4439:4449  dealerHand */\n      0x06\n        /* \"contracts/blackjack.sol\":4439:4454  dealerHand.hand */\n      0x00\n      add\n        /* \"contracts/blackjack.sol\":4420:4455  calculateHandValue(dealerHand.hand) */\n      dup1\n      sload\n      dup1\n      0x20\n      mul\n      0x20\n      add\n      mload(0x40)\n      swap1\n      dup2\n      add\n      0x40\n      mstore\n      dup1\n      swap3\n      swap2\n      swap1\n      dup2\n      dup2\n      mstore\n      0x20\n      add\n      dup3\n      dup1\n      sload\n      dup1\n      iszero\n      tag_49\n      jumpi\n      0x20\n      mul\n      dup3\n      add\n      swap2\n      swap1\n      0x00\n      mstore\n      keccak256(0x00, 0x20)\n      swap1\n    tag_50:\n      dup2\n      sload\n      dup2\n      mstore\n      0x20\n      add\n      swap1\n      0x01\n      add\n      swap1\n      dup1\n      dup4\n      gt\n      tag_50\n      jumpi\n    tag_49:\n      pop\n      pop\n      pop\n      pop\n      pop\n        /* \"contracts/blackjack.sol\":4420:4438  calculateHandValue */\n      tag_28\n        /* \"contracts/blackjack.sol\":4420:4455  calculateHandValue(dealerHand.hand) */\n      jump\t// in\n    tag_48:\n        /* \"contracts/blackjack.sol\":4420:4460  calculateHandValue(dealerHand.hand) < 21 */\n      lt\n        /* \"contracts/blackjack.sol\":4417:4623  if(calculateHandValue(dealerHand.hand) < 21) {... */\n      iszero\n      tag_51\n      jumpi\n        /* \"contracts/blackjack.sol\":4481:4495  decideWinner() */\n      tag_52\n        /* \"contracts/blackjack.sol\":4481:4493  decideWinner */\n      tag_44\n        /* \"contracts/blackjack.sol\":4481:4495  decideWinner() */\n      jump\t// in\n    tag_52:\n        /* \"contracts/blackjack.sol\":4417:4623  if(calculateHandValue(dealerHand.hand) < 21) {... */\n      jump(tag_53)\n    tag_51:\n        /* \"contracts/blackjack.sol\":4549:4607  blackjackOrBust(calculateHandValue(dealerHand.hand),false) */\n      tag_54\n        /* \"contracts/blackjack.sol\":4565:4600  calculateHandValue(dealerHand.hand) */\n      tag_55\n        /* \"contracts/blackjack.sol\":4584:4594  dealerHand */\n      0x06\n        /* \"contracts/blackjack.sol\":4584:4599  dealerHand.hand */\n      0x00\n      add\n        /* \"contracts/blackjack.sol\":4565:4600  calculateHandValue(dealerHand.hand) */\n      dup1\n      sload\n      dup1\n      0x20\n      mul\n      0x20\n      add\n      mload(0x40)\n      swap1\n      dup2\n      add\n      0x40\n      mstore\n      dup1\n      swap3\n      swap2\n      swap1\n      dup2\n      dup2\n      mstore\n      0x20\n      add\n      dup3\n      dup1\n      sload\n      dup1\n      iszero\n      tag_56\n      jumpi\n      0x20\n      mul\n      dup3\n      add\n      swap2\n      swap1\n      0x00\n      mstore\n      keccak256(0x00, 0x20)\n      swap1\n    tag_57:\n      dup2\n      sload\n      dup2\n      mstore\n      0x20\n      add\n      swap1\n      0x01\n      add\n      swap1\n      dup1\n      dup4\n      gt\n      tag_57\n      jumpi\n    tag_56:\n      pop\n      pop\n      pop\n      pop\n      pop\n        /* \"contracts/blackjack.sol\":4565:4583  calculateHandValue */\n      tag_28\n        /* \"contracts/blackjack.sol\":4565:4600  calculateHandValue(dealerHand.hand) */\n      jump\t// in\n    tag_55:\n        /* \"contracts/blackjack.sol\":4601:4606  false */\n      0x00\n        /* \"contracts/blackjack.sol\":4549:4564  blackjackOrBust */\n      tag_38\n        /* \"contracts/blackjack.sol\":4549:4607  blackjackOrBust(calculateHandValue(dealerHand.hand),false) */\n      jump\t// in\n    tag_54:\n        /* \"contracts/blackjack.sol\":4417:4623  if(calculateHandValue(dealerHand.hand) < 21) {... */\n    tag_53:\n        /* \"contracts/blackjack.sol\":4019:4634  if(calculateHandValue(dealerHand.hand) >= 17) { ... */\n    tag_45:\n        /* \"contracts/blackjack.sol\":3211:4641  function playerAction(bool hit) external { ... */\n      pop\n      jump\t// out\n        /* \"contracts/blackjack.sol\":1014:1060  mapping(address => uint) public playerBalances */\n    tag_13:\n      mstore(0x20, 0x04)\n      dup1\n      0x00\n      mstore\n      keccak256(0x00, 0x40)\n      0x00\n      swap2\n      pop\n      swap1\n      pop\n      sload\n      dup2\n      jump\t// out\n        /* \"contracts/blackjack.sol\":1482:2551  function startGame(uint betAmount) external {... */\n    tag_19:\n        /* \"contracts/blackjack.sol\":1606:1607  0 */\n      0x00\n        /* \"contracts/blackjack.sol\":1594:1603  betAmount */\n      dup2\n        /* \"contracts/blackjack.sol\":1594:1607  betAmount > 0 */\n      gt\n        /* \"contracts/blackjack.sol\":1586:1643  require(betAmount > 0, \"Invalid Bet. Please bid over 0.\") */\n      tag_59\n      jumpi\n      mload(0x40)\n      0x08c379a000000000000000000000000000000000000000000000000000000000\n      dup2\n      mstore\n      0x04\n      add\n      tag_60\n      swap1\n      tag_61\n      jump\t// in\n    tag_60:\n      mload(0x40)\n      dup1\n      swap2\n      sub\n      swap1\n      revert\n    tag_59:\n        /* \"contracts/blackjack.sol\":1773:1774  2 */\n      0x02\n        /* \"contracts/blackjack.sol\":1761:1770  betAmount */\n      dup2\n        /* \"contracts/blackjack.sol\":1761:1774  betAmount * 2 */\n      tag_62\n      swap2\n      swap1\n      tag_63\n      jump\t// in\n    tag_62:\n        /* \"contracts/blackjack.sol\":1731:1745  playerBalances */\n      0x04\n        /* \"contracts/blackjack.sol\":1731:1757  playerBalances[msg.sender] */\n      0x00\n        /* \"contracts/blackjack.sol\":1746:1756  msg.sender */\n      caller\n        /* \"contracts/blackjack.sol\":1731:1757  playerBalances[msg.sender] */\n      0xffffffffffffffffffffffffffffffffffffffff\n      and\n      0xffffffffffffffffffffffffffffffffffffffff\n      and\n      dup2\n      mstore\n      0x20\n      add\n      swap1\n      dup2\n      mstore\n      0x20\n      add\n      0x00\n      keccak256\n      sload\n        /* \"contracts/blackjack.sol\":1731:1774  playerBalances[msg.sender] >= betAmount * 2 */\n      lt\n      iszero\n        /* \"contracts/blackjack.sol\":1723:1863  require(playerBalances[msg.sender] >= betAmount * 2, \"Insufficient balance to start the game. You need 2 times the amount you bet to play.\") */\n      tag_64\n      jumpi\n      mload(0x40)\n      0x08c379a000000000000000000000000000000000000000000000000000000000\n      dup2\n      mstore\n      0x04\n      add\n      tag_65\n      swap1\n      tag_66\n      jump\t// in\n    tag_65:\n      mload(0x40)\n      dup1\n      swap2\n      sub\n      swap1\n      revert\n    tag_64:\n        /* \"contracts/blackjack.sol\":1966:1975  betAmount */\n      dup1\n        /* \"contracts/blackjack.sol\":1936:1950  playerBalances */\n      0x04\n        /* \"contracts/blackjack.sol\":1936:1962  playerBalances[msg.sender] */\n      0x00\n        /* \"contracts/blackjack.sol\":1951:1961  msg.sender */\n      caller\n        /* \"contracts/blackjack.sol\":1936:1962  playerBalances[msg.sender] */\n      0xffffffffffffffffffffffffffffffffffffffff\n      and\n      0xffffffffffffffffffffffffffffffffffffffff\n      and\n      dup2\n      mstore\n      0x20\n      add\n      swap1\n      dup2\n      mstore\n      0x20\n      add\n      0x00\n      keccak256\n      0x00\n        /* \"contracts/blackjack.sol\":1936:1975  playerBalances[msg.sender] -= betAmount */\n      dup3\n      dup3\n      sload\n      tag_67\n      swap2\n      swap1\n      tag_68\n      jump\t// in\n    tag_67:\n      swap3\n      pop\n      pop\n      dup2\n      swap1\n      sstore\n      pop\n        /* \"contracts/blackjack.sol\":2051:2060  betAmount */\n      dup1\n        /* \"contracts/blackjack.sol\":2045:2048  bet */\n      0x02\n        /* \"contracts/blackjack.sol\":2045:2060  bet = betAmount */\n      dup2\n      swap1\n      sstore\n      pop\n        /* \"contracts/blackjack.sol\":2085:2089  true */\n      0x01\n        /* \"contracts/blackjack.sol\":2071:2082  gameStarted */\n      dup1\n      0x00\n        /* \"contracts/blackjack.sol\":2071:2089  gameStarted = true */\n      0x0100\n      exp\n      dup2\n      sload\n      dup2\n      0xff\n      mul\n      not\n      and\n      swap1\n      dup4\n      iszero\n      iszero\n      mul\n      or\n      swap1\n      sstore\n      pop\n        /* \"contracts/blackjack.sol\":2221:2227  uint i */\n      0x00\n        /* \"contracts/blackjack.sol\":2217:2355  for(uint i = 0; i < 2; i++){... */\n    tag_69:\n        /* \"contracts/blackjack.sol\":2237:2238  2 */\n      0x02\n        /* \"contracts/blackjack.sol\":2233:2234  i */\n      dup2\n        /* \"contracts/blackjack.sol\":2233:2238  i < 2 */\n      lt\n        /* \"contracts/blackjack.sol\":2217:2355  for(uint i = 0; i < 2; i++){... */\n      iszero\n      tag_70\n      jumpi\n        /* \"contracts/blackjack.sol\":2259:2270  playerHands */\n      0x05\n        /* \"contracts/blackjack.sol\":2259:2282  playerHands[msg.sender] */\n      0x00\n        /* \"contracts/blackjack.sol\":2271:2281  msg.sender */\n      caller\n        /* \"contracts/blackjack.sol\":2259:2282  playerHands[msg.sender] */\n      0xffffffffffffffffffffffffffffffffffffffff\n      and\n      0xffffffffffffffffffffffffffffffffffffffff\n      and\n      dup2\n      mstore\n      0x20\n      add\n      swap1\n      dup2\n      mstore\n      0x20\n      add\n      0x00\n      keccak256\n        /* \"contracts/blackjack.sol\":2259:2287  playerHands[msg.sender].hand */\n      0x00\n      add\n        /* \"contracts/blackjack.sol\":2293:2299  deal() */\n      tag_72\n        /* \"contracts/blackjack.sol\":2293:2297  deal */\n      tag_23\n        /* \"contracts/blackjack.sol\":2293:2299  deal() */\n      jump\t// in\n    tag_72:\n        /* \"contracts/blackjack.sol\":2259:2300  playerHands[msg.sender].hand.push(deal()) */\n      swap1\n      dup1\n      0x01\n      dup2\n      sload\n      add\n      dup1\n      dup3\n      sstore\n      dup1\n      swap2\n      pop\n      pop\n      0x01\n      swap1\n      sub\n      swap1\n      0x00\n      mstore\n      keccak256(0x00, 0x20)\n      add\n      0x00\n      swap1\n      swap2\n      swap1\n      swap2\n      swap1\n      swap2\n      pop\n      sstore\n        /* \"contracts/blackjack.sol\":2315:2325  dealerHand */\n      0x06\n        /* \"contracts/blackjack.sol\":2315:2330  dealerHand.hand */\n      0x00\n      add\n        /* \"contracts/blackjack.sol\":2336:2342  deal() */\n      tag_74\n        /* \"contracts/blackjack.sol\":2336:2340  deal */\n      tag_23\n        /* \"contracts/blackjack.sol\":2336:2342  deal() */\n      jump\t// in\n    tag_74:\n        /* \"contracts/blackjack.sol\":2315:2343  dealerHand.hand.push(deal()) */\n      swap1\n      dup1\n      0x01\n      dup2\n      sload\n      add\n      dup1\n      dup3\n      sstore\n      dup1\n      swap2\n      pop\n      pop\n      0x01\n      swap1\n      sub\n      swap1\n      0x00\n      mstore\n      keccak256(0x00, 0x20)\n      add\n      0x00\n      swap1\n      swap2\n      swap1\n      swap2\n      swap1\n      swap2\n      pop\n      sstore\n        /* \"contracts/blackjack.sol\":2240:2243  i++ */\n      dup1\n      dup1\n      0x01\n      add\n      swap2\n      pop\n      pop\n        /* \"contracts/blackjack.sol\":2217:2355  for(uint i = 0; i < 2; i++){... */\n      jump(tag_69)\n    tag_70:\n      pop\n        /* \"contracts/blackjack.sol\":2365:2385  uint playerHandValue */\n      0x00\n        /* \"contracts/blackjack.sol\":2388:2436  calculateHandValue(playerHands[msg.sender].hand) */\n      tag_76\n        /* \"contracts/blackjack.sol\":2407:2418  playerHands */\n      0x05\n        /* \"contracts/blackjack.sol\":2407:2430  playerHands[msg.sender] */\n      0x00\n        /* \"contracts/blackjack.sol\":2419:2429  msg.sender */\n      caller\n        /* \"contracts/blackjack.sol\":2407:2430  playerHands[msg.sender] */\n      0xffffffffffffffffffffffffffffffffffffffff\n      and\n      0xffffffffffffffffffffffffffffffffffffffff\n      and\n      dup2\n      mstore\n      0x20\n      add\n      swap1\n      dup2\n      mstore\n      0x20\n      add\n      0x00\n      keccak256\n        /* \"contracts/blackjack.sol\":2407:2435  playerHands[msg.sender].hand */\n      0x00\n      add\n        /* \"contracts/blackjack.sol\":2388:2436  calculateHandValue(playerHands[msg.sender].hand) */\n      dup1\n      sload\n      dup1\n      0x20\n      mul\n      0x20\n      add\n      mload(0x40)\n      swap1\n      dup2\n      add\n      0x40\n      mstore\n      dup1\n      swap3\n      swap2\n      swap1\n      dup2\n      dup2\n      mstore\n      0x20\n      add\n      dup3\n      dup1\n      sload\n      dup1\n      iszero\n      tag_77\n      jumpi\n      0x20\n      mul\n      dup3\n      add\n      swap2\n      swap1\n      0x00\n      mstore\n      keccak256(0x00, 0x20)\n      swap1\n    tag_78:\n      dup2\n      sload\n      dup2\n      mstore\n      0x20\n      add\n      swap1\n      0x01\n      add\n      swap1\n      dup1\n      dup4\n      gt\n      tag_78\n      jumpi\n    tag_77:\n      pop\n      pop\n      pop\n      pop\n      pop\n        /* \"contracts/blackjack.sol\":2388:2406  calculateHandValue */\n      tag_28\n        /* \"contracts/blackjack.sol\":2388:2436  calculateHandValue(playerHands[msg.sender].hand) */\n      jump\t// in\n    tag_76:\n        /* \"contracts/blackjack.sol\":2365:2436  uint playerHandValue = calculateHandValue(playerHands[msg.sender].hand) */\n      swap1\n      pop\n        /* \"contracts/blackjack.sol\":2469:2479  msg.sender */\n      caller\n        /* \"contracts/blackjack.sol\":2452:2496  handValueUpdated(msg.sender,playerHandValue) */\n      0xffffffffffffffffffffffffffffffffffffffff\n      and\n      0xe253e6518a69ccffffb243cce683eafc40e1f53cf04def4e4340c79ad6565459\n        /* \"contracts/blackjack.sol\":2480:2495  playerHandValue */\n      dup3\n        /* \"contracts/blackjack.sol\":2452:2496  handValueUpdated(msg.sender,playerHandValue) */\n      mload(0x40)\n      tag_79\n      swap2\n      swap1\n      tag_15\n      jump\t// in\n    tag_79:\n      mload(0x40)\n      dup1\n      swap2\n      sub\n      swap1\n      log2\n        /* \"contracts/blackjack.sol\":1526:2551  {... */\n      pop\n        /* \"contracts/blackjack.sol\":1482:2551  function startGame(uint betAmount) external {... */\n      pop\n      jump\t// out\n        /* \"contracts/blackjack.sol\":703:966  function deal() internal  returns (uint){... */\n    tag_23:\n        /* \"contracts/blackjack.sol\":738:742  uint */\n      0x00\n        /* \"contracts/blackjack.sol\":754:771  uint randomNumber */\n      dup1\n        /* \"contracts/blackjack.sol\":809:819  msg.sender */\n      caller\n        /* \"contracts/blackjack.sol\":821:837  block.prevrandao */\n      prevrandao\n        /* \"contracts/blackjack.sol\":840:850  someNumber */\n      sload(0x00)\n        /* \"contracts/blackjack.sol\":860:864  this */\n      address\n        /* \"contracts/blackjack.sol\":792:866  abi.encodePacked(msg.sender, block.prevrandao,  someNumber, address(this)) */\n      add(0x20, mload(0x40))\n      tag_81\n      swap5\n      swap4\n      swap3\n      swap2\n      swap1\n      tag_82\n      jump\t// in\n    tag_81:\n      mload(0x40)\n      0x20\n      dup2\n      dup4\n      sub\n      sub\n      dup2\n      mstore\n      swap1\n      0x40\n      mstore\n        /* \"contracts/blackjack.sol\":782:867  keccak256(abi.encodePacked(msg.sender, block.prevrandao,  someNumber, address(this))) */\n      dup1\n      mload\n      swap1\n      0x20\n      add\n      keccak256\n        /* \"contracts/blackjack.sol\":774:868  uint256(keccak256(abi.encodePacked(msg.sender, block.prevrandao,  someNumber, address(this)))) */\n      0x00\n      shr\n        /* \"contracts/blackjack.sol\":754:868  uint randomNumber = uint256(keccak256(abi.encodePacked(msg.sender, block.prevrandao,  someNumber, address(this)))) */\n      swap1\n      pop\n        /* \"contracts/blackjack.sol\":879:888  uint card */\n      0x00\n        /* \"contracts/blackjack.sol\":909:910  1 */\n      0x01\n        /* \"contracts/blackjack.sol\":905:907  10 */\n      0x0a\n        /* \"contracts/blackjack.sol\":892:904  randomNumber */\n      dup4\n        /* \"contracts/blackjack.sol\":892:907  randomNumber%10 */\n      tag_83\n      swap2\n      swap1\n      tag_84\n      jump\t// in\n    tag_83:\n        /* \"contracts/blackjack.sol\":891:910  (randomNumber%10)+1 */\n      tag_85\n      swap2\n      swap1\n      tag_86\n      jump\t// in\n    tag_85:\n        /* \"contracts/blackjack.sol\":879:910  uint card = (randomNumber%10)+1 */\n      swap1\n      pop\n        /* \"contracts/blackjack.sol\":935:936  1 */\n      0x01\n        /* \"contracts/blackjack.sol\":921:931  someNumber */\n      0x00\n      dup1\n        /* \"contracts/blackjack.sol\":921:936  someNumber += 1 */\n      dup3\n      dup3\n      sload\n      tag_87\n      swap2\n      swap1\n      tag_86\n      jump\t// in\n    tag_87:\n      swap3\n      pop\n      pop\n      dup2\n      swap1\n      sstore\n      pop\n        /* \"contracts/blackjack.sol\":954:958  card */\n      dup1\n        /* \"contracts/blackjack.sol\":947:958  return card */\n      swap3\n      pop\n      pop\n      pop\n        /* \"contracts/blackjack.sol\":703:966  function deal() internal  returns (uint){... */\n      swap1\n      jump\t// out\n        /* \"contracts/blackjack.sol\":7697:8012  function calculateHandValue(uint[] memory hand)  internal pure    returns(uint) { // function to calculate hand value; might need to make a random number generator 1-10 ... */\n    tag_28:\n        /* \"contracts/blackjack.sol\":7771:7775  uint */\n      0x00\n        /* \"contracts/blackjack.sol\":7876:7886  uint total */\n      dup1\n        /* \"contracts/blackjack.sol\":7889:7890  0 */\n      0x00\n        /* \"contracts/blackjack.sol\":7876:7890  uint total = 0 */\n      swap1\n      pop\n        /* \"contracts/blackjack.sol\":7905:7911  uint i */\n      0x00\n        /* \"contracts/blackjack.sol\":7901:7982  for(uint i = 0; i < hand.length; i++) {... */\n    tag_89:\n        /* \"contracts/blackjack.sol\":7921:7925  hand */\n      dup4\n        /* \"contracts/blackjack.sol\":7921:7932  hand.length */\n      mload\n        /* \"contracts/blackjack.sol\":7917:7918  i */\n      dup2\n        /* \"contracts/blackjack.sol\":7917:7932  i < hand.length */\n      lt\n        /* \"contracts/blackjack.sol\":7901:7982  for(uint i = 0; i < hand.length; i++) {... */\n      iszero\n      tag_90\n      jumpi\n        /* \"contracts/blackjack.sol\":7963:7967  hand */\n      dup4\n        /* \"contracts/blackjack.sol\":7968:7969  i */\n      dup2\n        /* \"contracts/blackjack.sol\":7963:7970  hand[i] */\n      dup2\n      mload\n      dup2\n      lt\n      tag_92\n      jumpi\n      tag_93\n      tag_94\n      jump\t// in\n    tag_93:\n    tag_92:\n      0x20\n      mul\n      0x20\n      add\n      add\n      mload\n        /* \"contracts/blackjack.sol\":7954:7970  total += hand[i] */\n      dup3\n      tag_95\n      swap2\n      swap1\n      tag_86\n      jump\t// in\n    tag_95:\n      swap2\n      pop\n        /* \"contracts/blackjack.sol\":7934:7937  i++ */\n      dup1\n      dup1\n      0x01\n      add\n      swap2\n      pop\n      pop\n        /* \"contracts/blackjack.sol\":7901:7982  for(uint i = 0; i < hand.length; i++) {... */\n      jump(tag_89)\n    tag_90:\n      pop\n        /* \"contracts/blackjack.sol\":7999:8004  total */\n      dup1\n        /* \"contracts/blackjack.sol\":7992:8004  return total */\n      swap2\n      pop\n      pop\n        /* \"contracts/blackjack.sol\":7697:8012  function calculateHandValue(uint[] memory hand)  internal pure    returns(uint) { // function to calculate hand value; might need to make a random number generator 1-10 ... */\n      swap2\n      swap1\n      pop\n      jump\t// out\n        /* \"contracts/blackjack.sol\":5020:5494  function blackjackOrBust(uint handSum, bool playerType) internal {... */\n    tag_38:\n        /* \"contracts/blackjack.sol\":5111:5113  21 */\n      0x15\n        /* \"contracts/blackjack.sol\":5100:5107  handSum */\n      dup3\n        /* \"contracts/blackjack.sol\":5100:5113  handSum == 21 */\n      eq\n        /* \"contracts/blackjack.sol\":5100:5135  handSum == 21 && playerType == true */\n      dup1\n      iszero\n      tag_97\n      jumpi\n      pop\n        /* \"contracts/blackjack.sol\":5131:5135  true */\n      0x01\n        /* \"contracts/blackjack.sol\":5117:5135  playerType == true */\n      iszero\n      iszero\n        /* \"contracts/blackjack.sol\":5117:5127  playerType */\n      dup2\n        /* \"contracts/blackjack.sol\":5117:5135  playerType == true */\n      iszero\n      iszero\n      eq\n        /* \"contracts/blackjack.sol\":5100:5135  handSum == 21 && playerType == true */\n    tag_97:\n        /* \"contracts/blackjack.sol\":5099:5177  (handSum == 21 && playerType == true) || (handSum > 21 && playerType == false) */\n      dup1\n      tag_98\n      jumpi\n      pop\n        /* \"contracts/blackjack.sol\":5151:5153  21 */\n      0x15\n        /* \"contracts/blackjack.sol\":5141:5148  handSum */\n      dup3\n        /* \"contracts/blackjack.sol\":5141:5153  handSum > 21 */\n      gt\n        /* \"contracts/blackjack.sol\":5141:5176  handSum > 21 && playerType == false */\n      dup1\n      iszero\n      tag_99\n      jumpi\n      pop\n        /* \"contracts/blackjack.sol\":5171:5176  false */\n      0x00\n        /* \"contracts/blackjack.sol\":5157:5176  playerType == false */\n      iszero\n      iszero\n        /* \"contracts/blackjack.sol\":5157:5167  playerType */\n      dup2\n        /* \"contracts/blackjack.sol\":5157:5176  playerType == false */\n      iszero\n      iszero\n      eq\n        /* \"contracts/blackjack.sol\":5141:5176  handSum > 21 && playerType == false */\n    tag_99:\n        /* \"contracts/blackjack.sol\":5099:5177  (handSum == 21 && playerType == true) || (handSum > 21 && playerType == false) */\n    tag_98:\n        /* \"contracts/blackjack.sol\":5096:5467  if((handSum == 21 && playerType == true) || (handSum > 21 && playerType == false))... */\n      iszero\n      tag_100\n      jumpi\n        /* \"contracts/blackjack.sol\":5221:5222  0 */\n      0x00\n        /* \"contracts/blackjack.sol\":5203:5218  win_lose_or_tie */\n      0x03\n        /* \"contracts/blackjack.sol\":5203:5222  win_lose_or_tie = 0 */\n      dup2\n      swap1\n      sstore\n      pop\n        /* \"contracts/blackjack.sol\":5096:5467  if((handSum == 21 && playerType == true) || (handSum > 21 && playerType == false))... */\n      jump(tag_101)\n    tag_100:\n        /* \"contracts/blackjack.sol\":5304:5306  21 */\n      0x15\n        /* \"contracts/blackjack.sol\":5293:5300  handSum */\n      dup3\n        /* \"contracts/blackjack.sol\":5293:5306  handSum == 21 */\n      eq\n        /* \"contracts/blackjack.sol\":5293:5329  handSum == 21 && playerType == false */\n      dup1\n      iszero\n      tag_102\n      jumpi\n      pop\n        /* \"contracts/blackjack.sol\":5324:5329  false */\n      0x00\n        /* \"contracts/blackjack.sol\":5310:5329  playerType == false */\n      iszero\n      iszero\n        /* \"contracts/blackjack.sol\":5310:5320  playerType */\n      dup2\n        /* \"contracts/blackjack.sol\":5310:5329  playerType == false */\n      iszero\n      iszero\n      eq\n        /* \"contracts/blackjack.sol\":5293:5329  handSum == 21 && playerType == false */\n    tag_102:\n        /* \"contracts/blackjack.sol\":5292:5370  (handSum == 21 && playerType == false) || (handSum > 21 && playerType == true) */\n      dup1\n      tag_103\n      jumpi\n      pop\n        /* \"contracts/blackjack.sol\":5345:5347  21 */\n      0x15\n        /* \"contracts/blackjack.sol\":5335:5342  handSum */\n      dup3\n        /* \"contracts/blackjack.sol\":5335:5347  handSum > 21 */\n      gt\n        /* \"contracts/blackjack.sol\":5335:5369  handSum > 21 && playerType == true */\n      dup1\n      iszero\n      tag_104\n      jumpi\n      pop\n        /* \"contracts/blackjack.sol\":5365:5369  true */\n      0x01\n        /* \"contracts/blackjack.sol\":5351:5369  playerType == true */\n      iszero\n      iszero\n        /* \"contracts/blackjack.sol\":5351:5361  playerType */\n      dup2\n        /* \"contracts/blackjack.sol\":5351:5369  playerType == true */\n      iszero\n      iszero\n      eq\n        /* \"contracts/blackjack.sol\":5335:5369  handSum > 21 && playerType == true */\n    tag_104:\n        /* \"contracts/blackjack.sol\":5292:5370  (handSum == 21 && playerType == false) || (handSum > 21 && playerType == true) */\n    tag_103:\n        /* \"contracts/blackjack.sol\":5289:5467  if((handSum == 21 && playerType == false) || (handSum > 21 && playerType == true))... */\n      iszero\n      tag_105\n      jumpi\n        /* \"contracts/blackjack.sol\":5414:5415  1 */\n      0x01\n        /* \"contracts/blackjack.sol\":5396:5411  win_lose_or_tie */\n      0x03\n        /* \"contracts/blackjack.sol\":5396:5415  win_lose_or_tie = 1 */\n      dup2\n      swap1\n      sstore\n      pop\n        /* \"contracts/blackjack.sol\":5289:5467  if((handSum == 21 && playerType == false) || (handSum > 21 && playerType == true))... */\n    tag_105:\n        /* \"contracts/blackjack.sol\":5096:5467  if((handSum == 21 && playerType == true) || (handSum > 21 && playerType == false))... */\n    tag_101:\n        /* \"contracts/blackjack.sol\":5477:5486  endGame() */\n      tag_106\n        /* \"contracts/blackjack.sol\":5477:5484  endGame */\n      tag_107\n        /* \"contracts/blackjack.sol\":5477:5486  endGame() */\n      jump\t// in\n    tag_106:\n        /* \"contracts/blackjack.sol\":5020:5494  function blackjackOrBust(uint handSum, bool playerType) internal {... */\n      pop\n      pop\n      jump\t// out\n        /* \"contracts/blackjack.sol\":5701:6728  function decideWinner() internal {... */\n    tag_44:\n        /* \"contracts/blackjack.sol\":5789:5809  uint playerHandValue */\n      0x00\n        /* \"contracts/blackjack.sol\":5812:5860  calculateHandValue(playerHands[msg.sender].hand) */\n      tag_109\n        /* \"contracts/blackjack.sol\":5831:5842  playerHands */\n      0x05\n        /* \"contracts/blackjack.sol\":5831:5854  playerHands[msg.sender] */\n      0x00\n        /* \"contracts/blackjack.sol\":5843:5853  msg.sender */\n      caller\n        /* \"contracts/blackjack.sol\":5831:5854  playerHands[msg.sender] */\n      0xffffffffffffffffffffffffffffffffffffffff\n      and\n      0xffffffffffffffffffffffffffffffffffffffff\n      and\n      dup2\n      mstore\n      0x20\n      add\n      swap1\n      dup2\n      mstore\n      0x20\n      add\n      0x00\n      keccak256\n        /* \"contracts/blackjack.sol\":5831:5859  playerHands[msg.sender].hand */\n      0x00\n      add\n        /* \"contracts/blackjack.sol\":5812:5860  calculateHandValue(playerHands[msg.sender].hand) */\n      dup1\n      sload\n      dup1\n      0x20\n      mul\n      0x20\n      add\n      mload(0x40)\n      swap1\n      dup2\n      add\n      0x40\n      mstore\n      dup1\n      swap3\n      swap2\n      swap1\n      dup2\n      dup2\n      mstore\n      0x20\n      add\n      dup3\n      dup1\n      sload\n      dup1\n      iszero\n      tag_110\n      jumpi\n      0x20\n      mul\n      dup3\n      add\n      swap2\n      swap1\n      0x00\n      mstore\n      keccak256(0x00, 0x20)\n      swap1\n    tag_111:\n      dup2\n      sload\n      dup2\n      mstore\n      0x20\n      add\n      swap1\n      0x01\n      add\n      swap1\n      dup1\n      dup4\n      gt\n      tag_111\n      jumpi\n    tag_110:\n      pop\n      pop\n      pop\n      pop\n      pop\n        /* \"contracts/blackjack.sol\":5812:5830  calculateHandValue */\n      tag_28\n        /* \"contracts/blackjack.sol\":5812:5860  calculateHandValue(playerHands[msg.sender].hand) */\n      jump\t// in\n    tag_109:\n        /* \"contracts/blackjack.sol\":5789:5860  uint playerHandValue = calculateHandValue(playerHands[msg.sender].hand) */\n      swap1\n      pop\n        /* \"contracts/blackjack.sol\":5924:5944  uint dealerHandValue */\n      0x00\n        /* \"contracts/blackjack.sol\":5947:5982  calculateHandValue(dealerHand.hand) */\n      tag_112\n        /* \"contracts/blackjack.sol\":5966:5976  dealerHand */\n      0x06\n        /* \"contracts/blackjack.sol\":5966:5981  dealerHand.hand */\n      0x00\n      add\n        /* \"contracts/blackjack.sol\":5947:5982  calculateHandValue(dealerHand.hand) */\n      dup1\n      sload\n      dup1\n      0x20\n      mul\n      0x20\n      add\n      mload(0x40)\n      swap1\n      dup2\n      add\n      0x40\n      mstore\n      dup1\n      swap3\n      swap2\n      swap1\n      dup2\n      dup2\n      mstore\n      0x20\n      add\n      dup3\n      dup1\n      sload\n      dup1\n      iszero\n      tag_113\n      jumpi\n      0x20\n      mul\n      dup3\n      add\n      swap2\n      swap1\n      0x00\n      mstore\n      keccak256(0x00, 0x20)\n      swap1\n    tag_114:\n      dup2\n      sload\n      dup2\n      mstore\n      0x20\n      add\n      swap1\n      0x01\n      add\n      swap1\n      dup1\n      dup4\n      gt\n      tag_114\n      jumpi\n    tag_113:\n      pop\n      pop\n      pop\n      pop\n      pop\n        /* \"contracts/blackjack.sol\":5947:5965  calculateHandValue */\n      tag_28\n        /* \"contracts/blackjack.sol\":5947:5982  calculateHandValue(dealerHand.hand) */\n      jump\t// in\n    tag_112:\n        /* \"contracts/blackjack.sol\":5924:5982  uint dealerHandValue = calculateHandValue(dealerHand.hand) */\n      swap1\n      pop\n        /* \"contracts/blackjack.sol\":6023:6025  21 */\n      0x15\n        /* \"contracts/blackjack.sol\":6005:6020  playerHandValue */\n      dup3\n        /* \"contracts/blackjack.sol\":6005:6025  playerHandValue > 21 */\n      gt\n        /* \"contracts/blackjack.sol\":6001:6699  if (playerHandValue > 21) {... */\n      iszero\n      tag_115\n      jumpi\n        /* \"contracts/blackjack.sol\":6060:6061  1 */\n      0x01\n        /* \"contracts/blackjack.sol\":6042:6057  win_lose_or_tie */\n      0x03\n        /* \"contracts/blackjack.sol\":6042:6061  win_lose_or_tie = 1 */\n      dup2\n      swap1\n      sstore\n      pop\n        /* \"contracts/blackjack.sol\":6001:6699  if (playerHandValue > 21) {... */\n      jump(tag_116)\n    tag_115:\n        /* \"contracts/blackjack.sol\":6130:6132  21 */\n      0x15\n        /* \"contracts/blackjack.sol\":6112:6127  dealerHandValue */\n      dup2\n        /* \"contracts/blackjack.sol\":6112:6132  dealerHandValue > 21 */\n      gt\n        /* \"contracts/blackjack.sol\":6108:6699  if (dealerHandValue > 21) {... */\n      iszero\n      tag_117\n      jumpi\n        /* \"contracts/blackjack.sol\":6167:6168  0 */\n      0x00\n        /* \"contracts/blackjack.sol\":6149:6164  win_lose_or_tie */\n      0x03\n        /* \"contracts/blackjack.sol\":6149:6168  win_lose_or_tie = 0 */\n      dup2\n      swap1\n      sstore\n      pop\n        /* \"contracts/blackjack.sol\":6108:6699  if (dealerHandValue > 21) {... */\n      jump(tag_118)\n    tag_117:\n        /* \"contracts/blackjack.sol\":6238:6240  21 */\n      0x15\n        /* \"contracts/blackjack.sol\":6219:6234  playerHandValue */\n      dup3\n        /* \"contracts/blackjack.sol\":6219:6240  playerHandValue == 21 */\n      sub\n        /* \"contracts/blackjack.sol\":6215:6699  if (playerHandValue == 21) {... */\n      tag_119\n      jumpi\n        /* \"contracts/blackjack.sol\":6275:6276  0 */\n      0x00\n        /* \"contracts/blackjack.sol\":6257:6272  win_lose_or_tie */\n      0x03\n        /* \"contracts/blackjack.sol\":6257:6276  win_lose_or_tie = 0 */\n      dup2\n      swap1\n      sstore\n      pop\n        /* \"contracts/blackjack.sol\":6215:6699  if (playerHandValue == 21) {... */\n      jump(tag_120)\n    tag_119:\n        /* \"contracts/blackjack.sol\":6347:6349  21 */\n      0x15\n        /* \"contracts/blackjack.sol\":6328:6343  dealerHandValue */\n      dup2\n        /* \"contracts/blackjack.sol\":6328:6349  dealerHandValue == 21 */\n      sub\n        /* \"contracts/blackjack.sol\":6324:6699  if (dealerHandValue == 21) {... */\n      tag_121\n      jumpi\n        /* \"contracts/blackjack.sol\":6384:6385  1 */\n      0x01\n        /* \"contracts/blackjack.sol\":6366:6381  win_lose_or_tie */\n      0x03\n        /* \"contracts/blackjack.sol\":6366:6385  win_lose_or_tie = 1 */\n      dup2\n      swap1\n      sstore\n      pop\n        /* \"contracts/blackjack.sol\":6324:6699  if (dealerHandValue == 21) {... */\n      jump(tag_122)\n    tag_121:\n        /* \"contracts/blackjack.sol\":6456:6471  dealerHandValue */\n      dup1\n        /* \"contracts/blackjack.sol\":6437:6452  playerHandValue */\n      dup3\n        /* \"contracts/blackjack.sol\":6437:6471  playerHandValue == dealerHandValue */\n      sub\n        /* \"contracts/blackjack.sol\":6433:6699  if (playerHandValue == dealerHandValue) {... */\n      tag_123\n      jumpi\n        /* \"contracts/blackjack.sol\":6506:6507  2 */\n      0x02\n        /* \"contracts/blackjack.sol\":6488:6503  win_lose_or_tie */\n      0x03\n        /* \"contracts/blackjack.sol\":6488:6507  win_lose_or_tie = 2 */\n      dup2\n      swap1\n      sstore\n      pop\n        /* \"contracts/blackjack.sol\":6433:6699  if (playerHandValue == dealerHandValue) {... */\n      jump(tag_124)\n    tag_123:\n        /* \"contracts/blackjack.sol\":6554:6569  dealerHandValue */\n      dup1\n        /* \"contracts/blackjack.sol\":6536:6551  playerHandValue */\n      dup3\n        /* \"contracts/blackjack.sol\":6536:6569  playerHandValue > dealerHandValue */\n      gt\n        /* \"contracts/blackjack.sol\":6532:6699  if (playerHandValue > dealerHandValue) {... */\n      iszero\n      tag_125\n      jumpi\n        /* \"contracts/blackjack.sol\":6604:6605  0 */\n      0x00\n        /* \"contracts/blackjack.sol\":6586:6601  win_lose_or_tie */\n      0x03\n        /* \"contracts/blackjack.sol\":6586:6605  win_lose_or_tie = 0 */\n      dup2\n      swap1\n      sstore\n      pop\n        /* \"contracts/blackjack.sol\":6532:6699  if (playerHandValue > dealerHandValue) {... */\n      jump(tag_126)\n    tag_125:\n        /* \"contracts/blackjack.sol\":6671:6672  1 */\n      0x01\n        /* \"contracts/blackjack.sol\":6653:6668  win_lose_or_tie */\n      0x03\n        /* \"contracts/blackjack.sol\":6653:6672  win_lose_or_tie = 1 */\n      dup2\n      swap1\n      sstore\n      pop\n        /* \"contracts/blackjack.sol\":6532:6699  if (playerHandValue > dealerHandValue) {... */\n    tag_126:\n        /* \"contracts/blackjack.sol\":6433:6699  if (playerHandValue == dealerHandValue) {... */\n    tag_124:\n        /* \"contracts/blackjack.sol\":6324:6699  if (dealerHandValue == 21) {... */\n    tag_122:\n        /* \"contracts/blackjack.sol\":6215:6699  if (playerHandValue == 21) {... */\n    tag_120:\n        /* \"contracts/blackjack.sol\":6108:6699  if (dealerHandValue > 21) {... */\n    tag_118:\n        /* \"contracts/blackjack.sol\":6001:6699  if (playerHandValue > 21) {... */\n    tag_116:\n        /* \"contracts/blackjack.sol\":6711:6720  endGame() */\n      tag_127\n        /* \"contracts/blackjack.sol\":6711:6718  endGame */\n      tag_107\n        /* \"contracts/blackjack.sol\":6711:6720  endGame() */\n      jump\t// in\n    tag_127:\n        /* \"contracts/blackjack.sol\":5734:6728  {... */\n      pop\n      pop\n        /* \"contracts/blackjack.sol\":5701:6728  function decideWinner() internal {... */\n      jump\t// out\n        /* \"contracts/blackjack.sol\":7004:7629  function endGame() internal   {... */\n    tag_107:\n        /* \"contracts/blackjack.sol\":7116:7117  0 */\n      0x00\n        /* \"contracts/blackjack.sol\":7097:7112  win_lose_or_tie */\n      sload(0x03)\n        /* \"contracts/blackjack.sol\":7097:7117  win_lose_or_tie == 0 */\n      sub\n        /* \"contracts/blackjack.sol\":7093:7588  if (win_lose_or_tie == 0 ){  ... */\n      tag_129\n      jumpi\n        /* \"contracts/blackjack.sol\":7137:7146  bool sent */\n      0x00\n        /* \"contracts/blackjack.sol\":7160:7170  msg.sender */\n      caller\n        /* \"contracts/blackjack.sol\":7152:7176  payable(msg.sender).call */\n      0xffffffffffffffffffffffffffffffffffffffff\n      and\n        /* \"contracts/blackjack.sol\":7187:7190  bet */\n      sload(0x02)\n        /* \"contracts/blackjack.sol\":7185:7186  2 */\n      0x02\n        /* \"contracts/blackjack.sol\":7185:7190  2*bet */\n      tag_130\n      swap2\n      swap1\n      tag_63\n      jump\t// in\n    tag_130:\n        /* \"contracts/blackjack.sol\":7152:7195  payable(msg.sender).call{value : 2*bet}(\"\") */\n      mload(0x40)\n      tag_131\n      swap1\n      tag_132\n      jump\t// in\n    tag_131:\n      0x00\n      mload(0x40)\n      dup1\n      dup4\n      sub\n      dup2\n      dup6\n      dup8\n      gas\n      call\n      swap3\n      pop\n      pop\n      pop\n      returndatasize\n      dup1\n      0x00\n      dup2\n      eq\n      tag_135\n      jumpi\n      mload(0x40)\n      swap2\n      pop\n      and(add(returndatasize, 0x3f), not(0x1f))\n      dup3\n      add\n      0x40\n      mstore\n      returndatasize\n      dup3\n      mstore\n      returndatasize\n      0x00\n      0x20\n      dup5\n      add\n      returndatacopy\n      jump(tag_134)\n    tag_135:\n      0x60\n      swap2\n      pop\n    tag_134:\n      pop\n        /* \"contracts/blackjack.sol\":7136:7195  (bool sent, ) = payable(msg.sender).call{value : 2*bet}(\"\") */\n      pop\n      swap1\n      pop\n        /* \"contracts/blackjack.sol\":7239:7243  sent */\n      dup1\n        /* \"contracts/blackjack.sol\":7231:7264  require(sent, \"Transfer failed.\") */\n      tag_136\n      jumpi\n      mload(0x40)\n      0x08c379a000000000000000000000000000000000000000000000000000000000\n      dup2\n      mstore\n      0x04\n      add\n      tag_137\n      swap1\n      tag_138\n      jump\t// in\n    tag_137:\n      mload(0x40)\n      dup1\n      swap2\n      sub\n      swap1\n      revert\n    tag_136:\n        /* \"contracts/blackjack.sol\":7119:7341  {  ... */\n      pop\n        /* \"contracts/blackjack.sol\":7093:7588  if (win_lose_or_tie == 0 ){  ... */\n      jump(tag_139)\n    tag_129:\n        /* \"contracts/blackjack.sol\":7379:7380  1 */\n      0x01\n        /* \"contracts/blackjack.sol\":7360:7375  win_lose_or_tie */\n      sload(0x03)\n        /* \"contracts/blackjack.sol\":7360:7380  win_lose_or_tie == 1 */\n      sub\n        /* \"contracts/blackjack.sol\":7356:7588  if (win_lose_or_tie == 1) {... */\n      tag_140\n      jumpi\n        /* \"contracts/blackjack.sol\":7427:7430  bet */\n      sload(0x02)\n        /* \"contracts/blackjack.sol\":7397:7411  playerBalances */\n      0x04\n        /* \"contracts/blackjack.sol\":7397:7423  playerBalances[msg.sender] */\n      0x00\n        /* \"contracts/blackjack.sol\":7412:7422  msg.sender */\n      caller\n        /* \"contracts/blackjack.sol\":7397:7423  playerBalances[msg.sender] */\n      0xffffffffffffffffffffffffffffffffffffffff\n      and\n      0xffffffffffffffffffffffffffffffffffffffff\n      and\n      dup2\n      mstore\n      0x20\n      add\n      swap1\n      dup2\n      mstore\n      0x20\n      add\n      0x00\n      keccak256\n      0x00\n        /* \"contracts/blackjack.sol\":7397:7430  playerBalances[msg.sender] -= bet */\n      dup3\n      dup3\n      sload\n      tag_141\n      swap2\n      swap1\n      tag_68\n      jump\t// in\n    tag_141:\n      swap3\n      pop\n      pop\n      dup2\n      swap1\n      sstore\n      pop\n        /* \"contracts/blackjack.sol\":7356:7588  if (win_lose_or_tie == 1) {... */\n      jump(tag_142)\n    tag_140:\n        /* \"contracts/blackjack.sol\":7527:7528  2 */\n      0x02\n        /* \"contracts/blackjack.sol\":7508:7523  win_lose_or_tie */\n      sload(0x03)\n        /* \"contracts/blackjack.sol\":7508:7528  win_lose_or_tie == 2 */\n      sub\n        /* \"contracts/blackjack.sol\":7503:7588  if ( win_lose_or_tie == 2){... */\n      tag_143\n      jumpi\n        /* \"contracts/blackjack.sol\":7573:7576  bet */\n      sload(0x02)\n        /* \"contracts/blackjack.sol\":7544:7558  playerBalances */\n      0x04\n        /* \"contracts/blackjack.sol\":7544:7570  playerBalances[msg.sender] */\n      0x00\n        /* \"contracts/blackjack.sol\":7559:7569  msg.sender */\n      caller\n        /* \"contracts/blackjack.sol\":7544:7570  playerBalances[msg.sender] */\n      0xffffffffffffffffffffffffffffffffffffffff\n      and\n      0xffffffffffffffffffffffffffffffffffffffff\n      and\n      dup2\n      mstore\n      0x20\n      add\n      swap1\n      dup2\n      mstore\n      0x20\n      add\n      0x00\n      keccak256\n      0x00\n        /* \"contracts/blackjack.sol\":7544:7576  playerBalances[msg.sender] +=bet */\n      dup3\n      dup3\n      sload\n      tag_144\n      swap2\n      swap1\n      tag_86\n      jump\t// in\n    tag_144:\n      swap3\n      pop\n      pop\n      dup2\n      swap1\n      sstore\n      pop\n        /* \"contracts/blackjack.sol\":7503:7588  if ( win_lose_or_tie == 2){... */\n    tag_143:\n        /* \"contracts/blackjack.sol\":7356:7588  if (win_lose_or_tie == 1) {... */\n    tag_142:\n        /* \"contracts/blackjack.sol\":7093:7588  if (win_lose_or_tie == 0 ){  ... */\n    tag_139:\n        /* \"contracts/blackjack.sol\":7616:7621  false */\n      0x00\n        /* \"contracts/blackjack.sol\":7602:7613  gameStarted */\n      0x01\n      0x00\n        /* \"contracts/blackjack.sol\":7602:7621  gameStarted = false */\n      0x0100\n      exp\n      dup2\n      sload\n      dup2\n      0xff\n      mul\n      not\n      and\n      swap1\n      dup4\n      iszero\n      iszero\n      mul\n      or\n      swap1\n      sstore\n      pop\n        /* \"contracts/blackjack.sol\":7004:7629  function endGame() internal   {... */\n      jump\t// out\n        /* \"#utility.yul\":88:205   */\n    tag_146:\n        /* \"#utility.yul\":197:198   */\n      0x00\n        /* \"#utility.yul\":194:195   */\n      dup1\n        /* \"#utility.yul\":187:199   */\n      revert\n        /* \"#utility.yul\":334:424   */\n    tag_148:\n        /* \"#utility.yul\":368:375   */\n      0x00\n        /* \"#utility.yul\":411:416   */\n      dup2\n        /* \"#utility.yul\":404:417   */\n      iszero\n        /* \"#utility.yul\":397:418   */\n      iszero\n        /* \"#utility.yul\":386:418   */\n      swap1\n      pop\n        /* \"#utility.yul\":334:424   */\n      swap2\n      swap1\n      pop\n      jump\t// out\n        /* \"#utility.yul\":430:546   */\n    tag_149:\n        /* \"#utility.yul\":500:521   */\n      tag_183\n        /* \"#utility.yul\":515:520   */\n      dup2\n        /* \"#utility.yul\":500:521   */\n      tag_148\n      jump\t// in\n    tag_183:\n        /* \"#utility.yul\":493:498   */\n      dup2\n        /* \"#utility.yul\":490:522   */\n      eq\n        /* \"#utility.yul\":480:540   */\n      tag_184\n      jumpi\n        /* \"#utility.yul\":536:537   */\n      0x00\n        /* \"#utility.yul\":533:534   */\n      dup1\n        /* \"#utility.yul\":526:538   */\n      revert\n        /* \"#utility.yul\":480:540   */\n    tag_184:\n        /* \"#utility.yul\":430:546   */\n      pop\n      jump\t// out\n        /* \"#utility.yul\":552:685   */\n    tag_150:\n        /* \"#utility.yul\":595:600   */\n      0x00\n        /* \"#utility.yul\":633:639   */\n      dup2\n        /* \"#utility.yul\":620:640   */\n      calldataload\n        /* \"#utility.yul\":611:640   */\n      swap1\n      pop\n        /* \"#utility.yul\":649:679   */\n      tag_186\n        /* \"#utility.yul\":673:678   */\n      dup2\n        /* \"#utility.yul\":649:679   */\n      tag_149\n      jump\t// in\n    tag_186:\n        /* \"#utility.yul\":552:685   */\n      swap3\n      swap2\n      pop\n      pop\n      jump\t// out\n        /* \"#utility.yul\":691:1014   */\n    tag_8:\n        /* \"#utility.yul\":747:753   */\n      0x00\n        /* \"#utility.yul\":796:798   */\n      0x20\n        /* \"#utility.yul\":784:793   */\n      dup3\n        /* \"#utility.yul\":775:782   */\n      dup5\n        /* \"#utility.yul\":771:794   */\n      sub\n        /* \"#utility.yul\":767:799   */\n      slt\n        /* \"#utility.yul\":764:883   */\n      iszero\n      tag_188\n      jumpi\n        /* \"#utility.yul\":802:881   */\n      tag_189\n      tag_146\n      jump\t// in\n    tag_189:\n        /* \"#utility.yul\":764:883   */\n    tag_188:\n        /* \"#utility.yul\":922:923   */\n      0x00\n        /* \"#utility.yul\":947:997   */\n      tag_190\n        /* \"#utility.yul\":989:996   */\n      dup5\n        /* \"#utility.yul\":980:986   */\n      dup3\n        /* \"#utility.yul\":969:978   */\n      dup6\n        /* \"#utility.yul\":965:987   */\n      add\n        /* \"#utility.yul\":947:997   */\n      tag_150\n      jump\t// in\n    tag_190:\n        /* \"#utility.yul\":937:997   */\n      swap2\n      pop\n        /* \"#utility.yul\":893:1007   */\n      pop\n        /* \"#utility.yul\":691:1014   */\n      swap3\n      swap2\n      pop\n      pop\n      jump\t// out\n        /* \"#utility.yul\":1020:1146   */\n    tag_151:\n        /* \"#utility.yul\":1057:1064   */\n      0x00\n        /* \"#utility.yul\":1097:1139   */\n      0xffffffffffffffffffffffffffffffffffffffff\n        /* \"#utility.yul\":1090:1095   */\n      dup3\n        /* \"#utility.yul\":1086:1140   */\n      and\n        /* \"#utility.yul\":1075:1140   */\n      swap1\n      pop\n        /* \"#utility.yul\":1020:1146   */\n      swap2\n      swap1\n      pop\n      jump\t// out\n        /* \"#utility.yul\":1152:1248   */\n    tag_152:\n        /* \"#utility.yul\":1189:1196   */\n      0x00\n        /* \"#utility.yul\":1218:1242   */\n      tag_193\n        /* \"#utility.yul\":1236:1241   */\n      dup3\n        /* \"#utility.yul\":1218:1242   */\n      tag_151\n      jump\t// in\n    tag_193:\n        /* \"#utility.yul\":1207:1242   */\n      swap1\n      pop\n        /* \"#utility.yul\":1152:1248   */\n      swap2\n      swap1\n      pop\n      jump\t// out\n        /* \"#utility.yul\":1254:1376   */\n    tag_153:\n        /* \"#utility.yul\":1327:1351   */\n      tag_195\n        /* \"#utility.yul\":1345:1350   */\n      dup2\n        /* \"#utility.yul\":1327:1351   */\n      tag_152\n      jump\t// in\n    tag_195:\n        /* \"#utility.yul\":1320:1325   */\n      dup2\n        /* \"#utility.yul\":1317:1352   */\n      eq\n        /* \"#utility.yul\":1307:1370   */\n      tag_196\n      jumpi\n        /* \"#utility.yul\":1366:1367   */\n      0x00\n        /* \"#utility.yul\":1363:1364   */\n      dup1\n        /* \"#utility.yul\":1356:1368   */\n      revert\n        /* \"#utility.yul\":1307:1370   */\n    tag_196:\n        /* \"#utility.yul\":1254:1376   */\n      pop\n      jump\t// out\n        /* \"#utility.yul\":1382:1521   */\n    tag_154:\n        /* \"#utility.yul\":1428:1433   */\n      0x00\n        /* \"#utility.yul\":1466:1472   */\n      dup2\n        /* \"#utility.yul\":1453:1473   */\n      calldataload\n        /* \"#utility.yul\":1444:1473   */\n      swap1\n      pop\n        /* \"#utility.yul\":1482:1515   */\n      tag_198\n        /* \"#utility.yul\":1509:1514   */\n      dup2\n        /* \"#utility.yul\":1482:1515   */\n      tag_153\n      jump\t// in\n    tag_198:\n        /* \"#utility.yul\":1382:1521   */\n      swap3\n      swap2\n      pop\n      pop\n      jump\t// out\n        /* \"#utility.yul\":1527:1856   */\n    tag_12:\n        /* \"#utility.yul\":1586:1592   */\n      0x00\n        /* \"#utility.yul\":1635:1637   */\n      0x20\n        /* \"#utility.yul\":1623:1632   */\n      dup3\n        /* \"#utility.yul\":1614:1621   */\n      dup5\n        /* \"#utility.yul\":1610:1633   */\n      sub\n        /* \"#utility.yul\":1606:1638   */\n      slt\n        /* \"#utility.yul\":1603:1722   */\n      iszero\n      tag_200\n      jumpi\n        /* \"#utility.yul\":1641:1720   */\n      tag_201\n      tag_146\n      jump\t// in\n    tag_201:\n        /* \"#utility.yul\":1603:1722   */\n    tag_200:\n        /* \"#utility.yul\":1761:1762   */\n      0x00\n        /* \"#utility.yul\":1786:1839   */\n      tag_202\n        /* \"#utility.yul\":1831:1838   */\n      dup5\n        /* \"#utility.yul\":1822:1828   */\n      dup3\n        /* \"#utility.yul\":1811:1820   */\n      dup6\n        /* \"#utility.yul\":1807:1829   */\n      add\n        /* \"#utility.yul\":1786:1839   */\n      tag_154\n      jump\t// in\n    tag_202:\n        /* \"#utility.yul\":1776:1839   */\n      swap2\n      pop\n        /* \"#utility.yul\":1732:1849   */\n      pop\n        /* \"#utility.yul\":1527:1856   */\n      swap3\n      swap2\n      pop\n      pop\n      jump\t// out\n        /* \"#utility.yul\":1862:1939   */\n    tag_155:\n        /* \"#utility.yul\":1899:1906   */\n      0x00\n        /* \"#utility.yul\":1928:1933   */\n      dup2\n        /* \"#utility.yul\":1917:1933   */\n      swap1\n      pop\n        /* \"#utility.yul\":1862:1939   */\n      swap2\n      swap1\n      pop\n      jump\t// out\n        /* \"#utility.yul\":1945:2063   */\n    tag_156:\n        /* \"#utility.yul\":2032:2056   */\n      tag_205\n        /* \"#utility.yul\":2050:2055   */\n      dup2\n        /* \"#utility.yul\":2032:2056   */\n      tag_155\n      jump\t// in\n    tag_205:\n        /* \"#utility.yul\":2027:2030   */\n      dup3\n        /* \"#utility.yul\":2020:2057   */\n      mstore\n        /* \"#utility.yul\":1945:2063   */\n      pop\n      pop\n      jump\t// out\n        /* \"#utility.yul\":2069:2291   */\n    tag_15:\n        /* \"#utility.yul\":2162:2166   */\n      0x00\n        /* \"#utility.yul\":2200:2202   */\n      0x20\n        /* \"#utility.yul\":2189:2198   */\n      dup3\n        /* \"#utility.yul\":2185:2203   */\n      add\n        /* \"#utility.yul\":2177:2203   */\n      swap1\n      pop\n        /* \"#utility.yul\":2213:2284   */\n      tag_207\n        /* \"#utility.yul\":2281:2282   */\n      0x00\n        /* \"#utility.yul\":2270:2279   */\n      dup4\n        /* \"#utility.yul\":2266:2283   */\n      add\n        /* \"#utility.yul\":2257:2263   */\n      dup5\n        /* \"#utility.yul\":2213:2284   */\n      tag_156\n      jump\t// in\n    tag_207:\n        /* \"#utility.yul\":2069:2291   */\n      swap3\n      swap2\n      pop\n      pop\n      jump\t// out\n        /* \"#utility.yul\":2297:2419   */\n    tag_157:\n        /* \"#utility.yul\":2370:2394   */\n      tag_209\n        /* \"#utility.yul\":2388:2393   */\n      dup2\n        /* \"#utility.yul\":2370:2394   */\n      tag_155\n      jump\t// in\n    tag_209:\n        /* \"#utility.yul\":2363:2368   */\n      dup2\n        /* \"#utility.yul\":2360:2395   */\n      eq\n        /* \"#utility.yul\":2350:2413   */\n      tag_210\n      jumpi\n        /* \"#utility.yul\":2409:2410   */\n      0x00\n        /* \"#utility.yul\":2406:2407   */\n      dup1\n        /* \"#utility.yul\":2399:2411   */\n      revert\n        /* \"#utility.yul\":2350:2413   */\n    tag_210:\n        /* \"#utility.yul\":2297:2419   */\n      pop\n      jump\t// out\n        /* \"#utility.yul\":2425:2564   */\n    tag_158:\n        /* \"#utility.yul\":2471:2476   */\n      0x00\n        /* \"#utility.yul\":2509:2515   */\n      dup2\n        /* \"#utility.yul\":2496:2516   */\n      calldataload\n        /* \"#utility.yul\":2487:2516   */\n      swap1\n      pop\n        /* \"#utility.yul\":2525:2558   */\n      tag_212\n        /* \"#utility.yul\":2552:2557   */\n      dup2\n        /* \"#utility.yul\":2525:2558   */\n      tag_157\n      jump\t// in\n    tag_212:\n        /* \"#utility.yul\":2425:2564   */\n      swap3\n      swap2\n      pop\n      pop\n      jump\t// out\n        /* \"#utility.yul\":2570:2899   */\n    tag_18:\n        /* \"#utility.yul\":2629:2635   */\n      0x00\n        /* \"#utility.yul\":2678:2680   */\n      0x20\n        /* \"#utility.yul\":2666:2675   */\n      dup3\n        /* \"#utility.yul\":2657:2664   */\n      dup5\n        /* \"#utility.yul\":2653:2676   */\n      sub\n        /* \"#utility.yul\":2649:2681   */\n      slt\n        /* \"#utility.yul\":2646:2765   */\n      iszero\n      tag_214\n      jumpi\n        /* \"#utility.yul\":2684:2763   */\n      tag_215\n      tag_146\n      jump\t// in\n    tag_215:\n        /* \"#utility.yul\":2646:2765   */\n    tag_214:\n        /* \"#utility.yul\":2804:2805   */\n      0x00\n        /* \"#utility.yul\":2829:2882   */\n      tag_216\n        /* \"#utility.yul\":2874:2881   */\n      dup5\n        /* \"#utility.yul\":2865:2871   */\n      dup3\n        /* \"#utility.yul\":2854:2863   */\n      dup6\n        /* \"#utility.yul\":2850:2872   */\n      add\n        /* \"#utility.yul\":2829:2882   */\n      tag_158\n      jump\t// in\n    tag_216:\n        /* \"#utility.yul\":2819:2882   */\n      swap2\n      pop\n        /* \"#utility.yul\":2775:2892   */\n      pop\n        /* \"#utility.yul\":2570:2899   */\n      swap3\n      swap2\n      pop\n      pop\n      jump\t// out\n        /* \"#utility.yul\":2905:3074   */\n    tag_159:\n        /* \"#utility.yul\":2989:3000   */\n      0x00\n        /* \"#utility.yul\":3023:3029   */\n      dup3\n        /* \"#utility.yul\":3018:3021   */\n      dup3\n        /* \"#utility.yul\":3011:3030   */\n      mstore\n        /* \"#utility.yul\":3063:3067   */\n      0x20\n        /* \"#utility.yul\":3058:3061   */\n      dup3\n        /* \"#utility.yul\":3054:3068   */\n      add\n        /* \"#utility.yul\":3039:3068   */\n      swap1\n      pop\n        /* \"#utility.yul\":2905:3074   */\n      swap3\n      swap2\n      pop\n      pop\n      jump\t// out\n        /* \"#utility.yul\":3080:3261   */\n    tag_160:\n        /* \"#utility.yul\":3220:3253   */\n      0x496e76616c6964204265742e20506c6561736520626964206f76657220302e00\n        /* \"#utility.yul\":3216:3217   */\n      0x00\n        /* \"#utility.yul\":3208:3214   */\n      dup3\n        /* \"#utility.yul\":3204:3218   */\n      add\n        /* \"#utility.yul\":3197:3254   */\n      mstore\n        /* \"#utility.yul\":3080:3261   */\n      pop\n      jump\t// out\n        /* \"#utility.yul\":3267:3633   */\n    tag_161:\n        /* \"#utility.yul\":3409:3412   */\n      0x00\n        /* \"#utility.yul\":3430:3497   */\n      tag_220\n        /* \"#utility.yul\":3494:3496   */\n      0x1f\n        /* \"#utility.yul\":3489:3492   */\n      dup4\n        /* \"#utility.yul\":3430:3497   */\n      tag_159\n      jump\t// in\n    tag_220:\n        /* \"#utility.yul\":3423:3497   */\n      swap2\n      pop\n        /* \"#utility.yul\":3506:3599   */\n      tag_221\n        /* \"#utility.yul\":3595:3598   */\n      dup3\n        /* \"#utility.yul\":3506:3599   */\n      tag_160\n      jump\t// in\n    tag_221:\n        /* \"#utility.yul\":3624:3626   */\n      0x20\n        /* \"#utility.yul\":3619:3622   */\n      dup3\n        /* \"#utility.yul\":3615:3627   */\n      add\n        /* \"#utility.yul\":3608:3627   */\n      swap1\n      pop\n        /* \"#utility.yul\":3267:3633   */\n      swap2\n      swap1\n      pop\n      jump\t// out\n        /* \"#utility.yul\":3639:4058   */\n    tag_61:\n        /* \"#utility.yul\":3805:3809   */\n      0x00\n        /* \"#utility.yul\":3843:3845   */\n      0x20\n        /* \"#utility.yul\":3832:3841   */\n      dup3\n        /* \"#utility.yul\":3828:3846   */\n      add\n        /* \"#utility.yul\":3820:3846   */\n      swap1\n      pop\n        /* \"#utility.yul\":3892:3901   */\n      dup2\n        /* \"#utility.yul\":3886:3890   */\n      dup2\n        /* \"#utility.yul\":3882:3902   */\n      sub\n        /* \"#utility.yul\":3878:3879   */\n      0x00\n        /* \"#utility.yul\":3867:3876   */\n      dup4\n        /* \"#utility.yul\":3863:3880   */\n      add\n        /* \"#utility.yul\":3856:3903   */\n      mstore\n        /* \"#utility.yul\":3920:4051   */\n      tag_223\n        /* \"#utility.yul\":4046:4050   */\n      dup2\n        /* \"#utility.yul\":3920:4051   */\n      tag_161\n      jump\t// in\n    tag_223:\n        /* \"#utility.yul\":3912:4051   */\n      swap1\n      pop\n        /* \"#utility.yul\":3639:4058   */\n      swap2\n      swap1\n      pop\n      jump\t// out\n        /* \"#utility.yul\":4064:4244   */\n    tag_162:\n        /* \"#utility.yul\":4112:4189   */\n      0x4e487b7100000000000000000000000000000000000000000000000000000000\n        /* \"#utility.yul\":4109:4110   */\n      0x00\n        /* \"#utility.yul\":4102:4190   */\n      mstore\n        /* \"#utility.yul\":4209:4213   */\n      0x11\n        /* \"#utility.yul\":4206:4207   */\n      0x04\n        /* \"#utility.yul\":4199:4214   */\n      mstore\n        /* \"#utility.yul\":4233:4237   */\n      0x24\n        /* \"#utility.yul\":4230:4231   */\n      0x00\n        /* \"#utility.yul\":4223:4238   */\n      revert\n        /* \"#utility.yul\":4250:4660   */\n    tag_63:\n        /* \"#utility.yul\":4290:4297   */\n      0x00\n        /* \"#utility.yul\":4313:4333   */\n      tag_226\n        /* \"#utility.yul\":4331:4332   */\n      dup3\n        /* \"#utility.yul\":4313:4333   */\n      tag_155\n      jump\t// in\n    tag_226:\n        /* \"#utility.yul\":4308:4333   */\n      swap2\n      pop\n        /* \"#utility.yul\":4347:4367   */\n      tag_227\n        /* \"#utility.yul\":4365:4366   */\n      dup4\n        /* \"#utility.yul\":4347:4367   */\n      tag_155\n      jump\t// in\n    tag_227:\n        /* \"#utility.yul\":4342:4367   */\n      swap3\n      pop\n        /* \"#utility.yul\":4402:4403   */\n      dup3\n        /* \"#utility.yul\":4399:4400   */\n      dup3\n        /* \"#utility.yul\":4395:4404   */\n      mul\n        /* \"#utility.yul\":4424:4454   */\n      tag_228\n        /* \"#utility.yul\":4442:4453   */\n      dup2\n        /* \"#utility.yul\":4424:4454   */\n      tag_155\n      jump\t// in\n    tag_228:\n        /* \"#utility.yul\":4413:4454   */\n      swap2\n      pop\n        /* \"#utility.yul\":4603:4604   */\n      dup3\n        /* \"#utility.yul\":4594:4601   */\n      dup3\n        /* \"#utility.yul\":4590:4605   */\n      div\n        /* \"#utility.yul\":4587:4588   */\n      dup5\n        /* \"#utility.yul\":4584:4606   */\n      eq\n        /* \"#utility.yul\":4564:4565   */\n      dup4\n        /* \"#utility.yul\":4557:4566   */\n      iszero\n        /* \"#utility.yul\":4537:4620   */\n      or\n        /* \"#utility.yul\":4514:4653   */\n      tag_229\n      jumpi\n        /* \"#utility.yul\":4633:4651   */\n      tag_230\n      tag_162\n      jump\t// in\n    tag_230:\n        /* \"#utility.yul\":4514:4653   */\n    tag_229:\n        /* \"#utility.yul\":4298:4660   */\n      pop\n        /* \"#utility.yul\":4250:4660   */\n      swap3\n      swap2\n      pop\n      pop\n      jump\t// out\n        /* \"#utility.yul\":4666:4974   */\n    tag_163:\n        /* \"#utility.yul\":4806:4840   */\n      0x496e73756666696369656e742062616c616e636520746f207374617274207468\n        /* \"#utility.yul\":4802:4803   */\n      0x00\n        /* \"#utility.yul\":4794:4800   */\n      dup3\n        /* \"#utility.yul\":4790:4804   */\n      add\n        /* \"#utility.yul\":4783:4841   */\n      mstore\n        /* \"#utility.yul\":4875:4909   */\n      0x652067616d652e20596f75206e65656420322074696d65732074686520616d6f\n        /* \"#utility.yul\":4870:4872   */\n      0x20\n        /* \"#utility.yul\":4862:4868   */\n      dup3\n        /* \"#utility.yul\":4858:4873   */\n      add\n        /* \"#utility.yul\":4851:4910   */\n      mstore\n        /* \"#utility.yul\":4944:4966   */\n      0x756e7420796f752062657420746f20706c61792e000000000000000000000000\n        /* \"#utility.yul\":4939:4941   */\n      0x40\n        /* \"#utility.yul\":4931:4937   */\n      dup3\n        /* \"#utility.yul\":4927:4942   */\n      add\n        /* \"#utility.yul\":4920:4967   */\n      mstore\n        /* \"#utility.yul\":4666:4974   */\n      pop\n      jump\t// out\n        /* \"#utility.yul\":4980:5346   */\n    tag_164:\n        /* \"#utility.yul\":5122:5125   */\n      0x00\n        /* \"#utility.yul\":5143:5210   */\n      tag_233\n        /* \"#utility.yul\":5207:5209   */\n      0x54\n        /* \"#utility.yul\":5202:5205   */\n      dup4\n        /* \"#utility.yul\":5143:5210   */\n      tag_159\n      jump\t// in\n    tag_233:\n        /* \"#utility.yul\":5136:5210   */\n      swap2\n      pop\n        /* \"#utility.yul\":5219:5312   */\n      tag_234\n        /* \"#utility.yul\":5308:5311   */\n      dup3\n        /* \"#utility.yul\":5219:5312   */\n      tag_163\n      jump\t// in\n    tag_234:\n        /* \"#utility.yul\":5337:5339   */\n      0x60\n        /* \"#utility.yul\":5332:5335   */\n      dup3\n        /* \"#utility.yul\":5328:5340   */\n      add\n        /* \"#utility.yul\":5321:5340   */\n      swap1\n      pop\n        /* \"#utility.yul\":4980:5346   */\n      swap2\n      swap1\n      pop\n      jump\t// out\n        /* \"#utility.yul\":5352:5771   */\n    tag_66:\n        /* \"#utility.yul\":5518:5522   */\n      0x00\n        /* \"#utility.yul\":5556:5558   */\n      0x20\n        /* \"#utility.yul\":5545:5554   */\n      dup3\n        /* \"#utility.yul\":5541:5559   */\n      add\n        /* \"#utility.yul\":5533:5559   */\n      swap1\n      pop\n        /* \"#utility.yul\":5605:5614   */\n      dup2\n        /* \"#utility.yul\":5599:5603   */\n      dup2\n        /* \"#utility.yul\":5595:5615   */\n      sub\n        /* \"#utility.yul\":5591:5592   */\n      0x00\n        /* \"#utility.yul\":5580:5589   */\n      dup4\n        /* \"#utility.yul\":5576:5593   */\n      add\n        /* \"#utility.yul\":5569:5616   */\n      mstore\n        /* \"#utility.yul\":5633:5764   */\n      tag_236\n        /* \"#utility.yul\":5759:5763   */\n      dup2\n        /* \"#utility.yul\":5633:5764   */\n      tag_164\n      jump\t// in\n    tag_236:\n        /* \"#utility.yul\":5625:5764   */\n      swap1\n      pop\n        /* \"#utility.yul\":5352:5771   */\n      swap2\n      swap1\n      pop\n      jump\t// out\n        /* \"#utility.yul\":5777:5971   */\n    tag_68:\n        /* \"#utility.yul\":5817:5821   */\n      0x00\n        /* \"#utility.yul\":5837:5857   */\n      tag_238\n        /* \"#utility.yul\":5855:5856   */\n      dup3\n        /* \"#utility.yul\":5837:5857   */\n      tag_155\n      jump\t// in\n    tag_238:\n        /* \"#utility.yul\":5832:5857   */\n      swap2\n      pop\n        /* \"#utility.yul\":5871:5891   */\n      tag_239\n        /* \"#utility.yul\":5889:5890   */\n      dup4\n        /* \"#utility.yul\":5871:5891   */\n      tag_155\n      jump\t// in\n    tag_239:\n        /* \"#utility.yul\":5866:5891   */\n      swap3\n      pop\n        /* \"#utility.yul\":5915:5916   */\n      dup3\n        /* \"#utility.yul\":5912:5913   */\n      dup3\n        /* \"#utility.yul\":5908:5917   */\n      sub\n        /* \"#utility.yul\":5900:5917   */\n      swap1\n      pop\n        /* \"#utility.yul\":5939:5940   */\n      dup2\n        /* \"#utility.yul\":5933:5937   */\n      dup2\n        /* \"#utility.yul\":5930:5941   */\n      gt\n        /* \"#utility.yul\":5927:5964   */\n      iszero\n      tag_240\n      jumpi\n        /* \"#utility.yul\":5944:5962   */\n      tag_241\n      tag_162\n      jump\t// in\n    tag_241:\n        /* \"#utility.yul\":5927:5964   */\n    tag_240:\n        /* \"#utility.yul\":5777:5971   */\n      swap3\n      swap2\n      pop\n      pop\n      jump\t// out\n        /* \"#utility.yul\":5977:6071   */\n    tag_165:\n        /* \"#utility.yul\":6010:6018   */\n      0x00\n        /* \"#utility.yul\":6058:6063   */\n      dup2\n        /* \"#utility.yul\":6054:6056   */\n      0x60\n        /* \"#utility.yul\":6050:6064   */\n      shl\n        /* \"#utility.yul\":6029:6064   */\n      swap1\n      pop\n        /* \"#utility.yul\":5977:6071   */\n      swap2\n      swap1\n      pop\n      jump\t// out\n        /* \"#utility.yul\":6077:6171   */\n    tag_166:\n        /* \"#utility.yul\":6116:6123   */\n      0x00\n        /* \"#utility.yul\":6145:6165   */\n      tag_244\n        /* \"#utility.yul\":6159:6164   */\n      dup3\n        /* \"#utility.yul\":6145:6165   */\n      tag_165\n      jump\t// in\n    tag_244:\n        /* \"#utility.yul\":6134:6165   */\n      swap1\n      pop\n        /* \"#utility.yul\":6077:6171   */\n      swap2\n      swap1\n      pop\n      jump\t// out\n        /* \"#utility.yul\":6177:6277   */\n    tag_167:\n        /* \"#utility.yul\":6216:6223   */\n      0x00\n        /* \"#utility.yul\":6245:6271   */\n      tag_246\n        /* \"#utility.yul\":6265:6270   */\n      dup3\n        /* \"#utility.yul\":6245:6271   */\n      tag_166\n      jump\t// in\n    tag_246:\n        /* \"#utility.yul\":6234:6271   */\n      swap1\n      pop\n        /* \"#utility.yul\":6177:6277   */\n      swap2\n      swap1\n      pop\n      jump\t// out\n        /* \"#utility.yul\":6283:6440   */\n    tag_168:\n        /* \"#utility.yul\":6388:6433   */\n      tag_248\n        /* \"#utility.yul\":6408:6432   */\n      tag_249\n        /* \"#utility.yul\":6426:6431   */\n      dup3\n        /* \"#utility.yul\":6408:6432   */\n      tag_152\n      jump\t// in\n    tag_249:\n        /* \"#utility.yul\":6388:6433   */\n      tag_167\n      jump\t// in\n    tag_248:\n        /* \"#utility.yul\":6383:6386   */\n      dup3\n        /* \"#utility.yul\":6376:6434   */\n      mstore\n        /* \"#utility.yul\":6283:6440   */\n      pop\n      pop\n      jump\t// out\n        /* \"#utility.yul\":6446:6525   */\n    tag_169:\n        /* \"#utility.yul\":6485:6492   */\n      0x00\n        /* \"#utility.yul\":6514:6519   */\n      dup2\n        /* \"#utility.yul\":6503:6519   */\n      swap1\n      pop\n        /* \"#utility.yul\":6446:6525   */\n      swap2\n      swap1\n      pop\n      jump\t// out\n        /* \"#utility.yul\":6531:6688   */\n    tag_170:\n        /* \"#utility.yul\":6636:6681   */\n      tag_252\n        /* \"#utility.yul\":6656:6680   */\n      tag_253\n        /* \"#utility.yul\":6674:6679   */\n      dup3\n        /* \"#utility.yul\":6656:6680   */\n      tag_155\n      jump\t// in\n    tag_253:\n        /* \"#utility.yul\":6636:6681   */\n      tag_169\n      jump\t// in\n    tag_252:\n        /* \"#utility.yul\":6631:6634   */\n      dup3\n        /* \"#utility.yul\":6624:6682   */\n      mstore\n        /* \"#utility.yul\":6531:6688   */\n      pop\n      pop\n      jump\t// out\n        /* \"#utility.yul\":6694:7373   */\n    tag_82:\n        /* \"#utility.yul\":6890:6893   */\n      0x00\n        /* \"#utility.yul\":6905:6980   */\n      tag_255\n        /* \"#utility.yul\":6976:6979   */\n      dup3\n        /* \"#utility.yul\":6967:6973   */\n      dup8\n        /* \"#utility.yul\":6905:6980   */\n      tag_168\n      jump\t// in\n    tag_255:\n        /* \"#utility.yul\":7005:7007   */\n      0x14\n        /* \"#utility.yul\":7000:7003   */\n      dup3\n        /* \"#utility.yul\":6996:7008   */\n      add\n        /* \"#utility.yul\":6989:7008   */\n      swap2\n      pop\n        /* \"#utility.yul\":7018:7093   */\n      tag_256\n        /* \"#utility.yul\":7089:7092   */\n      dup3\n        /* \"#utility.yul\":7080:7086   */\n      dup7\n        /* \"#utility.yul\":7018:7093   */\n      tag_170\n      jump\t// in\n    tag_256:\n        /* \"#utility.yul\":7118:7120   */\n      0x20\n        /* \"#utility.yul\":7113:7116   */\n      dup3\n        /* \"#utility.yul\":7109:7121   */\n      add\n        /* \"#utility.yul\":7102:7121   */\n      swap2\n      pop\n        /* \"#utility.yul\":7131:7206   */\n      tag_257\n        /* \"#utility.yul\":7202:7205   */\n      dup3\n        /* \"#utility.yul\":7193:7199   */\n      dup6\n        /* \"#utility.yul\":7131:7206   */\n      tag_170\n      jump\t// in\n    tag_257:\n        /* \"#utility.yul\":7231:7233   */\n      0x20\n        /* \"#utility.yul\":7226:7229   */\n      dup3\n        /* \"#utility.yul\":7222:7234   */\n      add\n        /* \"#utility.yul\":7215:7234   */\n      swap2\n      pop\n        /* \"#utility.yul\":7244:7319   */\n      tag_258\n        /* \"#utility.yul\":7315:7318   */\n      dup3\n        /* \"#utility.yul\":7306:7312   */\n      dup5\n        /* \"#utility.yul\":7244:7319   */\n      tag_168\n      jump\t// in\n    tag_258:\n        /* \"#utility.yul\":7344:7346   */\n      0x14\n        /* \"#utility.yul\":7339:7342   */\n      dup3\n        /* \"#utility.yul\":7335:7347   */\n      add\n        /* \"#utility.yul\":7328:7347   */\n      swap2\n      pop\n        /* \"#utility.yul\":7364:7367   */\n      dup2\n        /* \"#utility.yul\":7357:7367   */\n      swap1\n      pop\n        /* \"#utility.yul\":6694:7373   */\n      swap6\n      swap5\n      pop\n      pop\n      pop\n      pop\n      pop\n      jump\t// out\n        /* \"#utility.yul\":7379:7559   */\n    tag_171:\n        /* \"#utility.yul\":7427:7504   */\n      0x4e487b7100000000000000000000000000000000000000000000000000000000\n        /* \"#utility.yul\":7424:7425   */\n      0x00\n        /* \"#utility.yul\":7417:7505   */\n      mstore\n        /* \"#utility.yul\":7524:7528   */\n      0x12\n        /* \"#utility.yul\":7521:7522   */\n      0x04\n        /* \"#utility.yul\":7514:7529   */\n      mstore\n        /* \"#utility.yul\":7548:7552   */\n      0x24\n        /* \"#utility.yul\":7545:7546   */\n      0x00\n        /* \"#utility.yul\":7538:7553   */\n      revert\n        /* \"#utility.yul\":7565:7741   */\n    tag_84:\n        /* \"#utility.yul\":7597:7598   */\n      0x00\n        /* \"#utility.yul\":7614:7634   */\n      tag_261\n        /* \"#utility.yul\":7632:7633   */\n      dup3\n        /* \"#utility.yul\":7614:7634   */\n      tag_155\n      jump\t// in\n    tag_261:\n        /* \"#utility.yul\":7609:7634   */\n      swap2\n      pop\n        /* \"#utility.yul\":7648:7668   */\n      tag_262\n        /* \"#utility.yul\":7666:7667   */\n      dup4\n        /* \"#utility.yul\":7648:7668   */\n      tag_155\n      jump\t// in\n    tag_262:\n        /* \"#utility.yul\":7643:7668   */\n      swap3\n      pop\n        /* \"#utility.yul\":7687:7688   */\n      dup3\n        /* \"#utility.yul\":7677:7712   */\n      tag_263\n      jumpi\n        /* \"#utility.yul\":7692:7710   */\n      tag_264\n      tag_171\n      jump\t// in\n    tag_264:\n        /* \"#utility.yul\":7677:7712   */\n    tag_263:\n        /* \"#utility.yul\":7733:7734   */\n      dup3\n        /* \"#utility.yul\":7730:7731   */\n      dup3\n        /* \"#utility.yul\":7726:7735   */\n      mod\n        /* \"#utility.yul\":7721:7735   */\n      swap1\n      pop\n        /* \"#utility.yul\":7565:7741   */\n      swap3\n      swap2\n      pop\n      pop\n      jump\t// out\n        /* \"#utility.yul\":7747:7938   */\n    tag_86:\n        /* \"#utility.yul\":7787:7790   */\n      0x00\n        /* \"#utility.yul\":7806:7826   */\n      tag_266\n        /* \"#utility.yul\":7824:7825   */\n      dup3\n        /* \"#utility.yul\":7806:7826   */\n      tag_155\n      jump\t// in\n    tag_266:\n        /* \"#utility.yul\":7801:7826   */\n      swap2\n      pop\n        /* \"#utility.yul\":7840:7860   */\n      tag_267\n        /* \"#utility.yul\":7858:7859   */\n      dup4\n        /* \"#utility.yul\":7840:7860   */\n      tag_155\n      jump\t// in\n    tag_267:\n        /* \"#utility.yul\":7835:7860   */\n      swap3\n      pop\n        /* \"#utility.yul\":7883:7884   */\n      dup3\n        /* \"#utility.yul\":7880:7881   */\n      dup3\n        /* \"#utility.yul\":7876:7885   */\n      add\n        /* \"#utility.yul\":7869:7885   */\n      swap1\n      pop\n        /* \"#utility.yul\":7904:7907   */\n      dup1\n        /* \"#utility.yul\":7901:7902   */\n      dup3\n        /* \"#utility.yul\":7898:7908   */\n      gt\n        /* \"#utility.yul\":7895:7931   */\n      iszero\n      tag_268\n      jumpi\n        /* \"#utility.yul\":7911:7929   */\n      tag_269\n      tag_162\n      jump\t// in\n    tag_269:\n        /* \"#utility.yul\":7895:7931   */\n    tag_268:\n        /* \"#utility.yul\":7747:7938   */\n      swap3\n      swap2\n      pop\n      pop\n      jump\t// out\n        /* \"#utility.yul\":7944:8124   */\n    tag_94:\n        /* \"#utility.yul\":7992:8069   */\n      0x4e487b7100000000000000000000000000000000000000000000000000000000\n        /* \"#utility.yul\":7989:7990   */\n      0x00\n        /* \"#utility.yul\":7982:8070   */\n      mstore\n        /* \"#utility.yul\":8089:8093   */\n      0x32\n        /* \"#utility.yul\":8086:8087   */\n      0x04\n        /* \"#utility.yul\":8079:8094   */\n      mstore\n        /* \"#utility.yul\":8113:8117   */\n      0x24\n        /* \"#utility.yul\":8110:8111   */\n      0x00\n        /* \"#utility.yul\":8103:8118   */\n      revert\n        /* \"#utility.yul\":8130:8277   */\n    tag_172:\n        /* \"#utility.yul\":8231:8242   */\n      0x00\n        /* \"#utility.yul\":8268:8271   */\n      dup2\n        /* \"#utility.yul\":8253:8271   */\n      swap1\n      pop\n        /* \"#utility.yul\":8130:8277   */\n      swap3\n      swap2\n      pop\n      pop\n      jump\t// out\n        /* \"#utility.yul\":8283:8397   */\n    tag_173:\n      pop\n      jump\t// out\n        /* \"#utility.yul\":8403:8801   */\n    tag_174:\n        /* \"#utility.yul\":8562:8565   */\n      0x00\n        /* \"#utility.yul\":8583:8666   */\n      tag_274\n        /* \"#utility.yul\":8664:8665   */\n      0x00\n        /* \"#utility.yul\":8659:8662   */\n      dup4\n        /* \"#utility.yul\":8583:8666   */\n      tag_172\n      jump\t// in\n    tag_274:\n        /* \"#utility.yul\":8576:8666   */\n      swap2\n      pop\n        /* \"#utility.yul\":8675:8768   */\n      tag_275\n        /* \"#utility.yul\":8764:8767   */\n      dup3\n        /* \"#utility.yul\":8675:8768   */\n      tag_173\n      jump\t// in\n    tag_275:\n        /* \"#utility.yul\":8793:8794   */\n      0x00\n        /* \"#utility.yul\":8788:8791   */\n      dup3\n        /* \"#utility.yul\":8784:8795   */\n      add\n        /* \"#utility.yul\":8777:8795   */\n      swap1\n      pop\n        /* \"#utility.yul\":8403:8801   */\n      swap2\n      swap1\n      pop\n      jump\t// out\n        /* \"#utility.yul\":8807:9186   */\n    tag_132:\n        /* \"#utility.yul\":8991:8994   */\n      0x00\n        /* \"#utility.yul\":9013:9160   */\n      tag_277\n        /* \"#utility.yul\":9156:9159   */\n      dup3\n        /* \"#utility.yul\":9013:9160   */\n      tag_174\n      jump\t// in\n    tag_277:\n        /* \"#utility.yul\":9006:9160   */\n      swap2\n      pop\n        /* \"#utility.yul\":9177:9180   */\n      dup2\n        /* \"#utility.yul\":9170:9180   */\n      swap1\n      pop\n        /* \"#utility.yul\":8807:9186   */\n      swap2\n      swap1\n      pop\n      jump\t// out\n        /* \"#utility.yul\":9192:9358   */\n    tag_175:\n        /* \"#utility.yul\":9332:9350   */\n      0x5472616e73666572206661696c65642e00000000000000000000000000000000\n        /* \"#utility.yul\":9328:9329   */\n      0x00\n        /* \"#utility.yul\":9320:9326   */\n      dup3\n        /* \"#utility.yul\":9316:9330   */\n      add\n        /* \"#utility.yul\":9309:9351   */\n      mstore\n        /* \"#utility.yul\":9192:9358   */\n      pop\n      jump\t// out\n        /* \"#utility.yul\":9364:9730   */\n    tag_176:\n        /* \"#utility.yul\":9506:9509   */\n      0x00\n        /* \"#utility.yul\":9527:9594   */\n      tag_280\n        /* \"#utility.yul\":9591:9593   */\n      0x10\n        /* \"#utility.yul\":9586:9589   */\n      dup4\n        /* \"#utility.yul\":9527:9594   */\n      tag_159\n      jump\t// in\n    tag_280:\n        /* \"#utility.yul\":9520:9594   */\n      swap2\n      pop\n        /* \"#utility.yul\":9603:9696   */\n      tag_281\n        /* \"#utility.yul\":9692:9695   */\n      dup3\n        /* \"#utility.yul\":9603:9696   */\n      tag_175\n      jump\t// in\n    tag_281:\n        /* \"#utility.yul\":9721:9723   */\n      0x20\n        /* \"#utility.yul\":9716:9719   */\n      dup3\n        /* \"#utility.yul\":9712:9724   */\n      add\n        /* \"#utility.yul\":9705:9724   */\n      swap1\n      pop\n        /* \"#utility.yul\":9364:9730   */\n      swap2\n      swap1\n      pop\n      jump\t// out\n        /* \"#utility.yul\":9736:10155   */\n    tag_138:\n        /* \"#utility.yul\":9902:9906   */\n      0x00\n        /* \"#utility.yul\":9940:9942   */\n      0x20\n        /* \"#utility.yul\":9929:9938   */\n      dup3\n        /* \"#utility.yul\":9925:9943   */\n      add\n        /* \"#utility.yul\":9917:9943   */\n      swap1\n      pop\n        /* \"#utility.yul\":9989:9998   */\n      dup2\n        /* \"#utility.yul\":9983:9987   */\n      dup2\n        /* \"#utility.yul\":9979:9999   */\n      sub\n        /* \"#utility.yul\":9975:9976   */\n      0x00\n        /* \"#utility.yul\":9964:9973   */\n      dup4\n        /* \"#utility.yul\":9960:9977   */\n      add\n        /* \"#utility.yul\":9953:10000   */\n      mstore\n        /* \"#utility.yul\":10017:10148   */\n      tag_283\n        /* \"#utility.yul\":10143:10147   */\n      dup2\n        /* \"#utility.yul\":10017:10148   */\n      tag_176\n      jump\t// in\n    tag_283:\n        /* \"#utility.yul\":10009:10148   */\n      swap1\n      pop\n        /* \"#utility.yul\":9736:10155   */\n      swap2\n      swap1\n      pop\n      jump\t// out\n\n    auxdata: 0xa264697066735822122034c84fba679307ad2dcd7558d52bd3334ef3594eb8f8ecb49cf5198b4ef3d00c64736f6c634300081a0033\n}\n",
				"bytecode": {
					"linkReferences": {},
					"object": "608060405260075f555f60015f6101000a81548160ff0219169083151502179055505f600255348015602f575f80fd5b506111998061003d5f395ff3fe608060405234801561000f575f80fd5b506004361061003f575f3560e01c80631ff47629146100435780637b38314c1461005f578063e5ed1d591461008f575b5f80fd5b61005d60048036038101906100589190610c48565b6100ab565b005b61007960048036038101906100749190610ccd565b6104a8565b6040516100869190610d10565b60405180910390f35b6100a960048036038101906100a49190610d53565b6104bd565b005b80156101fd5760055f3373ffffffffffffffffffffffffffffffffffffffff1673ffffffffffffffffffffffffffffffffffffffff1681526020019081526020015f205f016100f8610799565b908060018154018082558091505060019003905f5260205f20015f90919091909150553373ffffffffffffffffffffffffffffffffffffffff167fe253e6518a69ccffffb243cce683eafc40e1f53cf04def4e4340c79ad65654596101e760055f3373ffffffffffffffffffffffffffffffffffffffff1673ffffffffffffffffffffffffffffffffffffffff1681526020019081526020015f205f018054806020026020016040519081016040528092919081815260200182805480156101dd57602002820191905f5260205f20905b8154815260200190600101908083116101c9575b5050505050610809565b6040516101f49190610d10565b60405180910390a25b601561029360055f3373ffffffffffffffffffffffffffffffffffffffff1673ffffffffffffffffffffffffffffffffffffffff1681526020019081526020015f205f0180548060200260200160405190810160405280929190818152602001828054801561028957602002820191905f5260205f20905b815481526020019060010190808311610275575b5050505050610809565b106103375761033661032f60055f3373ffffffffffffffffffffffffffffffffffffffff1673ffffffffffffffffffffffffffffffffffffffff1681526020019081526020015f205f0180548060200260200160405190810160405280929190818152602001828054801561032557602002820191905f5260205f20905b815481526020019060010190808311610311575b5050505050610809565b6001610858565b5b601161039260065f0180548060200260200160405190810160405280929190818152602001828054801561038857602002820191905f5260205f20905b815481526020019060010190808311610374575b5050505050610809565b106103a45761039f6108e0565b6104a5565b60065f016103b0610799565b908060018154018082558091505060019003905f5260205f20015f9091909190915055601561042e60065f0180548060200260200160405190810160405280929190818152602001828054801561042457602002820191905f5260205f20905b815481526020019060010190808311610410575b5050505050610809565b10156104415761043c6108e0565b6104a4565b6104a361049d60065f0180548060200260200160405190810160405280929190818152602001828054801561049357602002820191905f5260205f20905b81548152602001906001019080831161047f575b5050505050610809565b5f610858565b5b5b50565b6004602052805f5260405f205f915090505481565b5f81116104ff576040517f08c379a00000000000000000000000000000000000000000000000000000000081526004016104f690610dd8565b60405180910390fd5b60028161050c9190610e23565b60045f3373ffffffffffffffffffffffffffffffffffffffff1673ffffffffffffffffffffffffffffffffffffffff1681526020019081526020015f2054101561058b576040517f08c379a000000000000000000000000000000000000000000000000000000000815260040161058290610efa565b60405180910390fd5b8060045f3373ffffffffffffffffffffffffffffffffffffffff1673ffffffffffffffffffffffffffffffffffffffff1681526020019081526020015f205f8282546105d79190610f18565b92505081905550806002819055506001805f6101000a81548160ff0219169083151502179055505f5b60028110156106af5760055f3373ffffffffffffffffffffffffffffffffffffffff1673ffffffffffffffffffffffffffffffffffffffff1681526020019081526020015f205f01610650610799565b908060018154018082558091505060019003905f5260205f20015f909190919091505560065f0161067f610799565b908060018154018082558091505060019003905f5260205f20015f90919091909150558080600101915050610600565b505f61074560055f3373ffffffffffffffffffffffffffffffffffffffff1673ffffffffffffffffffffffffffffffffffffffff1681526020019081526020015f205f0180548060200260200160405190810160405280929190818152602001828054801561073b57602002820191905f5260205f20905b815481526020019060010190808311610727575b5050505050610809565b90503373ffffffffffffffffffffffffffffffffffffffff167fe253e6518a69ccffffb243cce683eafc40e1f53cf04def4e4340c79ad65654598260405161078d9190610d10565b60405180910390a25050565b5f8033445f54306040516020016107b39493929190610fb0565b604051602081830303815290604052805190602001205f1c90505f6001600a836107dd919061102a565b6107e7919061105a565b905060015f808282546107fa919061105a565b92505081905550809250505090565b5f805f90505f5b835181101561084e5783818151811061082c5761082b61108d565b5b60200260200101518261083f919061105a565b91508080600101915050610810565b5080915050919050565b60158214801561086c575060011515811515145b80610886575060158211801561088557505f1515811515145b5b15610897575f6003819055506108d4565b6015821480156108aa57505f1515811515145b806108c557506015821180156108c4575060011515811515145b5b156108d35760016003819055505b5b6108dc610a69565b5050565b5f61097560055f3373ffffffffffffffffffffffffffffffffffffffff1673ffffffffffffffffffffffffffffffffffffffff1681526020019081526020015f205f0180548060200260200160405190810160405280929190818152602001828054801561096b57602002820191905f5260205f20905b815481526020019060010190808311610957575b5050505050610809565b90505f6109d160065f018054806020026020016040519081016040528092919081815260200182805480156109c757602002820191905f5260205f20905b8154815260200190600101908083116109b3575b5050505050610809565b905060158211156109e9576001600381905550610a5d565b60158111156109fe575f600381905550610a5c565b60158203610a12575f600381905550610a5b565b60158103610a27576001600381905550610a5a565b808203610a3b576002600381905550610a59565b80821115610a4f575f600381905550610a58565b60016003819055505b5b5b5b5b5b610a65610a69565b5050565b5f60035403610b2e575f3373ffffffffffffffffffffffffffffffffffffffff166002546002610a999190610e23565b604051610aa5906110e7565b5f6040518083038185875af1925050503d805f8114610adf576040519150601f19603f3d011682016040523d82523d5f602084013e610ae4565b606091505b5050905080610b28576040517f08c379a0000000000000000000000000000000000000000000000000000000008152600401610b1f90611145565b60405180910390fd5b50610bf4565b600160035403610b925760025460045f3373ffffffffffffffffffffffffffffffffffffffff1673ffffffffffffffffffffffffffffffffffffffff1681526020019081526020015f205f828254610b869190610f18565b92505081905550610bf3565b600260035403610bf25760025460045f3373ffffffffffffffffffffffffffffffffffffffff1673ffffffffffffffffffffffffffffffffffffffff1681526020019081526020015f205f828254610bea919061105a565b925050819055505b5b5b5f60015f6101000a81548160ff021916908315150217905550565b5f80fd5b5f8115159050919050565b610c2781610c13565b8114610c31575f80fd5b50565b5f81359050610c4281610c1e565b92915050565b5f60208284031215610c5d57610c5c610c0f565b5b5f610c6a84828501610c34565b91505092915050565b5f73ffffffffffffffffffffffffffffffffffffffff82169050919050565b5f610c9c82610c73565b9050919050565b610cac81610c92565b8114610cb6575f80fd5b50565b5f81359050610cc781610ca3565b92915050565b5f60208284031215610ce257610ce1610c0f565b5b5f610cef84828501610cb9565b91505092915050565b5f819050919050565b610d0a81610cf8565b82525050565b5f602082019050610d235f830184610d01565b92915050565b610d3281610cf8565b8114610d3c575f80fd5b50565b5f81359050610d4d81610d29565b92915050565b5f60208284031215610d6857610d67610c0f565b5b5f610d7584828501610d3f565b91505092915050565b5f82825260208201905092915050565b7f496e76616c6964204265742e20506c6561736520626964206f76657220302e005f82015250565b5f610dc2601f83610d7e565b9150610dcd82610d8e565b602082019050919050565b5f6020820190508181035f830152610def81610db6565b9050919050565b7f4e487b71000000000000000000000000000000000000000000000000000000005f52601160045260245ffd5b5f610e2d82610cf8565b9150610e3883610cf8565b9250828202610e4681610cf8565b91508282048414831517610e5d57610e5c610df6565b5b5092915050565b7f496e73756666696369656e742062616c616e636520746f2073746172742074685f8201527f652067616d652e20596f75206e65656420322074696d65732074686520616d6f60208201527f756e7420796f752062657420746f20706c61792e000000000000000000000000604082015250565b5f610ee4605483610d7e565b9150610eef82610e64565b606082019050919050565b5f6020820190508181035f830152610f1181610ed8565b9050919050565b5f610f2282610cf8565b9150610f2d83610cf8565b9250828203905081811115610f4557610f44610df6565b5b92915050565b5f8160601b9050919050565b5f610f6182610f4b565b9050919050565b5f610f7282610f57565b9050919050565b610f8a610f8582610c92565b610f68565b82525050565b5f819050919050565b610faa610fa582610cf8565b610f90565b82525050565b5f610fbb8287610f79565b601482019150610fcb8286610f99565b602082019150610fdb8285610f99565b602082019150610feb8284610f79565b60148201915081905095945050505050565b7f4e487b71000000000000000000000000000000000000000000000000000000005f52601260045260245ffd5b5f61103482610cf8565b915061103f83610cf8565b92508261104f5761104e610ffd565b5b828206905092915050565b5f61106482610cf8565b915061106f83610cf8565b925082820190508082111561108757611086610df6565b5b92915050565b7f4e487b71000000000000000000000000000000000000000000000000000000005f52603260045260245ffd5b5f81905092915050565b50565b5f6110d25f836110ba565b91506110dd826110c4565b5f82019050919050565b5f6110f1826110c7565b9150819050919050565b7f5472616e73666572206661696c65642e000000000000000000000000000000005f82015250565b5f61112f601083610d7e565b915061113a826110fb565b602082019050919050565b5f6020820190508181035f83015261115c81611123565b905091905056fea264697066735822122034c84fba679307ad2dcd7558d52bd3334ef3594eb8f8ecb49cf5198b4ef3d00c64736f6c634300081a0033",
					"opcodes": "PUSH1 0x80 PUSH1 0x40 MSTORE PUSH1 0x7 PUSH0 SSTORE PUSH0 PUSH1 0x1 PUSH0 PUSH2 0x100 EXP DUP2 SLOAD DUP2 PUSH1 0xFF MUL NOT AND SWAP1 DUP4 ISZERO ISZERO MUL OR SWAP1 SSTORE POP PUSH0 PUSH1 0x2 SSTORE CALLVALUE DUP1 ISZERO PUSH1 0x2F JUMPI PUSH0 DUP1 REVERT JUMPDEST POP PUSH2 0x1199 DUP1 PUSH2 0x3D PUSH0 CODECOPY PUSH0 RETURN INVALID PUSH1 0x80 PUSH1 0x40 MSTORE CALLVALUE DUP1 ISZERO PUSH2 0xF JUMPI PUSH0 DUP1 REVERT JUMPDEST POP PUSH1 0x4 CALLDATASIZE LT PUSH2 0x3F JUMPI PUSH0 CALLDATALOAD PUSH1 0xE0 SHR DUP1 PUSH4 0x1FF47629 EQ PUSH2 0x43 JUMPI DUP1 PUSH4 0x7B38314C EQ PUSH2 0x5F JUMPI DUP1 PUSH4 0xE5ED1D59 EQ PUSH2 0x8F JUMPI JUMPDEST PUSH0 DUP1 REVERT JUMPDEST PUSH2 0x5D PUSH1 0x4 DUP1 CALLDATASIZE SUB DUP2 ADD SWAP1 PUSH2 0x58 SWAP2 SWAP1 PUSH2 0xC48 JUMP JUMPDEST PUSH2 0xAB JUMP JUMPDEST STOP JUMPDEST PUSH2 0x79 PUSH1 0x4 DUP1 CALLDATASIZE SUB DUP2 ADD SWAP1 PUSH2 0x74 SWAP2 SWAP1 PUSH2 0xCCD JUMP JUMPDEST PUSH2 0x4A8 JUMP JUMPDEST PUSH1 0x40 MLOAD PUSH2 0x86 SWAP2 SWAP1 PUSH2 0xD10 JUMP JUMPDEST PUSH1 0x40 MLOAD DUP1 SWAP2 SUB SWAP1 RETURN JUMPDEST PUSH2 0xA9 PUSH1 0x4 DUP1 CALLDATASIZE SUB DUP2 ADD SWAP1 PUSH2 0xA4 SWAP2 SWAP1 PUSH2 0xD53 JUMP JUMPDEST PUSH2 0x4BD JUMP JUMPDEST STOP JUMPDEST DUP1 ISZERO PUSH2 0x1FD JUMPI PUSH1 0x5 PUSH0 CALLER PUSH20 0xFFFFFFFFFFFFFFFFFFFFFFFFFFFFFFFFFFFFFFFF AND PUSH20 0xFFFFFFFFFFFFFFFFFFFFFFFFFFFFFFFFFFFFFFFF AND DUP2 MSTORE PUSH1 0x20 ADD SWAP1 DUP2 MSTORE PUSH1 0x20 ADD PUSH0 KECCAK256 PUSH0 ADD PUSH2 0xF8 PUSH2 0x799 JUMP JUMPDEST SWAP1 DUP1 PUSH1 0x1 DUP2 SLOAD ADD DUP1 DUP3 SSTORE DUP1 SWAP2 POP POP PUSH1 0x1 SWAP1 SUB SWAP1 PUSH0 MSTORE PUSH1 0x20 PUSH0 KECCAK256 ADD PUSH0 SWAP1 SWAP2 SWAP1 SWAP2 SWAP1 SWAP2 POP SSTORE CALLER PUSH20 0xFFFFFFFFFFFFFFFFFFFFFFFFFFFFFFFFFFFFFFFF AND PUSH32 0xE253E6518A69CCFFFFB243CCE683EAFC40E1F53CF04DEF4E4340C79AD6565459 PUSH2 0x1E7 PUSH1 0x5 PUSH0 CALLER PUSH20 0xFFFFFFFFFFFFFFFFFFFFFFFFFFFFFFFFFFFFFFFF AND PUSH20 0xFFFFFFFFFFFFFFFFFFFFFFFFFFFFFFFFFFFFFFFF AND DUP2 MSTORE PUSH1 0x20 ADD SWAP1 DUP2 MSTORE PUSH1 0x20 ADD PUSH0 KECCAK256 PUSH0 ADD DUP1 SLOAD DUP1 PUSH1 0x20 MUL PUSH1 0x20 ADD PUSH1 0x40 MLOAD SWAP1 DUP2 ADD PUSH1 0x40 MSTORE DUP1 SWAP3 SWAP2 SWAP1 DUP2 DUP2 MSTORE PUSH1 0x20 ADD DUP3 DUP1 SLOAD DUP1 ISZERO PUSH2 0x1DD JUMPI PUSH1 0x20 MUL DUP3 ADD SWAP2 SWAP1 PUSH0 MSTORE PUSH1 0x20 PUSH0 KECCAK256 SWAP1 JUMPDEST DUP2 SLOAD DUP2 MSTORE PUSH1 0x20 ADD SWAP1 PUSH1 0x1 ADD SWAP1 DUP1 DUP4 GT PUSH2 0x1C9 JUMPI JUMPDEST POP POP POP POP POP PUSH2 0x809 JUMP JUMPDEST PUSH1 0x40 MLOAD PUSH2 0x1F4 SWAP2 SWAP1 PUSH2 0xD10 JUMP JUMPDEST PUSH1 0x40 MLOAD DUP1 SWAP2 SUB SWAP1 LOG2 JUMPDEST PUSH1 0x15 PUSH2 0x293 PUSH1 0x5 PUSH0 CALLER PUSH20 0xFFFFFFFFFFFFFFFFFFFFFFFFFFFFFFFFFFFFFFFF AND PUSH20 0xFFFFFFFFFFFFFFFFFFFFFFFFFFFFFFFFFFFFFFFF AND DUP2 MSTORE PUSH1 0x20 ADD SWAP1 DUP2 MSTORE PUSH1 0x20 ADD PUSH0 KECCAK256 PUSH0 ADD DUP1 SLOAD DUP1 PUSH1 0x20 MUL PUSH1 0x20 ADD PUSH1 0x40 MLOAD SWAP1 DUP2 ADD PUSH1 0x40 MSTORE DUP1 SWAP3 SWAP2 SWAP1 DUP2 DUP2 MSTORE PUSH1 0x20 ADD DUP3 DUP1 SLOAD DUP1 ISZERO PUSH2 0x289 JUMPI PUSH1 0x20 MUL DUP3 ADD SWAP2 SWAP1 PUSH0 MSTORE PUSH1 0x20 PUSH0 KECCAK256 SWAP1 JUMPDEST DUP2 SLOAD DUP2 MSTORE PUSH1 0x20 ADD SWAP1 PUSH1 0x1 ADD SWAP1 DUP1 DUP4 GT PUSH2 0x275 JUMPI JUMPDEST POP POP POP POP POP PUSH2 0x809 JUMP JUMPDEST LT PUSH2 0x337 JUMPI PUSH2 0x336 PUSH2 0x32F PUSH1 0x5 PUSH0 CALLER PUSH20 0xFFFFFFFFFFFFFFFFFFFFFFFFFFFFFFFFFFFFFFFF AND PUSH20 0xFFFFFFFFFFFFFFFFFFFFFFFFFFFFFFFFFFFFFFFF AND DUP2 MSTORE PUSH1 0x20 ADD SWAP1 DUP2 MSTORE PUSH1 0x20 ADD PUSH0 KECCAK256 PUSH0 ADD DUP1 SLOAD DUP1 PUSH1 0x20 MUL PUSH1 0x20 ADD PUSH1 0x40 MLOAD SWAP1 DUP2 ADD PUSH1 0x40 MSTORE DUP1 SWAP3 SWAP2 SWAP1 DUP2 DUP2 MSTORE PUSH1 0x20 ADD DUP3 DUP1 SLOAD DUP1 ISZERO PUSH2 0x325 JUMPI PUSH1 0x20 MUL DUP3 ADD SWAP2 SWAP1 PUSH0 MSTORE PUSH1 0x20 PUSH0 KECCAK256 SWAP1 JUMPDEST DUP2 SLOAD DUP2 MSTORE PUSH1 0x20 ADD SWAP1 PUSH1 0x1 ADD SWAP1 DUP1 DUP4 GT PUSH2 0x311 JUMPI JUMPDEST POP POP POP POP POP PUSH2 0x809 JUMP JUMPDEST PUSH1 0x1 PUSH2 0x858 JUMP JUMPDEST JUMPDEST PUSH1 0x11 PUSH2 0x392 PUSH1 0x6 PUSH0 ADD DUP1 SLOAD DUP1 PUSH1 0x20 MUL PUSH1 0x20 ADD PUSH1 0x40 MLOAD SWAP1 DUP2 ADD PUSH1 0x40 MSTORE DUP1 SWAP3 SWAP2 SWAP1 DUP2 DUP2 MSTORE PUSH1 0x20 ADD DUP3 DUP1 SLOAD DUP1 ISZERO PUSH2 0x388 JUMPI PUSH1 0x20 MUL DUP3 ADD SWAP2 SWAP1 PUSH0 MSTORE PUSH1 0x20 PUSH0 KECCAK256 SWAP1 JUMPDEST DUP2 SLOAD DUP2 MSTORE PUSH1 0x20 ADD SWAP1 PUSH1 0x1 ADD SWAP1 DUP1 DUP4 GT PUSH2 0x374 JUMPI JUMPDEST POP POP POP POP POP PUSH2 0x809 JUMP JUMPDEST LT PUSH2 0x3A4 JUMPI PUSH2 0x39F PUSH2 0x8E0 JUMP JUMPDEST PUSH2 0x4A5 JUMP JUMPDEST PUSH1 0x6 PUSH0 ADD PUSH2 0x3B0 PUSH2 0x799 JUMP JUMPDEST SWAP1 DUP1 PUSH1 0x1 DUP2 SLOAD ADD DUP1 DUP3 SSTORE DUP1 SWAP2 POP POP PUSH1 0x1 SWAP1 SUB SWAP1 PUSH0 MSTORE PUSH1 0x20 PUSH0 KECCAK256 ADD PUSH0 SWAP1 SWAP2 SWAP1 SWAP2 SWAP1 SWAP2 POP SSTORE PUSH1 0x15 PUSH2 0x42E PUSH1 0x6 PUSH0 ADD DUP1 SLOAD DUP1 PUSH1 0x20 MUL PUSH1 0x20 ADD PUSH1 0x40 MLOAD SWAP1 DUP2 ADD PUSH1 0x40 MSTORE DUP1 SWAP3 SWAP2 SWAP1 DUP2 DUP2 MSTORE PUSH1 0x20 ADD DUP3 DUP1 SLOAD DUP1 ISZERO PUSH2 0x424 JUMPI PUSH1 0x20 MUL DUP3 ADD SWAP2 SWAP1 PUSH0 MSTORE PUSH1 0x20 PUSH0 KECCAK256 SWAP1 JUMPDEST DUP2 SLOAD DUP2 MSTORE PUSH1 0x20 ADD SWAP1 PUSH1 0x1 ADD SWAP1 DUP1 DUP4 GT PUSH2 0x410 JUMPI JUMPDEST POP POP POP POP POP PUSH2 0x809 JUMP JUMPDEST LT ISZERO PUSH2 0x441 JUMPI PUSH2 0x43C PUSH2 0x8E0 JUMP JUMPDEST PUSH2 0x4A4 JUMP JUMPDEST PUSH2 0x4A3 PUSH2 0x49D PUSH1 0x6 PUSH0 ADD DUP1 SLOAD DUP1 PUSH1 0x20 MUL PUSH1 0x20 ADD PUSH1 0x40 MLOAD SWAP1 DUP2 ADD PUSH1 0x40 MSTORE DUP1 SWAP3 SWAP2 SWAP1 DUP2 DUP2 MSTORE PUSH1 0x20 ADD DUP3 DUP1 SLOAD DUP1 ISZERO PUSH2 0x493 JUMPI PUSH1 0x20 MUL DUP3 ADD SWAP2 SWAP1 PUSH0 MSTORE PUSH1 0x20 PUSH0 KECCAK256 SWAP1 JUMPDEST DUP2 SLOAD DUP2 MSTORE PUSH1 0x20 ADD SWAP1 PUSH1 0x1 ADD SWAP1 DUP1 DUP4 GT PUSH2 0x47F JUMPI JUMPDEST POP POP POP POP POP PUSH2 0x809 JUMP JUMPDEST PUSH0 PUSH2 0x858 JUMP JUMPDEST JUMPDEST JUMPDEST POP JUMP JUMPDEST PUSH1 0x4 PUSH1 0x20 MSTORE DUP1 PUSH0 MSTORE PUSH1 0x40 PUSH0 KECCAK256 PUSH0 SWAP2 POP SWAP1 POP SLOAD DUP2 JUMP JUMPDEST PUSH0 DUP2 GT PUSH2 0x4FF JUMPI PUSH1 0x40 MLOAD PUSH32 0x8C379A000000000000000000000000000000000000000000000000000000000 DUP2 MSTORE PUSH1 0x4 ADD PUSH2 0x4F6 SWAP1 PUSH2 0xDD8 JUMP JUMPDEST PUSH1 0x40 MLOAD DUP1 SWAP2 SUB SWAP1 REVERT JUMPDEST PUSH1 0x2 DUP2 PUSH2 0x50C SWAP2 SWAP1 PUSH2 0xE23 JUMP JUMPDEST PUSH1 0x4 PUSH0 CALLER PUSH20 0xFFFFFFFFFFFFFFFFFFFFFFFFFFFFFFFFFFFFFFFF AND PUSH20 0xFFFFFFFFFFFFFFFFFFFFFFFFFFFFFFFFFFFFFFFF AND DUP2 MSTORE PUSH1 0x20 ADD SWAP1 DUP2 MSTORE PUSH1 0x20 ADD PUSH0 KECCAK256 SLOAD LT ISZERO PUSH2 0x58B JUMPI PUSH1 0x40 MLOAD PUSH32 0x8C379A000000000000000000000000000000000000000000000000000000000 DUP2 MSTORE PUSH1 0x4 ADD PUSH2 0x582 SWAP1 PUSH2 0xEFA JUMP JUMPDEST PUSH1 0x40 MLOAD DUP1 SWAP2 SUB SWAP1 REVERT JUMPDEST DUP1 PUSH1 0x4 PUSH0 CALLER PUSH20 0xFFFFFFFFFFFFFFFFFFFFFFFFFFFFFFFFFFFFFFFF AND PUSH20 0xFFFFFFFFFFFFFFFFFFFFFFFFFFFFFFFFFFFFFFFF AND DUP2 MSTORE PUSH1 0x20 ADD SWAP1 DUP2 MSTORE PUSH1 0x20 ADD PUSH0 KECCAK256 PUSH0 DUP3 DUP3 SLOAD PUSH2 0x5D7 SWAP2 SWAP1 PUSH2 0xF18 JUMP JUMPDEST SWAP3 POP POP DUP2 SWAP1 SSTORE POP DUP1 PUSH1 0x2 DUP2 SWAP1 SSTORE POP PUSH1 0x1 DUP1 PUSH0 PUSH2 0x100 EXP DUP2 SLOAD DUP2 PUSH1 0xFF MUL NOT AND SWAP1 DUP4 ISZERO ISZERO MUL OR SWAP1 SSTORE POP PUSH0 JUMPDEST PUSH1 0x2 DUP2 LT ISZERO PUSH2 0x6AF JUMPI PUSH1 0x5 PUSH0 CALLER PUSH20 0xFFFFFFFFFFFFFFFFFFFFFFFFFFFFFFFFFFFFFFFF AND PUSH20 0xFFFFFFFFFFFFFFFFFFFFFFFFFFFFFFFFFFFFFFFF AND DUP2 MSTORE PUSH1 0x20 ADD SWAP1 DUP2 MSTORE PUSH1 0x20 ADD PUSH0 KECCAK256 PUSH0 ADD PUSH2 0x650 PUSH2 0x799 JUMP JUMPDEST SWAP1 DUP1 PUSH1 0x1 DUP2 SLOAD ADD DUP1 DUP3 SSTORE DUP1 SWAP2 POP POP PUSH1 0x1 SWAP1 SUB SWAP1 PUSH0 MSTORE PUSH1 0x20 PUSH0 KECCAK256 ADD PUSH0 SWAP1 SWAP2 SWAP1 SWAP2 SWAP1 SWAP2 POP SSTORE PUSH1 0x6 PUSH0 ADD PUSH2 0x67F PUSH2 0x799 JUMP JUMPDEST SWAP1 DUP1 PUSH1 0x1 DUP2 SLOAD ADD DUP1 DUP3 SSTORE DUP1 SWAP2 POP POP PUSH1 0x1 SWAP1 SUB SWAP1 PUSH0 MSTORE PUSH1 0x20 PUSH0 KECCAK256 ADD PUSH0 SWAP1 SWAP2 SWAP1 SWAP2 SWAP1 SWAP2 POP SSTORE DUP1 DUP1 PUSH1 0x1 ADD SWAP2 POP POP PUSH2 0x600 JUMP JUMPDEST POP PUSH0 PUSH2 0x745 PUSH1 0x5 PUSH0 CALLER PUSH20 0xFFFFFFFFFFFFFFFFFFFFFFFFFFFFFFFFFFFFFFFF AND PUSH20 0xFFFFFFFFFFFFFFFFFFFFFFFFFFFFFFFFFFFFFFFF AND DUP2 MSTORE PUSH1 0x20 ADD SWAP1 DUP2 MSTORE PUSH1 0x20 ADD PUSH0 KECCAK256 PUSH0 ADD DUP1 SLOAD DUP1 PUSH1 0x20 MUL PUSH1 0x20 ADD PUSH1 0x40 MLOAD SWAP1 DUP2 ADD PUSH1 0x40 MSTORE DUP1 SWAP3 SWAP2 SWAP1 DUP2 DUP2 MSTORE PUSH1 0x20 ADD DUP3 DUP1 SLOAD DUP1 ISZERO PUSH2 0x73B JUMPI PUSH1 0x20 MUL DUP3 ADD SWAP2 SWAP1 PUSH0 MSTORE PUSH1 0x20 PUSH0 KECCAK256 SWAP1 JUMPDEST DUP2 SLOAD DUP2 MSTORE PUSH1 0x20 ADD SWAP1 PUSH1 0x1 ADD SWAP1 DUP1 DUP4 GT PUSH2 0x727 JUMPI JUMPDEST POP POP POP POP POP PUSH2 0x809 JUMP JUMPDEST SWAP1 POP CALLER PUSH20 0xFFFFFFFFFFFFFFFFFFFFFFFFFFFFFFFFFFFFFFFF AND PUSH32 0xE253E6518A69CCFFFFB243CCE683EAFC40E1F53CF04DEF4E4340C79AD6565459 DUP3 PUSH1 0x40 MLOAD PUSH2 0x78D SWAP2 SWAP1 PUSH2 0xD10 JUMP JUMPDEST PUSH1 0x40 MLOAD DUP1 SWAP2 SUB SWAP1 LOG2 POP POP JUMP JUMPDEST PUSH0 DUP1 CALLER PREVRANDAO PUSH0 SLOAD ADDRESS PUSH1 0x40 MLOAD PUSH1 0x20 ADD PUSH2 0x7B3 SWAP5 SWAP4 SWAP3 SWAP2 SWAP1 PUSH2 0xFB0 JUMP JUMPDEST PUSH1 0x40 MLOAD PUSH1 0x20 DUP2 DUP4 SUB SUB DUP2 MSTORE SWAP1 PUSH1 0x40 MSTORE DUP1 MLOAD SWAP1 PUSH1 0x20 ADD KECCAK256 PUSH0 SHR SWAP1 POP PUSH0 PUSH1 0x1 PUSH1 0xA DUP4 PUSH2 0x7DD SWAP2 SWAP1 PUSH2 0x102A JUMP JUMPDEST PUSH2 0x7E7 SWAP2 SWAP1 PUSH2 0x105A JUMP JUMPDEST SWAP1 POP PUSH1 0x1 PUSH0 DUP1 DUP3 DUP3 SLOAD PUSH2 0x7FA SWAP2 SWAP1 PUSH2 0x105A JUMP JUMPDEST SWAP3 POP POP DUP2 SWAP1 SSTORE POP DUP1 SWAP3 POP POP POP SWAP1 JUMP JUMPDEST PUSH0 DUP1 PUSH0 SWAP1 POP PUSH0 JUMPDEST DUP4 MLOAD DUP2 LT ISZERO PUSH2 0x84E JUMPI DUP4 DUP2 DUP2 MLOAD DUP2 LT PUSH2 0x82C JUMPI PUSH2 0x82B PUSH2 0x108D JUMP JUMPDEST JUMPDEST PUSH1 0x20 MUL PUSH1 0x20 ADD ADD MLOAD DUP3 PUSH2 0x83F SWAP2 SWAP1 PUSH2 0x105A JUMP JUMPDEST SWAP2 POP DUP1 DUP1 PUSH1 0x1 ADD SWAP2 POP POP PUSH2 0x810 JUMP JUMPDEST POP DUP1 SWAP2 POP POP SWAP2 SWAP1 POP JUMP JUMPDEST PUSH1 0x15 DUP3 EQ DUP1 ISZERO PUSH2 0x86C JUMPI POP PUSH1 0x1 ISZERO ISZERO DUP2 ISZERO ISZERO EQ JUMPDEST DUP1 PUSH2 0x886 JUMPI POP PUSH1 0x15 DUP3 GT DUP1 ISZERO PUSH2 0x885 JUMPI POP PUSH0 ISZERO ISZERO DUP2 ISZERO ISZERO EQ JUMPDEST JUMPDEST ISZERO PUSH2 0x897 JUMPI PUSH0 PUSH1 0x3 DUP2 SWAP1 SSTORE POP PUSH2 0x8D4 JUMP JUMPDEST PUSH1 0x15 DUP3 EQ DUP1 ISZERO PUSH2 0x8AA JUMPI POP PUSH0 ISZERO ISZERO DUP2 ISZERO ISZERO EQ JUMPDEST DUP1 PUSH2 0x8C5 JUMPI POP PUSH1 0x15 DUP3 GT DUP1 ISZERO PUSH2 0x8C4 JUMPI POP PUSH1 0x1 ISZERO ISZERO DUP2 ISZERO ISZERO EQ JUMPDEST JUMPDEST ISZERO PUSH2 0x8D3 JUMPI PUSH1 0x1 PUSH1 0x3 DUP2 SWAP1 SSTORE POP JUMPDEST JUMPDEST PUSH2 0x8DC PUSH2 0xA69 JUMP JUMPDEST POP POP JUMP JUMPDEST PUSH0 PUSH2 0x975 PUSH1 0x5 PUSH0 CALLER PUSH20 0xFFFFFFFFFFFFFFFFFFFFFFFFFFFFFFFFFFFFFFFF AND PUSH20 0xFFFFFFFFFFFFFFFFFFFFFFFFFFFFFFFFFFFFFFFF AND DUP2 MSTORE PUSH1 0x20 ADD SWAP1 DUP2 MSTORE PUSH1 0x20 ADD PUSH0 KECCAK256 PUSH0 ADD DUP1 SLOAD DUP1 PUSH1 0x20 MUL PUSH1 0x20 ADD PUSH1 0x40 MLOAD SWAP1 DUP2 ADD PUSH1 0x40 MSTORE DUP1 SWAP3 SWAP2 SWAP1 DUP2 DUP2 MSTORE PUSH1 0x20 ADD DUP3 DUP1 SLOAD DUP1 ISZERO PUSH2 0x96B JUMPI PUSH1 0x20 MUL DUP3 ADD SWAP2 SWAP1 PUSH0 MSTORE PUSH1 0x20 PUSH0 KECCAK256 SWAP1 JUMPDEST DUP2 SLOAD DUP2 MSTORE PUSH1 0x20 ADD SWAP1 PUSH1 0x1 ADD SWAP1 DUP1 DUP4 GT PUSH2 0x957 JUMPI JUMPDEST POP POP POP POP POP PUSH2 0x809 JUMP JUMPDEST SWAP1 POP PUSH0 PUSH2 0x9D1 PUSH1 0x6 PUSH0 ADD DUP1 SLOAD DUP1 PUSH1 0x20 MUL PUSH1 0x20 ADD PUSH1 0x40 MLOAD SWAP1 DUP2 ADD PUSH1 0x40 MSTORE DUP1 SWAP3 SWAP2 SWAP1 DUP2 DUP2 MSTORE PUSH1 0x20 ADD DUP3 DUP1 SLOAD DUP1 ISZERO PUSH2 0x9C7 JUMPI PUSH1 0x20 MUL DUP3 ADD SWAP2 SWAP1 PUSH0 MSTORE PUSH1 0x20 PUSH0 KECCAK256 SWAP1 JUMPDEST DUP2 SLOAD DUP2 MSTORE PUSH1 0x20 ADD SWAP1 PUSH1 0x1 ADD SWAP1 DUP1 DUP4 GT PUSH2 0x9B3 JUMPI JUMPDEST POP POP POP POP POP PUSH2 0x809 JUMP JUMPDEST SWAP1 POP PUSH1 0x15 DUP3 GT ISZERO PUSH2 0x9E9 JUMPI PUSH1 0x1 PUSH1 0x3 DUP2 SWAP1 SSTORE POP PUSH2 0xA5D JUMP JUMPDEST PUSH1 0x15 DUP2 GT ISZERO PUSH2 0x9FE JUMPI PUSH0 PUSH1 0x3 DUP2 SWAP1 SSTORE POP PUSH2 0xA5C JUMP JUMPDEST PUSH1 0x15 DUP3 SUB PUSH2 0xA12 JUMPI PUSH0 PUSH1 0x3 DUP2 SWAP1 SSTORE POP PUSH2 0xA5B JUMP JUMPDEST PUSH1 0x15 DUP2 SUB PUSH2 0xA27 JUMPI PUSH1 0x1 PUSH1 0x3 DUP2 SWAP1 SSTORE POP PUSH2 0xA5A JUMP JUMPDEST DUP1 DUP3 SUB PUSH2 0xA3B JUMPI PUSH1 0x2 PUSH1 0x3 DUP2 SWAP1 SSTORE POP PUSH2 0xA59 JUMP JUMPDEST DUP1 DUP3 GT ISZERO PUSH2 0xA4F JUMPI PUSH0 PUSH1 0x3 DUP2 SWAP1 SSTORE POP PUSH2 0xA58 JUMP JUMPDEST PUSH1 0x1 PUSH1 0x3 DUP2 SWAP1 SSTORE POP JUMPDEST JUMPDEST JUMPDEST JUMPDEST JUMPDEST JUMPDEST PUSH2 0xA65 PUSH2 0xA69 JUMP JUMPDEST POP POP JUMP JUMPDEST PUSH0 PUSH1 0x3 SLOAD SUB PUSH2 0xB2E JUMPI PUSH0 CALLER PUSH20 0xFFFFFFFFFFFFFFFFFFFFFFFFFFFFFFFFFFFFFFFF AND PUSH1 0x2 SLOAD PUSH1 0x2 PUSH2 0xA99 SWAP2 SWAP1 PUSH2 0xE23 JUMP JUMPDEST PUSH1 0x40 MLOAD PUSH2 0xAA5 SWAP1 PUSH2 0x10E7 JUMP JUMPDEST PUSH0 PUSH1 0x40 MLOAD DUP1 DUP4 SUB DUP2 DUP6 DUP8 GAS CALL SWAP3 POP POP POP RETURNDATASIZE DUP1 PUSH0 DUP2 EQ PUSH2 0xADF JUMPI PUSH1 0x40 MLOAD SWAP2 POP PUSH1 0x1F NOT PUSH1 0x3F RETURNDATASIZE ADD AND DUP3 ADD PUSH1 0x40 MSTORE RETURNDATASIZE DUP3 MSTORE RETURNDATASIZE PUSH0 PUSH1 0x20 DUP5 ADD RETURNDATACOPY PUSH2 0xAE4 JUMP JUMPDEST PUSH1 0x60 SWAP2 POP JUMPDEST POP POP SWAP1 POP DUP1 PUSH2 0xB28 JUMPI PUSH1 0x40 MLOAD PUSH32 0x8C379A000000000000000000000000000000000000000000000000000000000 DUP2 MSTORE PUSH1 0x4 ADD PUSH2 0xB1F SWAP1 PUSH2 0x1145 JUMP JUMPDEST PUSH1 0x40 MLOAD DUP1 SWAP2 SUB SWAP1 REVERT JUMPDEST POP PUSH2 0xBF4 JUMP JUMPDEST PUSH1 0x1 PUSH1 0x3 SLOAD SUB PUSH2 0xB92 JUMPI PUSH1 0x2 SLOAD PUSH1 0x4 PUSH0 CALLER PUSH20 0xFFFFFFFFFFFFFFFFFFFFFFFFFFFFFFFFFFFFFFFF AND PUSH20 0xFFFFFFFFFFFFFFFFFFFFFFFFFFFFFFFFFFFFFFFF AND DUP2 MSTORE PUSH1 0x20 ADD SWAP1 DUP2 MSTORE PUSH1 0x20 ADD PUSH0 KECCAK256 PUSH0 DUP3 DUP3 SLOAD PUSH2 0xB86 SWAP2 SWAP1 PUSH2 0xF18 JUMP JUMPDEST SWAP3 POP POP DUP2 SWAP1 SSTORE POP PUSH2 0xBF3 JUMP JUMPDEST PUSH1 0x2 PUSH1 0x3 SLOAD SUB PUSH2 0xBF2 JUMPI PUSH1 0x2 SLOAD PUSH1 0x4 PUSH0 CALLER PUSH20 0xFFFFFFFFFFFFFFFFFFFFFFFFFFFFFFFFFFFFFFFF AND PUSH20 0xFFFFFFFFFFFFFFFFFFFFFFFFFFFFFFFFFFFFFFFF AND DUP2 MSTORE PUSH1 0x20 ADD SWAP1 DUP2 MSTORE PUSH1 0x20 ADD PUSH0 KECCAK256 PUSH0 DUP3 DUP3 SLOAD PUSH2 0xBEA SWAP2 SWAP1 PUSH2 0x105A JUMP JUMPDEST SWAP3 POP POP DUP2 SWAP1 SSTORE POP JUMPDEST JUMPDEST JUMPDEST PUSH0 PUSH1 0x1 PUSH0 PUSH2 0x100 EXP DUP2 SLOAD DUP2 PUSH1 0xFF MUL NOT AND SWAP1 DUP4 ISZERO ISZERO MUL OR SWAP1 SSTORE POP JUMP JUMPDEST PUSH0 DUP1 REVERT JUMPDEST PUSH0 DUP2 ISZERO ISZERO SWAP1 POP SWAP2 SWAP1 POP JUMP JUMPDEST PUSH2 0xC27 DUP2 PUSH2 0xC13 JUMP JUMPDEST DUP2 EQ PUSH2 0xC31 JUMPI PUSH0 DUP1 REVERT JUMPDEST POP JUMP JUMPDEST PUSH0 DUP2 CALLDATALOAD SWAP1 POP PUSH2 0xC42 DUP2 PUSH2 0xC1E JUMP JUMPDEST SWAP3 SWAP2 POP POP JUMP JUMPDEST PUSH0 PUSH1 0x20 DUP3 DUP5 SUB SLT ISZERO PUSH2 0xC5D JUMPI PUSH2 0xC5C PUSH2 0xC0F JUMP JUMPDEST JUMPDEST PUSH0 PUSH2 0xC6A DUP5 DUP3 DUP6 ADD PUSH2 0xC34 JUMP JUMPDEST SWAP2 POP POP SWAP3 SWAP2 POP POP JUMP JUMPDEST PUSH0 PUSH20 0xFFFFFFFFFFFFFFFFFFFFFFFFFFFFFFFFFFFFFFFF DUP3 AND SWAP1 POP SWAP2 SWAP1 POP JUMP JUMPDEST PUSH0 PUSH2 0xC9C DUP3 PUSH2 0xC73 JUMP JUMPDEST SWAP1 POP SWAP2 SWAP1 POP JUMP JUMPDEST PUSH2 0xCAC DUP2 PUSH2 0xC92 JUMP JUMPDEST DUP2 EQ PUSH2 0xCB6 JUMPI PUSH0 DUP1 REVERT JUMPDEST POP JUMP JUMPDEST PUSH0 DUP2 CALLDATALOAD SWAP1 POP PUSH2 0xCC7 DUP2 PUSH2 0xCA3 JUMP JUMPDEST SWAP3 SWAP2 POP POP JUMP JUMPDEST PUSH0 PUSH1 0x20 DUP3 DUP5 SUB SLT ISZERO PUSH2 0xCE2 JUMPI PUSH2 0xCE1 PUSH2 0xC0F JUMP JUMPDEST JUMPDEST PUSH0 PUSH2 0xCEF DUP5 DUP3 DUP6 ADD PUSH2 0xCB9 JUMP JUMPDEST SWAP2 POP POP SWAP3 SWAP2 POP POP JUMP JUMPDEST PUSH0 DUP2 SWAP1 POP SWAP2 SWAP1 POP JUMP JUMPDEST PUSH2 0xD0A DUP2 PUSH2 0xCF8 JUMP JUMPDEST DUP3 MSTORE POP POP JUMP JUMPDEST PUSH0 PUSH1 0x20 DUP3 ADD SWAP1 POP PUSH2 0xD23 PUSH0 DUP4 ADD DUP5 PUSH2 0xD01 JUMP JUMPDEST SWAP3 SWAP2 POP POP JUMP JUMPDEST PUSH2 0xD32 DUP2 PUSH2 0xCF8 JUMP JUMPDEST DUP2 EQ PUSH2 0xD3C JUMPI PUSH0 DUP1 REVERT JUMPDEST POP JUMP JUMPDEST PUSH0 DUP2 CALLDATALOAD SWAP1 POP PUSH2 0xD4D DUP2 PUSH2 0xD29 JUMP JUMPDEST SWAP3 SWAP2 POP POP JUMP JUMPDEST PUSH0 PUSH1 0x20 DUP3 DUP5 SUB SLT ISZERO PUSH2 0xD68 JUMPI PUSH2 0xD67 PUSH2 0xC0F JUMP JUMPDEST JUMPDEST PUSH0 PUSH2 0xD75 DUP5 DUP3 DUP6 ADD PUSH2 0xD3F JUMP JUMPDEST SWAP2 POP POP SWAP3 SWAP2 POP POP JUMP JUMPDEST PUSH0 DUP3 DUP3 MSTORE PUSH1 0x20 DUP3 ADD SWAP1 POP SWAP3 SWAP2 POP POP JUMP JUMPDEST PUSH32 0x496E76616C6964204265742E20506C6561736520626964206F76657220302E00 PUSH0 DUP3 ADD MSTORE POP JUMP JUMPDEST PUSH0 PUSH2 0xDC2 PUSH1 0x1F DUP4 PUSH2 0xD7E JUMP JUMPDEST SWAP2 POP PUSH2 0xDCD DUP3 PUSH2 0xD8E JUMP JUMPDEST PUSH1 0x20 DUP3 ADD SWAP1 POP SWAP2 SWAP1 POP JUMP JUMPDEST PUSH0 PUSH1 0x20 DUP3 ADD SWAP1 POP DUP2 DUP2 SUB PUSH0 DUP4 ADD MSTORE PUSH2 0xDEF DUP2 PUSH2 0xDB6 JUMP JUMPDEST SWAP1 POP SWAP2 SWAP1 POP JUMP JUMPDEST PUSH32 0x4E487B7100000000000000000000000000000000000000000000000000000000 PUSH0 MSTORE PUSH1 0x11 PUSH1 0x4 MSTORE PUSH1 0x24 PUSH0 REVERT JUMPDEST PUSH0 PUSH2 0xE2D DUP3 PUSH2 0xCF8 JUMP JUMPDEST SWAP2 POP PUSH2 0xE38 DUP4 PUSH2 0xCF8 JUMP JUMPDEST SWAP3 POP DUP3 DUP3 MUL PUSH2 0xE46 DUP2 PUSH2 0xCF8 JUMP JUMPDEST SWAP2 POP DUP3 DUP3 DIV DUP5 EQ DUP4 ISZERO OR PUSH2 0xE5D JUMPI PUSH2 0xE5C PUSH2 0xDF6 JUMP JUMPDEST JUMPDEST POP SWAP3 SWAP2 POP POP JUMP JUMPDEST PUSH32 0x496E73756666696369656E742062616C616E636520746F207374617274207468 PUSH0 DUP3 ADD MSTORE PUSH32 0x652067616D652E20596F75206E65656420322074696D65732074686520616D6F PUSH1 0x20 DUP3 ADD MSTORE PUSH32 0x756E7420796F752062657420746F20706C61792E000000000000000000000000 PUSH1 0x40 DUP3 ADD MSTORE POP JUMP JUMPDEST PUSH0 PUSH2 0xEE4 PUSH1 0x54 DUP4 PUSH2 0xD7E JUMP JUMPDEST SWAP2 POP PUSH2 0xEEF DUP3 PUSH2 0xE64 JUMP JUMPDEST PUSH1 0x60 DUP3 ADD SWAP1 POP SWAP2 SWAP1 POP JUMP JUMPDEST PUSH0 PUSH1 0x20 DUP3 ADD SWAP1 POP DUP2 DUP2 SUB PUSH0 DUP4 ADD MSTORE PUSH2 0xF11 DUP2 PUSH2 0xED8 JUMP JUMPDEST SWAP1 POP SWAP2 SWAP1 POP JUMP JUMPDEST PUSH0 PUSH2 0xF22 DUP3 PUSH2 0xCF8 JUMP JUMPDEST SWAP2 POP PUSH2 0xF2D DUP4 PUSH2 0xCF8 JUMP JUMPDEST SWAP3 POP DUP3 DUP3 SUB SWAP1 POP DUP2 DUP2 GT ISZERO PUSH2 0xF45 JUMPI PUSH2 0xF44 PUSH2 0xDF6 JUMP JUMPDEST JUMPDEST SWAP3 SWAP2 POP POP JUMP JUMPDEST PUSH0 DUP2 PUSH1 0x60 SHL SWAP1 POP SWAP2 SWAP1 POP JUMP JUMPDEST PUSH0 PUSH2 0xF61 DUP3 PUSH2 0xF4B JUMP JUMPDEST SWAP1 POP SWAP2 SWAP1 POP JUMP JUMPDEST PUSH0 PUSH2 0xF72 DUP3 PUSH2 0xF57 JUMP JUMPDEST SWAP1 POP SWAP2 SWAP1 POP JUMP JUMPDEST PUSH2 0xF8A PUSH2 0xF85 DUP3 PUSH2 0xC92 JUMP JUMPDEST PUSH2 0xF68 JUMP JUMPDEST DUP3 MSTORE POP POP JUMP JUMPDEST PUSH0 DUP2 SWAP1 POP SWAP2 SWAP1 POP JUMP JUMPDEST PUSH2 0xFAA PUSH2 0xFA5 DUP3 PUSH2 0xCF8 JUMP JUMPDEST PUSH2 0xF90 JUMP JUMPDEST DUP3 MSTORE POP POP JUMP JUMPDEST PUSH0 PUSH2 0xFBB DUP3 DUP8 PUSH2 0xF79 JUMP JUMPDEST PUSH1 0x14 DUP3 ADD SWAP2 POP PUSH2 0xFCB DUP3 DUP7 PUSH2 0xF99 JUMP JUMPDEST PUSH1 0x20 DUP3 ADD SWAP2 POP PUSH2 0xFDB DUP3 DUP6 PUSH2 0xF99 JUMP JUMPDEST PUSH1 0x20 DUP3 ADD SWAP2 POP PUSH2 0xFEB DUP3 DUP5 PUSH2 0xF79 JUMP JUMPDEST PUSH1 0x14 DUP3 ADD SWAP2 POP DUP2 SWAP1 POP SWAP6 SWAP5 POP POP POP POP POP JUMP JUMPDEST PUSH32 0x4E487B7100000000000000000000000000000000000000000000000000000000 PUSH0 MSTORE PUSH1 0x12 PUSH1 0x4 MSTORE PUSH1 0x24 PUSH0 REVERT JUMPDEST PUSH0 PUSH2 0x1034 DUP3 PUSH2 0xCF8 JUMP JUMPDEST SWAP2 POP PUSH2 0x103F DUP4 PUSH2 0xCF8 JUMP JUMPDEST SWAP3 POP DUP3 PUSH2 0x104F JUMPI PUSH2 0x104E PUSH2 0xFFD JUMP JUMPDEST JUMPDEST DUP3 DUP3 MOD SWAP1 POP SWAP3 SWAP2 POP POP JUMP JUMPDEST PUSH0 PUSH2 0x1064 DUP3 PUSH2 0xCF8 JUMP JUMPDEST SWAP2 POP PUSH2 0x106F DUP4 PUSH2 0xCF8 JUMP JUMPDEST SWAP3 POP DUP3 DUP3 ADD SWAP1 POP DUP1 DUP3 GT ISZERO PUSH2 0x1087 JUMPI PUSH2 0x1086 PUSH2 0xDF6 JUMP JUMPDEST JUMPDEST SWAP3 SWAP2 POP POP JUMP JUMPDEST PUSH32 0x4E487B7100000000000000000000000000000000000000000000000000000000 PUSH0 MSTORE PUSH1 0x32 PUSH1 0x4 MSTORE PUSH1 0x24 PUSH0 REVERT JUMPDEST PUSH0 DUP2 SWAP1 POP SWAP3 SWAP2 POP POP JUMP JUMPDEST POP JUMP JUMPDEST PUSH0 PUSH2 0x10D2 PUSH0 DUP4 PUSH2 0x10BA JUMP JUMPDEST SWAP2 POP PUSH2 0x10DD DUP3 PUSH2 0x10C4 JUMP JUMPDEST PUSH0 DUP3 ADD SWAP1 POP SWAP2 SWAP1 POP JUMP JUMPDEST PUSH0 PUSH2 0x10F1 DUP3 PUSH2 0x10C7 JUMP JUMPDEST SWAP2 POP DUP2 SWAP1 POP SWAP2 SWAP1 POP JUMP JUMPDEST PUSH32 0x5472616E73666572206661696C65642E00000000000000000000000000000000 PUSH0 DUP3 ADD MSTORE POP JUMP JUMPDEST PUSH0 PUSH2 0x112F PUSH1 0x10 DUP4 PUSH2 0xD7E JUMP JUMPDEST SWAP2 POP PUSH2 0x113A DUP3 PUSH2 0x10FB JUMP JUMPDEST PUSH1 0x20 DUP3 ADD SWAP1 POP SWAP2 SWAP1 POP JUMP JUMPDEST PUSH0 PUSH1 0x20 DUP3 ADD SWAP1 POP DUP2 DUP2 SUB PUSH0 DUP4 ADD MSTORE PUSH2 0x115C DUP2 PUSH2 0x1123 JUMP JUMPDEST SWAP1 POP SWAP2 SWAP1 POP JUMP INVALID LOG2 PUSH5 0x6970667358 0x22 SLT KECCAK256 CALLVALUE 0xC8 0x4F 0xBA PUSH8 0x9307AD2DCD7558D5 0x2B 0xD3 CALLER 0x4E RETURN MSIZE 0x4E 0xB8 0xF8 0xEC 0xB4 SWAP13 CREATE2 NOT DUP12 0x4E RETURN 0xD0 0xC PUSH5 0x736F6C6343 STOP ADDMOD BYTE STOP CALLER "
				},
				"gasEstimates": {
					"creation": {
						"codeDepositCost": "901000",
						"executionCost": "52308",
						"totalCost": "953308"
					},
					"external": {
						"playerAction(bool)": "infinite",
						"playerBalances(address)": "2802",
						"startGame(uint256)": "infinite"
					},
					"internal": {
						"blackjackOrBust(uint256,bool)": "infinite",
						"calculateHandValue(uint256[] memory)": "infinite",
						"deal()": "infinite",
						"decideWinner()": "infinite",
						"endGame()": "infinite"
					}
				},
				"methodIdentifiers": {
					"playerAction(bool)": "1ff47629",
					"playerBalances(address)": "7b38314c",
					"startGame(uint256)": "e5ed1d59"
				}
			},
			"storageLayout": {
				"storage": [
					{
						"astId": 7,
						"contract": "contracts/blackjack.sol:Blackjack",
						"label": "someNumber",
						"offset": 0,
						"slot": "0",
						"type": "t_uint256"
					},
					{
						"astId": 10,
						"contract": "contracts/blackjack.sol:Blackjack",
						"label": "gameStarted",
						"offset": 0,
						"slot": "1",
						"type": "t_bool"
					},
					{
						"astId": 12,
						"contract": "contracts/blackjack.sol:Blackjack",
						"label": "isHit",
						"offset": 1,
						"slot": "1",
						"type": "t_bool"
					},
					{
						"astId": 14,
						"contract": "contracts/blackjack.sol:Blackjack",
						"label": "isPlayer",
						"offset": 2,
						"slot": "1",
						"type": "t_bool"
					},
					{
						"astId": 17,
						"contract": "contracts/blackjack.sol:Blackjack",
						"label": "bet",
						"offset": 0,
						"slot": "2",
						"type": "t_uint256"
					},
					{
						"astId": 19,
						"contract": "contracts/blackjack.sol:Blackjack",
						"label": "win_lose_or_tie",
						"offset": 0,
						"slot": "3",
						"type": "t_uint256"
					},
					{
						"astId": 64,
						"contract": "contracts/blackjack.sol:Blackjack",
						"label": "playerBalances",
						"offset": 0,
						"slot": "4",
						"type": "t_mapping(t_address,t_uint256)"
					},
					{
						"astId": 69,
						"contract": "contracts/blackjack.sol:Blackjack",
						"label": "playerHands",
						"offset": 0,
						"slot": "5",
						"type": "t_mapping(t_address,t_struct(Hand)491_storage)"
					},
					{
						"astId": 72,
						"contract": "contracts/blackjack.sol:Blackjack",
						"label": "dealerHand",
						"offset": 0,
						"slot": "6",
						"type": "t_struct(Hand)491_storage"
					}
				],
				"types": {
					"t_address": {
						"encoding": "inplace",
						"label": "address",
						"numberOfBytes": "20"
					},
					"t_array(t_uint256)dyn_storage": {
						"base": "t_uint256",
						"encoding": "dynamic_array",
						"label": "uint256[]",
						"numberOfBytes": "32"
					},
					"t_bool": {
						"encoding": "inplace",
						"label": "bool",
						"numberOfBytes": "1"
					},
					"t_mapping(t_address,t_struct(Hand)491_storage)": {
						"encoding": "mapping",
						"key": "t_address",
						"label": "mapping(address => struct BlackjackInterface.Hand)",
						"numberOfBytes": "32",
						"value": "t_struct(Hand)491_storage"
					},
					"t_mapping(t_address,t_uint256)": {
						"encoding": "mapping",
						"key": "t_address",
						"label": "mapping(address => uint256)",
						"numberOfBytes": "32",
						"value": "t_uint256"
					},
					"t_struct(Hand)491_storage": {
						"encoding": "inplace",
						"label": "struct BlackjackInterface.Hand",
						"members": [
							{
								"astId": 490,
								"contract": "contracts/blackjack.sol:Blackjack",
								"label": "hand",
								"offset": 0,
								"slot": "0",
								"type": "t_array(t_uint256)dyn_storage"
							}
						],
						"numberOfBytes": "32"
					},
					"t_uint256": {
						"encoding": "inplace",
						"label": "uint256",
						"numberOfBytes": "32"
					}
				}
			},
			"userdoc": {
				"kind": "user",
				"methods": {},
				"version": 1
			}
		}
	}
}