{
	"contracts/blackjack.sol": {
		"Blackjack": {
			"abi": [
				{
					"anonymous": false,
					"inputs": [],
					"name": "handValueUpdated",
					"type": "event"
				},
				{
					"inputs": [
						{
							"internalType": "uint256",
							"name": "handSum",
							"type": "uint256"
						},
						{
							"internalType": "string",
							"name": "playerType",
							"type": "string"
						}
					],
					"name": "blackjackOrBust",
					"outputs": [],
					"stateMutability": "nonpayable",
					"type": "function"
				},
				{
					"inputs": [],
					"name": "calculateHandValue",
					"outputs": [
						{
							"internalType": "uint256",
							"name": "",
							"type": "uint256"
						}
					],
					"stateMutability": "view",
					"type": "function"
				},
				{
					"inputs": [],
					"name": "dealerAction",
					"outputs": [],
					"stateMutability": "nonpayable",
					"type": "function"
				},
				{
					"inputs": [],
					"name": "decideWinner",
					"outputs": [],
					"stateMutability": "nonpayable",
					"type": "function"
				},
				{
					"inputs": [],
					"name": "endGame",
					"outputs": [],
					"stateMutability": "nonpayable",
					"type": "function"
				},
				{
					"inputs": [
						{
							"internalType": "string",
							"name": "action",
							"type": "string"
						}
					],
					"name": "playerAction",
					"outputs": [],
					"stateMutability": "nonpayable",
					"type": "function"
				},
				{
					"inputs": [
						{
							"internalType": "address",
							"name": "",
							"type": "address"
						}
					],
					"name": "playerBalances",
					"outputs": [
						{
							"internalType": "uint256",
							"name": "",
							"type": "uint256"
						}
					],
					"stateMutability": "view",
					"type": "function"
				},
				{
					"inputs": [
						{
							"internalType": "uint256",
							"name": "betAmount",
							"type": "uint256"
						}
					],
					"name": "startGame",
					"outputs": [],
					"stateMutability": "nonpayable",
					"type": "function"
				}
			],
			"devdoc": {
				"kind": "dev",
				"methods": {},
				"version": 1
			},
			"evm": {
				"assembly": "    /* \"contracts/blackjack.sol\":110:3074  contract Blackjack is BlackjackInterface {... */\n  mstore(0x40, 0x80)\n  callvalue\n  dup1\n  iszero\n  tag_1\n  jumpi\n  0x00\n  dup1\n  revert\ntag_1:\n  pop\n  dataSize(sub_0)\n  dup1\n  dataOffset(sub_0)\n  0x00\n  codecopy\n  0x00\n  return\nstop\n\nsub_0: assembly {\n        /* \"contracts/blackjack.sol\":110:3074  contract Blackjack is BlackjackInterface {... */\n      mstore(0x40, 0x80)\n      callvalue\n      dup1\n      iszero\n      tag_1\n      jumpi\n      0x00\n      dup1\n      revert\n    tag_1:\n      pop\n      jumpi(tag_2, lt(calldatasize, 0x04))\n      shr(0xe0, calldataload(0x00))\n      dup1\n      0x7b38314c\n      gt\n      tag_11\n      jumpi\n      dup1\n      0x7b38314c\n      eq\n      tag_7\n      jumpi\n      dup1\n      0xd9cb46f0\n      eq\n      tag_8\n      jumpi\n      dup1\n      0xe5ed1d59\n      eq\n      tag_9\n      jumpi\n      dup1\n      0xfd794143\n      eq\n      tag_10\n      jumpi\n      jump(tag_2)\n    tag_11:\n      dup1\n      0x08f4ebcb\n      eq\n      tag_3\n      jumpi\n      dup1\n      0x25402e74\n      eq\n      tag_4\n      jumpi\n      dup1\n      0x30d7bc38\n      eq\n      tag_5\n      jumpi\n      dup1\n      0x6cbc2ded\n      eq\n      tag_6\n      jumpi\n    tag_2:\n      0x00\n      dup1\n      revert\n        /* \"contracts/blackjack.sol\":2106:2190  function blackjackOrBust(uint handSum, string memory playerType) external {... */\n    tag_3:\n      tag_12\n      0x04\n      dup1\n      calldatasize\n      sub\n      dup2\n      add\n      swap1\n      tag_13\n      swap2\n      swap1\n      tag_14\n      jump\t// in\n    tag_13:\n      tag_15\n      jump\t// in\n    tag_12:\n      stop\n        /* \"contracts/blackjack.sol\":2449:2492  function decideWinner() external {... */\n    tag_4:\n      tag_16\n      tag_17\n      jump\t// in\n    tag_16:\n      stop\n        /* \"contracts/blackjack.sol\":1781:1824  function dealerAction() external {... */\n    tag_5:\n      tag_18\n      tag_19\n      jump\t// in\n    tag_18:\n      stop\n        /* \"contracts/blackjack.sol\":2808:2846  function endGame() external {... */\n    tag_6:\n      tag_20\n      tag_21\n      jump\t// in\n    tag_20:\n      stop\n        /* \"contracts/blackjack.sol\":200:246  mapping(address => uint) public playerBalances */\n    tag_7:\n      tag_22\n      0x04\n      dup1\n      calldatasize\n      sub\n      dup2\n      add\n      swap1\n      tag_23\n      swap2\n      swap1\n      tag_24\n      jump\t// in\n    tag_23:\n      tag_25\n      jump\t// in\n    tag_22:\n      mload(0x40)\n      tag_26\n      swap2\n      swap1\n      tag_27\n      jump\t// in\n    tag_26:\n      mload(0x40)\n      dup1\n      swap2\n      sub\n      swap1\n      return\n        /* \"contracts/blackjack.sol\":1228:1649  function playerAction(string memory action) external { // apparently the only want to compare memory strings to a regular string is through keccack256... */\n    tag_8:\n      tag_28\n      0x04\n      dup1\n      calldatasize\n      sub\n      dup2\n      add\n      swap1\n      tag_29\n      swap2\n      swap1\n      tag_30\n      jump\t// in\n    tag_29:\n      tag_31\n      jump\t// in\n    tag_28:\n      stop\n        /* \"contracts/blackjack.sol\":356:995  function startGame(uint betAmount) external {... */\n    tag_9:\n      tag_32\n      0x04\n      dup1\n      calldatasize\n      sub\n      dup2\n      add\n      swap1\n      tag_33\n      swap2\n      swap1\n      tag_34\n      jump\t// in\n    tag_33:\n      tag_35\n      jump\t// in\n    tag_32:\n      stop\n        /* \"contracts/blackjack.sol\":2854:3069  function calculateHandValue() external view returns(uint) { // function to calculate hand value; might need to make a random number generator 1-10 ... */\n    tag_10:\n      tag_36\n      tag_37\n      jump\t// in\n    tag_36:\n      mload(0x40)\n      tag_38\n      swap2\n      swap1\n      tag_27\n      jump\t// in\n    tag_38:\n      mload(0x40)\n      dup1\n      swap2\n      sub\n      swap1\n      return\n        /* \"contracts/blackjack.sol\":2106:2190  function blackjackOrBust(uint handSum, string memory playerType) external {... */\n    tag_15:\n      pop\n      pop\n      jump\t// out\n        /* \"contracts/blackjack.sol\":2449:2492  function decideWinner() external {... */\n    tag_17:\n      jump\t// out\n        /* \"contracts/blackjack.sol\":1781:1824  function dealerAction() external {... */\n    tag_19:\n      jump\t// out\n        /* \"contracts/blackjack.sol\":2808:2846  function endGame() external {... */\n    tag_21:\n      jump\t// out\n        /* \"contracts/blackjack.sol\":200:246  mapping(address => uint) public playerBalances */\n    tag_25:\n      mstore(0x20, 0x00)\n      dup1\n      0x00\n      mstore\n      keccak256(0x00, 0x40)\n      0x00\n      swap2\n      pop\n      swap1\n      pop\n      sload\n      dup2\n      jump\t// out\n        /* \"contracts/blackjack.sol\":1228:1649  function playerAction(string memory action) external { // apparently the only want to compare memory strings to a regular string is through keccack256... */\n    tag_31:\n      pop\n      jump\t// out\n        /* \"contracts/blackjack.sol\":356:995  function startGame(uint betAmount) external {... */\n    tag_35:\n        /* \"contracts/blackjack.sol\":528:529  2 */\n      0x02\n        /* \"contracts/blackjack.sol\":516:525  betAmount */\n      dup2\n        /* \"contracts/blackjack.sol\":516:529  betAmount * 2 */\n      tag_45\n      swap2\n      swap1\n      tag_46\n      jump\t// in\n    tag_45:\n        /* \"contracts/blackjack.sol\":486:500  playerBalances */\n      0x00\n        /* \"contracts/blackjack.sol\":486:512  playerBalances[msg.sender] */\n      dup1\n        /* \"contracts/blackjack.sol\":501:511  msg.sender */\n      caller\n        /* \"contracts/blackjack.sol\":486:512  playerBalances[msg.sender] */\n      0xffffffffffffffffffffffffffffffffffffffff\n      and\n      0xffffffffffffffffffffffffffffffffffffffff\n      and\n      dup2\n      mstore\n      0x20\n      add\n      swap1\n      dup2\n      mstore\n      0x20\n      add\n      0x00\n      keccak256\n      sload\n        /* \"contracts/blackjack.sol\":486:529  playerBalances[msg.sender] >= betAmount * 2 */\n      lt\n      iszero\n        /* \"contracts/blackjack.sol\":478:572  require(playerBalances[msg.sender] >= betAmount * 2, \"Insufficient balance to start the game\") */\n      tag_47\n      jumpi\n      mload(0x40)\n      0x08c379a000000000000000000000000000000000000000000000000000000000\n      dup2\n      mstore\n      0x04\n      add\n      tag_48\n      swap1\n      tag_49\n      jump\t// in\n    tag_48:\n      mload(0x40)\n      dup1\n      swap2\n      sub\n      swap1\n      revert\n    tag_47:\n        /* \"contracts/blackjack.sol\":675:684  betAmount */\n      dup1\n        /* \"contracts/blackjack.sol\":645:659  playerBalances */\n      0x00\n        /* \"contracts/blackjack.sol\":645:671  playerBalances[msg.sender] */\n      dup1\n        /* \"contracts/blackjack.sol\":660:670  msg.sender */\n      caller\n        /* \"contracts/blackjack.sol\":645:671  playerBalances[msg.sender] */\n      0xffffffffffffffffffffffffffffffffffffffff\n      and\n      0xffffffffffffffffffffffffffffffffffffffff\n      and\n      dup2\n      mstore\n      0x20\n      add\n      swap1\n      dup2\n      mstore\n      0x20\n      add\n      0x00\n      keccak256\n      0x00\n        /* \"contracts/blackjack.sol\":645:684  playerBalances[msg.sender] -= betAmount */\n      dup3\n      dup3\n      sload\n      tag_50\n      swap2\n      swap1\n      tag_51\n      jump\t// in\n    tag_50:\n      swap3\n      pop\n      pop\n      dup2\n      swap1\n      sstore\n      pop\n        /* \"contracts/blackjack.sol\":922:940  handValueUpdated() */\n      0x547c57d3ad5905405de82b8e681b8843daacca1468935c3c7963377aa4179469\n      mload(0x40)\n      mload(0x40)\n      dup1\n      swap2\n      sub\n      swap1\n      log1\n        /* \"contracts/blackjack.sol\":356:995  function startGame(uint betAmount) external {... */\n      pop\n      jump\t// out\n        /* \"contracts/blackjack.sol\":2854:3069  function calculateHandValue() external view returns(uint) { // function to calculate hand value; might need to make a random number generator 1-10 ... */\n    tag_37:\n        /* \"contracts/blackjack.sol\":2906:2910  uint */\n      0x00\n        /* \"contracts/blackjack.sol\":2854:3069  function calculateHandValue() external view returns(uint) { // function to calculate hand value; might need to make a random number generator 1-10 ... */\n      swap1\n      jump\t// out\n        /* \"#utility.yul\":7:82   */\n    tag_53:\n        /* \"#utility.yul\":40:46   */\n      0x00\n        /* \"#utility.yul\":73:75   */\n      0x40\n        /* \"#utility.yul\":67:76   */\n      mload\n        /* \"#utility.yul\":57:76   */\n      swap1\n      pop\n        /* \"#utility.yul\":7:82   */\n      swap1\n      jump\t// out\n        /* \"#utility.yul\":88:205   */\n    tag_54:\n        /* \"#utility.yul\":197:198   */\n      0x00\n        /* \"#utility.yul\":194:195   */\n      dup1\n        /* \"#utility.yul\":187:199   */\n      revert\n        /* \"#utility.yul\":211:328   */\n    tag_55:\n        /* \"#utility.yul\":320:321   */\n      0x00\n        /* \"#utility.yul\":317:318   */\n      dup1\n        /* \"#utility.yul\":310:322   */\n      revert\n        /* \"#utility.yul\":334:411   */\n    tag_56:\n        /* \"#utility.yul\":371:378   */\n      0x00\n        /* \"#utility.yul\":400:405   */\n      dup2\n        /* \"#utility.yul\":389:405   */\n      swap1\n      pop\n        /* \"#utility.yul\":334:411   */\n      swap2\n      swap1\n      pop\n      jump\t// out\n        /* \"#utility.yul\":417:539   */\n    tag_57:\n        /* \"#utility.yul\":490:514   */\n      tag_84\n        /* \"#utility.yul\":508:513   */\n      dup2\n        /* \"#utility.yul\":490:514   */\n      tag_56\n      jump\t// in\n    tag_84:\n        /* \"#utility.yul\":483:488   */\n      dup2\n        /* \"#utility.yul\":480:515   */\n      eq\n        /* \"#utility.yul\":470:533   */\n      tag_85\n      jumpi\n        /* \"#utility.yul\":529:530   */\n      0x00\n        /* \"#utility.yul\":526:527   */\n      dup1\n        /* \"#utility.yul\":519:531   */\n      revert\n        /* \"#utility.yul\":470:533   */\n    tag_85:\n        /* \"#utility.yul\":417:539   */\n      pop\n      jump\t// out\n        /* \"#utility.yul\":545:684   */\n    tag_58:\n        /* \"#utility.yul\":591:596   */\n      0x00\n        /* \"#utility.yul\":629:635   */\n      dup2\n        /* \"#utility.yul\":616:636   */\n      calldataload\n        /* \"#utility.yul\":607:636   */\n      swap1\n      pop\n        /* \"#utility.yul\":645:678   */\n      tag_87\n        /* \"#utility.yul\":672:677   */\n      dup2\n        /* \"#utility.yul\":645:678   */\n      tag_57\n      jump\t// in\n    tag_87:\n        /* \"#utility.yul\":545:684   */\n      swap3\n      swap2\n      pop\n      pop\n      jump\t// out\n        /* \"#utility.yul\":690:807   */\n    tag_59:\n        /* \"#utility.yul\":799:800   */\n      0x00\n        /* \"#utility.yul\":796:797   */\n      dup1\n        /* \"#utility.yul\":789:801   */\n      revert\n        /* \"#utility.yul\":813:930   */\n    tag_60:\n        /* \"#utility.yul\":922:923   */\n      0x00\n        /* \"#utility.yul\":919:920   */\n      dup1\n        /* \"#utility.yul\":912:924   */\n      revert\n        /* \"#utility.yul\":936:1038   */\n    tag_61:\n        /* \"#utility.yul\":977:983   */\n      0x00\n        /* \"#utility.yul\":1028:1030   */\n      0x1f\n        /* \"#utility.yul\":1024:1031   */\n      not\n        /* \"#utility.yul\":1019:1021   */\n      0x1f\n        /* \"#utility.yul\":1012:1017   */\n      dup4\n        /* \"#utility.yul\":1008:1022   */\n      add\n        /* \"#utility.yul\":1004:1032   */\n      and\n        /* \"#utility.yul\":994:1032   */\n      swap1\n      pop\n        /* \"#utility.yul\":936:1038   */\n      swap2\n      swap1\n      pop\n      jump\t// out\n        /* \"#utility.yul\":1044:1224   */\n    tag_62:\n        /* \"#utility.yul\":1092:1169   */\n      0x4e487b7100000000000000000000000000000000000000000000000000000000\n        /* \"#utility.yul\":1089:1090   */\n      0x00\n        /* \"#utility.yul\":1082:1170   */\n      mstore\n        /* \"#utility.yul\":1189:1193   */\n      0x41\n        /* \"#utility.yul\":1186:1187   */\n      0x04\n        /* \"#utility.yul\":1179:1194   */\n      mstore\n        /* \"#utility.yul\":1213:1217   */\n      0x24\n        /* \"#utility.yul\":1210:1211   */\n      0x00\n        /* \"#utility.yul\":1203:1218   */\n      revert\n        /* \"#utility.yul\":1230:1511   */\n    tag_63:\n        /* \"#utility.yul\":1313:1340   */\n      tag_93\n        /* \"#utility.yul\":1335:1339   */\n      dup3\n        /* \"#utility.yul\":1313:1340   */\n      tag_61\n      jump\t// in\n    tag_93:\n        /* \"#utility.yul\":1305:1311   */\n      dup2\n        /* \"#utility.yul\":1301:1341   */\n      add\n        /* \"#utility.yul\":1443:1449   */\n      dup2\n        /* \"#utility.yul\":1431:1441   */\n      dup2\n        /* \"#utility.yul\":1428:1450   */\n      lt\n        /* \"#utility.yul\":1407:1425   */\n      0xffffffffffffffff\n        /* \"#utility.yul\":1395:1405   */\n      dup3\n        /* \"#utility.yul\":1392:1426   */\n      gt\n        /* \"#utility.yul\":1389:1451   */\n      or\n        /* \"#utility.yul\":1386:1474   */\n      iszero\n      tag_94\n      jumpi\n        /* \"#utility.yul\":1454:1472   */\n      tag_95\n      tag_62\n      jump\t// in\n    tag_95:\n        /* \"#utility.yul\":1386:1474   */\n    tag_94:\n        /* \"#utility.yul\":1494:1504   */\n      dup1\n        /* \"#utility.yul\":1490:1492   */\n      0x40\n        /* \"#utility.yul\":1483:1505   */\n      mstore\n        /* \"#utility.yul\":1273:1511   */\n      pop\n        /* \"#utility.yul\":1230:1511   */\n      pop\n      pop\n      jump\t// out\n        /* \"#utility.yul\":1517:1646   */\n    tag_64:\n        /* \"#utility.yul\":1551:1557   */\n      0x00\n        /* \"#utility.yul\":1578:1598   */\n      tag_97\n      tag_53\n      jump\t// in\n    tag_97:\n        /* \"#utility.yul\":1568:1598   */\n      swap1\n      pop\n        /* \"#utility.yul\":1607:1640   */\n      tag_98\n        /* \"#utility.yul\":1635:1639   */\n      dup3\n        /* \"#utility.yul\":1627:1633   */\n      dup3\n        /* \"#utility.yul\":1607:1640   */\n      tag_63\n      jump\t// in\n    tag_98:\n        /* \"#utility.yul\":1517:1646   */\n      swap2\n      swap1\n      pop\n      jump\t// out\n        /* \"#utility.yul\":1652:1960   */\n    tag_65:\n        /* \"#utility.yul\":1714:1718   */\n      0x00\n        /* \"#utility.yul\":1804:1822   */\n      0xffffffffffffffff\n        /* \"#utility.yul\":1796:1802   */\n      dup3\n        /* \"#utility.yul\":1793:1823   */\n      gt\n        /* \"#utility.yul\":1790:1846   */\n      iszero\n      tag_100\n      jumpi\n        /* \"#utility.yul\":1826:1844   */\n      tag_101\n      tag_62\n      jump\t// in\n    tag_101:\n        /* \"#utility.yul\":1790:1846   */\n    tag_100:\n        /* \"#utility.yul\":1864:1893   */\n      tag_102\n        /* \"#utility.yul\":1886:1892   */\n      dup3\n        /* \"#utility.yul\":1864:1893   */\n      tag_61\n      jump\t// in\n    tag_102:\n        /* \"#utility.yul\":1856:1893   */\n      swap1\n      pop\n        /* \"#utility.yul\":1948:1952   */\n      0x20\n        /* \"#utility.yul\":1942:1946   */\n      dup2\n        /* \"#utility.yul\":1938:1953   */\n      add\n        /* \"#utility.yul\":1930:1953   */\n      swap1\n      pop\n        /* \"#utility.yul\":1652:1960   */\n      swap2\n      swap1\n      pop\n      jump\t// out\n        /* \"#utility.yul\":1966:2114   */\n    tag_66:\n        /* \"#utility.yul\":2064:2070   */\n      dup3\n        /* \"#utility.yul\":2059:2062   */\n      dup2\n        /* \"#utility.yul\":2054:2057   */\n      dup4\n        /* \"#utility.yul\":2041:2071   */\n      calldatacopy\n        /* \"#utility.yul\":2105:2106   */\n      0x00\n        /* \"#utility.yul\":2096:2102   */\n      dup4\n        /* \"#utility.yul\":2091:2094   */\n      dup4\n        /* \"#utility.yul\":2087:2103   */\n      add\n        /* \"#utility.yul\":2080:2107   */\n      mstore\n        /* \"#utility.yul\":1966:2114   */\n      pop\n      pop\n      pop\n      jump\t// out\n        /* \"#utility.yul\":2120:2545   */\n    tag_67:\n        /* \"#utility.yul\":2198:2203   */\n      0x00\n        /* \"#utility.yul\":2223:2289   */\n      tag_105\n        /* \"#utility.yul\":2239:2288   */\n      tag_106\n        /* \"#utility.yul\":2281:2287   */\n      dup5\n        /* \"#utility.yul\":2239:2288   */\n      tag_65\n      jump\t// in\n    tag_106:\n        /* \"#utility.yul\":2223:2289   */\n      tag_64\n      jump\t// in\n    tag_105:\n        /* \"#utility.yul\":2214:2289   */\n      swap1\n      pop\n        /* \"#utility.yul\":2312:2318   */\n      dup3\n        /* \"#utility.yul\":2305:2310   */\n      dup2\n        /* \"#utility.yul\":2298:2319   */\n      mstore\n        /* \"#utility.yul\":2350:2354   */\n      0x20\n        /* \"#utility.yul\":2343:2348   */\n      dup2\n        /* \"#utility.yul\":2339:2355   */\n      add\n        /* \"#utility.yul\":2388:2391   */\n      dup5\n        /* \"#utility.yul\":2379:2385   */\n      dup5\n        /* \"#utility.yul\":2374:2377   */\n      dup5\n        /* \"#utility.yul\":2370:2386   */\n      add\n        /* \"#utility.yul\":2367:2392   */\n      gt\n        /* \"#utility.yul\":2364:2476   */\n      iszero\n      tag_107\n      jumpi\n        /* \"#utility.yul\":2395:2474   */\n      tag_108\n      tag_60\n      jump\t// in\n    tag_108:\n        /* \"#utility.yul\":2364:2476   */\n    tag_107:\n        /* \"#utility.yul\":2485:2539   */\n      tag_109\n        /* \"#utility.yul\":2532:2538   */\n      dup5\n        /* \"#utility.yul\":2527:2530   */\n      dup3\n        /* \"#utility.yul\":2522:2525   */\n      dup6\n        /* \"#utility.yul\":2485:2539   */\n      tag_66\n      jump\t// in\n    tag_109:\n        /* \"#utility.yul\":2204:2545   */\n      pop\n        /* \"#utility.yul\":2120:2545   */\n      swap4\n      swap3\n      pop\n      pop\n      pop\n      jump\t// out\n        /* \"#utility.yul\":2565:2905   */\n    tag_68:\n        /* \"#utility.yul\":2621:2626   */\n      0x00\n        /* \"#utility.yul\":2670:2673   */\n      dup3\n        /* \"#utility.yul\":2663:2667   */\n      0x1f\n        /* \"#utility.yul\":2655:2661   */\n      dup4\n        /* \"#utility.yul\":2651:2668   */\n      add\n        /* \"#utility.yul\":2647:2674   */\n      slt\n        /* \"#utility.yul\":2637:2759   */\n      tag_111\n      jumpi\n        /* \"#utility.yul\":2678:2757   */\n      tag_112\n      tag_59\n      jump\t// in\n    tag_112:\n        /* \"#utility.yul\":2637:2759   */\n    tag_111:\n        /* \"#utility.yul\":2795:2801   */\n      dup2\n        /* \"#utility.yul\":2782:2802   */\n      calldataload\n        /* \"#utility.yul\":2820:2899   */\n      tag_113\n        /* \"#utility.yul\":2895:2898   */\n      dup5\n        /* \"#utility.yul\":2887:2893   */\n      dup3\n        /* \"#utility.yul\":2880:2884   */\n      0x20\n        /* \"#utility.yul\":2872:2878   */\n      dup7\n        /* \"#utility.yul\":2868:2885   */\n      add\n        /* \"#utility.yul\":2820:2899   */\n      tag_67\n      jump\t// in\n    tag_113:\n        /* \"#utility.yul\":2811:2899   */\n      swap2\n      pop\n        /* \"#utility.yul\":2627:2905   */\n      pop\n        /* \"#utility.yul\":2565:2905   */\n      swap3\n      swap2\n      pop\n      pop\n      jump\t// out\n        /* \"#utility.yul\":2911:3565   */\n    tag_14:\n        /* \"#utility.yul\":2989:2995   */\n      0x00\n        /* \"#utility.yul\":2997:3003   */\n      dup1\n        /* \"#utility.yul\":3046:3048   */\n      0x40\n        /* \"#utility.yul\":3034:3043   */\n      dup4\n        /* \"#utility.yul\":3025:3032   */\n      dup6\n        /* \"#utility.yul\":3021:3044   */\n      sub\n        /* \"#utility.yul\":3017:3049   */\n      slt\n        /* \"#utility.yul\":3014:3133   */\n      iszero\n      tag_115\n      jumpi\n        /* \"#utility.yul\":3052:3131   */\n      tag_116\n      tag_54\n      jump\t// in\n    tag_116:\n        /* \"#utility.yul\":3014:3133   */\n    tag_115:\n        /* \"#utility.yul\":3172:3173   */\n      0x00\n        /* \"#utility.yul\":3197:3250   */\n      tag_117\n        /* \"#utility.yul\":3242:3249   */\n      dup6\n        /* \"#utility.yul\":3233:3239   */\n      dup3\n        /* \"#utility.yul\":3222:3231   */\n      dup7\n        /* \"#utility.yul\":3218:3240   */\n      add\n        /* \"#utility.yul\":3197:3250   */\n      tag_58\n      jump\t// in\n    tag_117:\n        /* \"#utility.yul\":3187:3250   */\n      swap3\n      pop\n        /* \"#utility.yul\":3143:3260   */\n      pop\n        /* \"#utility.yul\":3327:3329   */\n      0x20\n        /* \"#utility.yul\":3316:3325   */\n      dup4\n        /* \"#utility.yul\":3312:3330   */\n      add\n        /* \"#utility.yul\":3299:3331   */\n      calldataload\n        /* \"#utility.yul\":3358:3376   */\n      0xffffffffffffffff\n        /* \"#utility.yul\":3350:3356   */\n      dup2\n        /* \"#utility.yul\":3347:3377   */\n      gt\n        /* \"#utility.yul\":3344:3461   */\n      iszero\n      tag_118\n      jumpi\n        /* \"#utility.yul\":3380:3459   */\n      tag_119\n      tag_55\n      jump\t// in\n    tag_119:\n        /* \"#utility.yul\":3344:3461   */\n    tag_118:\n        /* \"#utility.yul\":3485:3548   */\n      tag_120\n        /* \"#utility.yul\":3540:3547   */\n      dup6\n        /* \"#utility.yul\":3531:3537   */\n      dup3\n        /* \"#utility.yul\":3520:3529   */\n      dup7\n        /* \"#utility.yul\":3516:3538   */\n      add\n        /* \"#utility.yul\":3485:3548   */\n      tag_68\n      jump\t// in\n    tag_120:\n        /* \"#utility.yul\":3475:3548   */\n      swap2\n      pop\n        /* \"#utility.yul\":3270:3558   */\n      pop\n        /* \"#utility.yul\":2911:3565   */\n      swap3\n      pop\n      swap3\n      swap1\n      pop\n      jump\t// out\n        /* \"#utility.yul\":3571:3697   */\n    tag_69:\n        /* \"#utility.yul\":3608:3615   */\n      0x00\n        /* \"#utility.yul\":3648:3690   */\n      0xffffffffffffffffffffffffffffffffffffffff\n        /* \"#utility.yul\":3641:3646   */\n      dup3\n        /* \"#utility.yul\":3637:3691   */\n      and\n        /* \"#utility.yul\":3626:3691   */\n      swap1\n      pop\n        /* \"#utility.yul\":3571:3697   */\n      swap2\n      swap1\n      pop\n      jump\t// out\n        /* \"#utility.yul\":3703:3799   */\n    tag_70:\n        /* \"#utility.yul\":3740:3747   */\n      0x00\n        /* \"#utility.yul\":3769:3793   */\n      tag_123\n        /* \"#utility.yul\":3787:3792   */\n      dup3\n        /* \"#utility.yul\":3769:3793   */\n      tag_69\n      jump\t// in\n    tag_123:\n        /* \"#utility.yul\":3758:3793   */\n      swap1\n      pop\n        /* \"#utility.yul\":3703:3799   */\n      swap2\n      swap1\n      pop\n      jump\t// out\n        /* \"#utility.yul\":3805:3927   */\n    tag_71:\n        /* \"#utility.yul\":3878:3902   */\n      tag_125\n        /* \"#utility.yul\":3896:3901   */\n      dup2\n        /* \"#utility.yul\":3878:3902   */\n      tag_70\n      jump\t// in\n    tag_125:\n        /* \"#utility.yul\":3871:3876   */\n      dup2\n        /* \"#utility.yul\":3868:3903   */\n      eq\n        /* \"#utility.yul\":3858:3921   */\n      tag_126\n      jumpi\n        /* \"#utility.yul\":3917:3918   */\n      0x00\n        /* \"#utility.yul\":3914:3915   */\n      dup1\n        /* \"#utility.yul\":3907:3919   */\n      revert\n        /* \"#utility.yul\":3858:3921   */\n    tag_126:\n        /* \"#utility.yul\":3805:3927   */\n      pop\n      jump\t// out\n        /* \"#utility.yul\":3933:4072   */\n    tag_72:\n        /* \"#utility.yul\":3979:3984   */\n      0x00\n        /* \"#utility.yul\":4017:4023   */\n      dup2\n        /* \"#utility.yul\":4004:4024   */\n      calldataload\n        /* \"#utility.yul\":3995:4024   */\n      swap1\n      pop\n        /* \"#utility.yul\":4033:4066   */\n      tag_128\n        /* \"#utility.yul\":4060:4065   */\n      dup2\n        /* \"#utility.yul\":4033:4066   */\n      tag_71\n      jump\t// in\n    tag_128:\n        /* \"#utility.yul\":3933:4072   */\n      swap3\n      swap2\n      pop\n      pop\n      jump\t// out\n        /* \"#utility.yul\":4078:4407   */\n    tag_24:\n        /* \"#utility.yul\":4137:4143   */\n      0x00\n        /* \"#utility.yul\":4186:4188   */\n      0x20\n        /* \"#utility.yul\":4174:4183   */\n      dup3\n        /* \"#utility.yul\":4165:4172   */\n      dup5\n        /* \"#utility.yul\":4161:4184   */\n      sub\n        /* \"#utility.yul\":4157:4189   */\n      slt\n        /* \"#utility.yul\":4154:4273   */\n      iszero\n      tag_130\n      jumpi\n        /* \"#utility.yul\":4192:4271   */\n      tag_131\n      tag_54\n      jump\t// in\n    tag_131:\n        /* \"#utility.yul\":4154:4273   */\n    tag_130:\n        /* \"#utility.yul\":4312:4313   */\n      0x00\n        /* \"#utility.yul\":4337:4390   */\n      tag_132\n        /* \"#utility.yul\":4382:4389   */\n      dup5\n        /* \"#utility.yul\":4373:4379   */\n      dup3\n        /* \"#utility.yul\":4362:4371   */\n      dup6\n        /* \"#utility.yul\":4358:4380   */\n      add\n        /* \"#utility.yul\":4337:4390   */\n      tag_72\n      jump\t// in\n    tag_132:\n        /* \"#utility.yul\":4327:4390   */\n      swap2\n      pop\n        /* \"#utility.yul\":4283:4400   */\n      pop\n        /* \"#utility.yul\":4078:4407   */\n      swap3\n      swap2\n      pop\n      pop\n      jump\t// out\n        /* \"#utility.yul\":4413:4531   */\n    tag_73:\n        /* \"#utility.yul\":4500:4524   */\n      tag_134\n        /* \"#utility.yul\":4518:4523   */\n      dup2\n        /* \"#utility.yul\":4500:4524   */\n      tag_56\n      jump\t// in\n    tag_134:\n        /* \"#utility.yul\":4495:4498   */\n      dup3\n        /* \"#utility.yul\":4488:4525   */\n      mstore\n        /* \"#utility.yul\":4413:4531   */\n      pop\n      pop\n      jump\t// out\n        /* \"#utility.yul\":4537:4759   */\n    tag_27:\n        /* \"#utility.yul\":4630:4634   */\n      0x00\n        /* \"#utility.yul\":4668:4670   */\n      0x20\n        /* \"#utility.yul\":4657:4666   */\n      dup3\n        /* \"#utility.yul\":4653:4671   */\n      add\n        /* \"#utility.yul\":4645:4671   */\n      swap1\n      pop\n        /* \"#utility.yul\":4681:4752   */\n      tag_136\n        /* \"#utility.yul\":4749:4750   */\n      0x00\n        /* \"#utility.yul\":4738:4747   */\n      dup4\n        /* \"#utility.yul\":4734:4751   */\n      add\n        /* \"#utility.yul\":4725:4731   */\n      dup5\n        /* \"#utility.yul\":4681:4752   */\n      tag_73\n      jump\t// in\n    tag_136:\n        /* \"#utility.yul\":4537:4759   */\n      swap3\n      swap2\n      pop\n      pop\n      jump\t// out\n        /* \"#utility.yul\":4765:5274   */\n    tag_30:\n        /* \"#utility.yul\":4834:4840   */\n      0x00\n        /* \"#utility.yul\":4883:4885   */\n      0x20\n        /* \"#utility.yul\":4871:4880   */\n      dup3\n        /* \"#utility.yul\":4862:4869   */\n      dup5\n        /* \"#utility.yul\":4858:4881   */\n      sub\n        /* \"#utility.yul\":4854:4886   */\n      slt\n        /* \"#utility.yul\":4851:4970   */\n      iszero\n      tag_138\n      jumpi\n        /* \"#utility.yul\":4889:4968   */\n      tag_139\n      tag_54\n      jump\t// in\n    tag_139:\n        /* \"#utility.yul\":4851:4970   */\n    tag_138:\n        /* \"#utility.yul\":5037:5038   */\n      0x00\n        /* \"#utility.yul\":5026:5035   */\n      dup3\n        /* \"#utility.yul\":5022:5039   */\n      add\n        /* \"#utility.yul\":5009:5040   */\n      calldataload\n        /* \"#utility.yul\":5067:5085   */\n      0xffffffffffffffff\n        /* \"#utility.yul\":5059:5065   */\n      dup2\n        /* \"#utility.yul\":5056:5086   */\n      gt\n        /* \"#utility.yul\":5053:5170   */\n      iszero\n      tag_140\n      jumpi\n        /* \"#utility.yul\":5089:5168   */\n      tag_141\n      tag_55\n      jump\t// in\n    tag_141:\n        /* \"#utility.yul\":5053:5170   */\n    tag_140:\n        /* \"#utility.yul\":5194:5257   */\n      tag_142\n        /* \"#utility.yul\":5249:5256   */\n      dup5\n        /* \"#utility.yul\":5240:5246   */\n      dup3\n        /* \"#utility.yul\":5229:5238   */\n      dup6\n        /* \"#utility.yul\":5225:5247   */\n      add\n        /* \"#utility.yul\":5194:5257   */\n      tag_68\n      jump\t// in\n    tag_142:\n        /* \"#utility.yul\":5184:5257   */\n      swap2\n      pop\n        /* \"#utility.yul\":4980:5267   */\n      pop\n        /* \"#utility.yul\":4765:5274   */\n      swap3\n      swap2\n      pop\n      pop\n      jump\t// out\n        /* \"#utility.yul\":5280:5609   */\n    tag_34:\n        /* \"#utility.yul\":5339:5345   */\n      0x00\n        /* \"#utility.yul\":5388:5390   */\n      0x20\n        /* \"#utility.yul\":5376:5385   */\n      dup3\n        /* \"#utility.yul\":5367:5374   */\n      dup5\n        /* \"#utility.yul\":5363:5386   */\n      sub\n        /* \"#utility.yul\":5359:5391   */\n      slt\n        /* \"#utility.yul\":5356:5475   */\n      iszero\n      tag_144\n      jumpi\n        /* \"#utility.yul\":5394:5473   */\n      tag_145\n      tag_54\n      jump\t// in\n    tag_145:\n        /* \"#utility.yul\":5356:5475   */\n    tag_144:\n        /* \"#utility.yul\":5514:5515   */\n      0x00\n        /* \"#utility.yul\":5539:5592   */\n      tag_146\n        /* \"#utility.yul\":5584:5591   */\n      dup5\n        /* \"#utility.yul\":5575:5581   */\n      dup3\n        /* \"#utility.yul\":5564:5573   */\n      dup6\n        /* \"#utility.yul\":5560:5582   */\n      add\n        /* \"#utility.yul\":5539:5592   */\n      tag_58\n      jump\t// in\n    tag_146:\n        /* \"#utility.yul\":5529:5592   */\n      swap2\n      pop\n        /* \"#utility.yul\":5485:5602   */\n      pop\n        /* \"#utility.yul\":5280:5609   */\n      swap3\n      swap2\n      pop\n      pop\n      jump\t// out\n        /* \"#utility.yul\":5615:5795   */\n    tag_74:\n        /* \"#utility.yul\":5663:5740   */\n      0x4e487b7100000000000000000000000000000000000000000000000000000000\n        /* \"#utility.yul\":5660:5661   */\n      0x00\n        /* \"#utility.yul\":5653:5741   */\n      mstore\n        /* \"#utility.yul\":5760:5764   */\n      0x11\n        /* \"#utility.yul\":5757:5758   */\n      0x04\n        /* \"#utility.yul\":5750:5765   */\n      mstore\n        /* \"#utility.yul\":5784:5788   */\n      0x24\n        /* \"#utility.yul\":5781:5782   */\n      0x00\n        /* \"#utility.yul\":5774:5789   */\n      revert\n        /* \"#utility.yul\":5801:6211   */\n    tag_46:\n        /* \"#utility.yul\":5841:5848   */\n      0x00\n        /* \"#utility.yul\":5864:5884   */\n      tag_149\n        /* \"#utility.yul\":5882:5883   */\n      dup3\n        /* \"#utility.yul\":5864:5884   */\n      tag_56\n      jump\t// in\n    tag_149:\n        /* \"#utility.yul\":5859:5884   */\n      swap2\n      pop\n        /* \"#utility.yul\":5898:5918   */\n      tag_150\n        /* \"#utility.yul\":5916:5917   */\n      dup4\n        /* \"#utility.yul\":5898:5918   */\n      tag_56\n      jump\t// in\n    tag_150:\n        /* \"#utility.yul\":5893:5918   */\n      swap3\n      pop\n        /* \"#utility.yul\":5953:5954   */\n      dup3\n        /* \"#utility.yul\":5950:5951   */\n      dup3\n        /* \"#utility.yul\":5946:5955   */\n      mul\n        /* \"#utility.yul\":5975:6005   */\n      tag_151\n        /* \"#utility.yul\":5993:6004   */\n      dup2\n        /* \"#utility.yul\":5975:6005   */\n      tag_56\n      jump\t// in\n    tag_151:\n        /* \"#utility.yul\":5964:6005   */\n      swap2\n      pop\n        /* \"#utility.yul\":6154:6155   */\n      dup3\n        /* \"#utility.yul\":6145:6152   */\n      dup3\n        /* \"#utility.yul\":6141:6156   */\n      div\n        /* \"#utility.yul\":6138:6139   */\n      dup5\n        /* \"#utility.yul\":6135:6157   */\n      eq\n        /* \"#utility.yul\":6115:6116   */\n      dup4\n        /* \"#utility.yul\":6108:6117   */\n      iszero\n        /* \"#utility.yul\":6088:6171   */\n      or\n        /* \"#utility.yul\":6065:6204   */\n      tag_152\n      jumpi\n        /* \"#utility.yul\":6184:6202   */\n      tag_153\n      tag_74\n      jump\t// in\n    tag_153:\n        /* \"#utility.yul\":6065:6204   */\n    tag_152:\n        /* \"#utility.yul\":5849:6211   */\n      pop\n        /* \"#utility.yul\":5801:6211   */\n      swap3\n      swap2\n      pop\n      pop\n      jump\t// out\n        /* \"#utility.yul\":6217:6386   */\n    tag_75:\n        /* \"#utility.yul\":6301:6312   */\n      0x00\n        /* \"#utility.yul\":6335:6341   */\n      dup3\n        /* \"#utility.yul\":6330:6333   */\n      dup3\n        /* \"#utility.yul\":6323:6342   */\n      mstore\n        /* \"#utility.yul\":6375:6379   */\n      0x20\n        /* \"#utility.yul\":6370:6373   */\n      dup3\n        /* \"#utility.yul\":6366:6380   */\n      add\n        /* \"#utility.yul\":6351:6380   */\n      swap1\n      pop\n        /* \"#utility.yul\":6217:6386   */\n      swap3\n      swap2\n      pop\n      pop\n      jump\t// out\n        /* \"#utility.yul\":6392:6617   */\n    tag_76:\n        /* \"#utility.yul\":6532:6566   */\n      0x496e73756666696369656e742062616c616e636520746f207374617274207468\n        /* \"#utility.yul\":6528:6529   */\n      0x00\n        /* \"#utility.yul\":6520:6526   */\n      dup3\n        /* \"#utility.yul\":6516:6530   */\n      add\n        /* \"#utility.yul\":6509:6567   */\n      mstore\n        /* \"#utility.yul\":6601:6609   */\n      0x652067616d650000000000000000000000000000000000000000000000000000\n        /* \"#utility.yul\":6596:6598   */\n      0x20\n        /* \"#utility.yul\":6588:6594   */\n      dup3\n        /* \"#utility.yul\":6584:6599   */\n      add\n        /* \"#utility.yul\":6577:6610   */\n      mstore\n        /* \"#utility.yul\":6392:6617   */\n      pop\n      jump\t// out\n        /* \"#utility.yul\":6623:6989   */\n    tag_77:\n        /* \"#utility.yul\":6765:6768   */\n      0x00\n        /* \"#utility.yul\":6786:6853   */\n      tag_157\n        /* \"#utility.yul\":6850:6852   */\n      0x26\n        /* \"#utility.yul\":6845:6848   */\n      dup4\n        /* \"#utility.yul\":6786:6853   */\n      tag_75\n      jump\t// in\n    tag_157:\n        /* \"#utility.yul\":6779:6853   */\n      swap2\n      pop\n        /* \"#utility.yul\":6862:6955   */\n      tag_158\n        /* \"#utility.yul\":6951:6954   */\n      dup3\n        /* \"#utility.yul\":6862:6955   */\n      tag_76\n      jump\t// in\n    tag_158:\n        /* \"#utility.yul\":6980:6982   */\n      0x40\n        /* \"#utility.yul\":6975:6978   */\n      dup3\n        /* \"#utility.yul\":6971:6983   */\n      add\n        /* \"#utility.yul\":6964:6983   */\n      swap1\n      pop\n        /* \"#utility.yul\":6623:6989   */\n      swap2\n      swap1\n      pop\n      jump\t// out\n        /* \"#utility.yul\":6995:7414   */\n    tag_49:\n        /* \"#utility.yul\":7161:7165   */\n      0x00\n        /* \"#utility.yul\":7199:7201   */\n      0x20\n        /* \"#utility.yul\":7188:7197   */\n      dup3\n        /* \"#utility.yul\":7184:7202   */\n      add\n        /* \"#utility.yul\":7176:7202   */\n      swap1\n      pop\n        /* \"#utility.yul\":7248:7257   */\n      dup2\n        /* \"#utility.yul\":7242:7246   */\n      dup2\n        /* \"#utility.yul\":7238:7258   */\n      sub\n        /* \"#utility.yul\":7234:7235   */\n      0x00\n        /* \"#utility.yul\":7223:7232   */\n      dup4\n        /* \"#utility.yul\":7219:7236   */\n      add\n        /* \"#utility.yul\":7212:7259   */\n      mstore\n        /* \"#utility.yul\":7276:7407   */\n      tag_160\n        /* \"#utility.yul\":7402:7406   */\n      dup2\n        /* \"#utility.yul\":7276:7407   */\n      tag_77\n      jump\t// in\n    tag_160:\n        /* \"#utility.yul\":7268:7407   */\n      swap1\n      pop\n        /* \"#utility.yul\":6995:7414   */\n      swap2\n      swap1\n      pop\n      jump\t// out\n        /* \"#utility.yul\":7420:7614   */\n    tag_51:\n        /* \"#utility.yul\":7460:7464   */\n      0x00\n        /* \"#utility.yul\":7480:7500   */\n      tag_162\n        /* \"#utility.yul\":7498:7499   */\n      dup3\n        /* \"#utility.yul\":7480:7500   */\n      tag_56\n      jump\t// in\n    tag_162:\n        /* \"#utility.yul\":7475:7500   */\n      swap2\n      pop\n        /* \"#utility.yul\":7514:7534   */\n      tag_163\n        /* \"#utility.yul\":7532:7533   */\n      dup4\n        /* \"#utility.yul\":7514:7534   */\n      tag_56\n      jump\t// in\n    tag_163:\n        /* \"#utility.yul\":7509:7534   */\n      swap3\n      pop\n        /* \"#utility.yul\":7558:7559   */\n      dup3\n        /* \"#utility.yul\":7555:7556   */\n      dup3\n        /* \"#utility.yul\":7551:7560   */\n      sub\n        /* \"#utility.yul\":7543:7560   */\n      swap1\n      pop\n        /* \"#utility.yul\":7582:7583   */\n      dup2\n        /* \"#utility.yul\":7576:7580   */\n      dup2\n        /* \"#utility.yul\":7573:7584   */\n      gt\n        /* \"#utility.yul\":7570:7607   */\n      iszero\n      tag_164\n      jumpi\n        /* \"#utility.yul\":7587:7605   */\n      tag_165\n      tag_74\n      jump\t// in\n    tag_165:\n        /* \"#utility.yul\":7570:7607   */\n    tag_164:\n        /* \"#utility.yul\":7420:7614   */\n      swap3\n      swap2\n      pop\n      pop\n      jump\t// out\n\n    auxdata: 0xa2646970667358221220d152926fb74baa531ef02eab731390b9c8f3304d0f482788d035b7bd0b18fdff64736f6c634300081a0033\n}\n",
				"bytecode": {
					"linkReferences": {},
					"object": "6080604052348015600e575f80fd5b506106e98061001c5f395ff3fe608060405234801561000f575f80fd5b5060043610610086575f3560e01c80637b38314c116100595780637b38314c146100c4578063d9cb46f0146100f4578063e5ed1d5914610110578063fd7941431461012c57610086565b806308f4ebcb1461008a57806325402e74146100a657806330d7bc38146100b05780636cbc2ded146100ba575b5f80fd5b6100a4600480360381019061009f91906103fb565b61014a565b005b6100ae61014e565b005b6100b8610150565b005b6100c2610152565b005b6100de60048036038101906100d991906104af565b610154565b6040516100eb91906104e9565b60405180910390f35b61010e60048036038101906101099190610502565b610168565b005b61012a60048036038101906101259190610549565b61016b565b005b610134610277565b60405161014191906104e9565b60405180910390f35b5050565b565b565b565b5f602052805f5260405f205f915090505481565b50565b60028161017891906105a1565b5f803373ffffffffffffffffffffffffffffffffffffffff1673ffffffffffffffffffffffffffffffffffffffff1681526020019081526020015f205410156101f6576040517f08c379a00000000000000000000000000000000000000000000000000000000081526004016101ed90610662565b60405180910390fd5b805f803373ffffffffffffffffffffffffffffffffffffffff1673ffffffffffffffffffffffffffffffffffffffff1681526020019081526020015f205f8282546102419190610680565b925050819055507f547c57d3ad5905405de82b8e681b8843daacca1468935c3c7963377aa417946960405160405180910390a150565b5f90565b5f604051905090565b5f80fd5b5f80fd5b5f819050919050565b61029e8161028c565b81146102a8575f80fd5b50565b5f813590506102b981610295565b92915050565b5f80fd5b5f80fd5b5f601f19601f8301169050919050565b7f4e487b71000000000000000000000000000000000000000000000000000000005f52604160045260245ffd5b61030d826102c7565b810181811067ffffffffffffffff8211171561032c5761032b6102d7565b5b80604052505050565b5f61033e61027b565b905061034a8282610304565b919050565b5f67ffffffffffffffff821115610369576103686102d7565b5b610372826102c7565b9050602081019050919050565b828183375f83830152505050565b5f61039f61039a8461034f565b610335565b9050828152602081018484840111156103bb576103ba6102c3565b5b6103c684828561037f565b509392505050565b5f82601f8301126103e2576103e16102bf565b5b81356103f284826020860161038d565b91505092915050565b5f806040838503121561041157610410610284565b5b5f61041e858286016102ab565b925050602083013567ffffffffffffffff81111561043f5761043e610288565b5b61044b858286016103ce565b9150509250929050565b5f73ffffffffffffffffffffffffffffffffffffffff82169050919050565b5f61047e82610455565b9050919050565b61048e81610474565b8114610498575f80fd5b50565b5f813590506104a981610485565b92915050565b5f602082840312156104c4576104c3610284565b5b5f6104d18482850161049b565b91505092915050565b6104e38161028c565b82525050565b5f6020820190506104fc5f8301846104da565b92915050565b5f6020828403121561051757610516610284565b5b5f82013567ffffffffffffffff81111561053457610533610288565b5b610540848285016103ce565b91505092915050565b5f6020828403121561055e5761055d610284565b5b5f61056b848285016102ab565b91505092915050565b7f4e487b71000000000000000000000000000000000000000000000000000000005f52601160045260245ffd5b5f6105ab8261028c565b91506105b68361028c565b92508282026105c48161028c565b915082820484148315176105db576105da610574565b5b5092915050565b5f82825260208201905092915050565b7f496e73756666696369656e742062616c616e636520746f2073746172742074685f8201527f652067616d650000000000000000000000000000000000000000000000000000602082015250565b5f61064c6026836105e2565b9150610657826105f2565b604082019050919050565b5f6020820190508181035f83015261067981610640565b9050919050565b5f61068a8261028c565b91506106958361028c565b92508282039050818111156106ad576106ac610574565b5b9291505056fea2646970667358221220d152926fb74baa531ef02eab731390b9c8f3304d0f482788d035b7bd0b18fdff64736f6c634300081a0033",
					"opcodes": "PUSH1 0x80 PUSH1 0x40 MSTORE CALLVALUE DUP1 ISZERO PUSH1 0xE JUMPI PUSH0 DUP1 REVERT JUMPDEST POP PUSH2 0x6E9 DUP1 PUSH2 0x1C PUSH0 CODECOPY PUSH0 RETURN INVALID PUSH1 0x80 PUSH1 0x40 MSTORE CALLVALUE DUP1 ISZERO PUSH2 0xF JUMPI PUSH0 DUP1 REVERT JUMPDEST POP PUSH1 0x4 CALLDATASIZE LT PUSH2 0x86 JUMPI PUSH0 CALLDATALOAD PUSH1 0xE0 SHR DUP1 PUSH4 0x7B38314C GT PUSH2 0x59 JUMPI DUP1 PUSH4 0x7B38314C EQ PUSH2 0xC4 JUMPI DUP1 PUSH4 0xD9CB46F0 EQ PUSH2 0xF4 JUMPI DUP1 PUSH4 0xE5ED1D59 EQ PUSH2 0x110 JUMPI DUP1 PUSH4 0xFD794143 EQ PUSH2 0x12C JUMPI PUSH2 0x86 JUMP JUMPDEST DUP1 PUSH4 0x8F4EBCB EQ PUSH2 0x8A JUMPI DUP1 PUSH4 0x25402E74 EQ PUSH2 0xA6 JUMPI DUP1 PUSH4 0x30D7BC38 EQ PUSH2 0xB0 JUMPI DUP1 PUSH4 0x6CBC2DED EQ PUSH2 0xBA JUMPI JUMPDEST PUSH0 DUP1 REVERT JUMPDEST PUSH2 0xA4 PUSH1 0x4 DUP1 CALLDATASIZE SUB DUP2 ADD SWAP1 PUSH2 0x9F SWAP2 SWAP1 PUSH2 0x3FB JUMP JUMPDEST PUSH2 0x14A JUMP JUMPDEST STOP JUMPDEST PUSH2 0xAE PUSH2 0x14E JUMP JUMPDEST STOP JUMPDEST PUSH2 0xB8 PUSH2 0x150 JUMP JUMPDEST STOP JUMPDEST PUSH2 0xC2 PUSH2 0x152 JUMP JUMPDEST STOP JUMPDEST PUSH2 0xDE PUSH1 0x4 DUP1 CALLDATASIZE SUB DUP2 ADD SWAP1 PUSH2 0xD9 SWAP2 SWAP1 PUSH2 0x4AF JUMP JUMPDEST PUSH2 0x154 JUMP JUMPDEST PUSH1 0x40 MLOAD PUSH2 0xEB SWAP2 SWAP1 PUSH2 0x4E9 JUMP JUMPDEST PUSH1 0x40 MLOAD DUP1 SWAP2 SUB SWAP1 RETURN JUMPDEST PUSH2 0x10E PUSH1 0x4 DUP1 CALLDATASIZE SUB DUP2 ADD SWAP1 PUSH2 0x109 SWAP2 SWAP1 PUSH2 0x502 JUMP JUMPDEST PUSH2 0x168 JUMP JUMPDEST STOP JUMPDEST PUSH2 0x12A PUSH1 0x4 DUP1 CALLDATASIZE SUB DUP2 ADD SWAP1 PUSH2 0x125 SWAP2 SWAP1 PUSH2 0x549 JUMP JUMPDEST PUSH2 0x16B JUMP JUMPDEST STOP JUMPDEST PUSH2 0x134 PUSH2 0x277 JUMP JUMPDEST PUSH1 0x40 MLOAD PUSH2 0x141 SWAP2 SWAP1 PUSH2 0x4E9 JUMP JUMPDEST PUSH1 0x40 MLOAD DUP1 SWAP2 SUB SWAP1 RETURN JUMPDEST POP POP JUMP JUMPDEST JUMP JUMPDEST JUMP JUMPDEST JUMP JUMPDEST PUSH0 PUSH1 0x20 MSTORE DUP1 PUSH0 MSTORE PUSH1 0x40 PUSH0 KECCAK256 PUSH0 SWAP2 POP SWAP1 POP SLOAD DUP2 JUMP JUMPDEST POP JUMP JUMPDEST PUSH1 0x2 DUP2 PUSH2 0x178 SWAP2 SWAP1 PUSH2 0x5A1 JUMP JUMPDEST PUSH0 DUP1 CALLER PUSH20 0xFFFFFFFFFFFFFFFFFFFFFFFFFFFFFFFFFFFFFFFF AND PUSH20 0xFFFFFFFFFFFFFFFFFFFFFFFFFFFFFFFFFFFFFFFF AND DUP2 MSTORE PUSH1 0x20 ADD SWAP1 DUP2 MSTORE PUSH1 0x20 ADD PUSH0 KECCAK256 SLOAD LT ISZERO PUSH2 0x1F6 JUMPI PUSH1 0x40 MLOAD PUSH32 0x8C379A000000000000000000000000000000000000000000000000000000000 DUP2 MSTORE PUSH1 0x4 ADD PUSH2 0x1ED SWAP1 PUSH2 0x662 JUMP JUMPDEST PUSH1 0x40 MLOAD DUP1 SWAP2 SUB SWAP1 REVERT JUMPDEST DUP1 PUSH0 DUP1 CALLER PUSH20 0xFFFFFFFFFFFFFFFFFFFFFFFFFFFFFFFFFFFFFFFF AND PUSH20 0xFFFFFFFFFFFFFFFFFFFFFFFFFFFFFFFFFFFFFFFF AND DUP2 MSTORE PUSH1 0x20 ADD SWAP1 DUP2 MSTORE PUSH1 0x20 ADD PUSH0 KECCAK256 PUSH0 DUP3 DUP3 SLOAD PUSH2 0x241 SWAP2 SWAP1 PUSH2 0x680 JUMP JUMPDEST SWAP3 POP POP DUP2 SWAP1 SSTORE POP PUSH32 0x547C57D3AD5905405DE82B8E681B8843DAACCA1468935C3C7963377AA4179469 PUSH1 0x40 MLOAD PUSH1 0x40 MLOAD DUP1 SWAP2 SUB SWAP1 LOG1 POP JUMP JUMPDEST PUSH0 SWAP1 JUMP JUMPDEST PUSH0 PUSH1 0x40 MLOAD SWAP1 POP SWAP1 JUMP JUMPDEST PUSH0 DUP1 REVERT JUMPDEST PUSH0 DUP1 REVERT JUMPDEST PUSH0 DUP2 SWAP1 POP SWAP2 SWAP1 POP JUMP JUMPDEST PUSH2 0x29E DUP2 PUSH2 0x28C JUMP JUMPDEST DUP2 EQ PUSH2 0x2A8 JUMPI PUSH0 DUP1 REVERT JUMPDEST POP JUMP JUMPDEST PUSH0 DUP2 CALLDATALOAD SWAP1 POP PUSH2 0x2B9 DUP2 PUSH2 0x295 JUMP JUMPDEST SWAP3 SWAP2 POP POP JUMP JUMPDEST PUSH0 DUP1 REVERT JUMPDEST PUSH0 DUP1 REVERT JUMPDEST PUSH0 PUSH1 0x1F NOT PUSH1 0x1F DUP4 ADD AND SWAP1 POP SWAP2 SWAP1 POP JUMP JUMPDEST PUSH32 0x4E487B7100000000000000000000000000000000000000000000000000000000 PUSH0 MSTORE PUSH1 0x41 PUSH1 0x4 MSTORE PUSH1 0x24 PUSH0 REVERT JUMPDEST PUSH2 0x30D DUP3 PUSH2 0x2C7 JUMP JUMPDEST DUP2 ADD DUP2 DUP2 LT PUSH8 0xFFFFFFFFFFFFFFFF DUP3 GT OR ISZERO PUSH2 0x32C JUMPI PUSH2 0x32B PUSH2 0x2D7 JUMP JUMPDEST JUMPDEST DUP1 PUSH1 0x40 MSTORE POP POP POP JUMP JUMPDEST PUSH0 PUSH2 0x33E PUSH2 0x27B JUMP JUMPDEST SWAP1 POP PUSH2 0x34A DUP3 DUP3 PUSH2 0x304 JUMP JUMPDEST SWAP2 SWAP1 POP JUMP JUMPDEST PUSH0 PUSH8 0xFFFFFFFFFFFFFFFF DUP3 GT ISZERO PUSH2 0x369 JUMPI PUSH2 0x368 PUSH2 0x2D7 JUMP JUMPDEST JUMPDEST PUSH2 0x372 DUP3 PUSH2 0x2C7 JUMP JUMPDEST SWAP1 POP PUSH1 0x20 DUP2 ADD SWAP1 POP SWAP2 SWAP1 POP JUMP JUMPDEST DUP3 DUP2 DUP4 CALLDATACOPY PUSH0 DUP4 DUP4 ADD MSTORE POP POP POP JUMP JUMPDEST PUSH0 PUSH2 0x39F PUSH2 0x39A DUP5 PUSH2 0x34F JUMP JUMPDEST PUSH2 0x335 JUMP JUMPDEST SWAP1 POP DUP3 DUP2 MSTORE PUSH1 0x20 DUP2 ADD DUP5 DUP5 DUP5 ADD GT ISZERO PUSH2 0x3BB JUMPI PUSH2 0x3BA PUSH2 0x2C3 JUMP JUMPDEST JUMPDEST PUSH2 0x3C6 DUP5 DUP3 DUP6 PUSH2 0x37F JUMP JUMPDEST POP SWAP4 SWAP3 POP POP POP JUMP JUMPDEST PUSH0 DUP3 PUSH1 0x1F DUP4 ADD SLT PUSH2 0x3E2 JUMPI PUSH2 0x3E1 PUSH2 0x2BF JUMP JUMPDEST JUMPDEST DUP2 CALLDATALOAD PUSH2 0x3F2 DUP5 DUP3 PUSH1 0x20 DUP7 ADD PUSH2 0x38D JUMP JUMPDEST SWAP2 POP POP SWAP3 SWAP2 POP POP JUMP JUMPDEST PUSH0 DUP1 PUSH1 0x40 DUP4 DUP6 SUB SLT ISZERO PUSH2 0x411 JUMPI PUSH2 0x410 PUSH2 0x284 JUMP JUMPDEST JUMPDEST PUSH0 PUSH2 0x41E DUP6 DUP3 DUP7 ADD PUSH2 0x2AB JUMP JUMPDEST SWAP3 POP POP PUSH1 0x20 DUP4 ADD CALLDATALOAD PUSH8 0xFFFFFFFFFFFFFFFF DUP2 GT ISZERO PUSH2 0x43F JUMPI PUSH2 0x43E PUSH2 0x288 JUMP JUMPDEST JUMPDEST PUSH2 0x44B DUP6 DUP3 DUP7 ADD PUSH2 0x3CE JUMP JUMPDEST SWAP2 POP POP SWAP3 POP SWAP3 SWAP1 POP JUMP JUMPDEST PUSH0 PUSH20 0xFFFFFFFFFFFFFFFFFFFFFFFFFFFFFFFFFFFFFFFF DUP3 AND SWAP1 POP SWAP2 SWAP1 POP JUMP JUMPDEST PUSH0 PUSH2 0x47E DUP3 PUSH2 0x455 JUMP JUMPDEST SWAP1 POP SWAP2 SWAP1 POP JUMP JUMPDEST PUSH2 0x48E DUP2 PUSH2 0x474 JUMP JUMPDEST DUP2 EQ PUSH2 0x498 JUMPI PUSH0 DUP1 REVERT JUMPDEST POP JUMP JUMPDEST PUSH0 DUP2 CALLDATALOAD SWAP1 POP PUSH2 0x4A9 DUP2 PUSH2 0x485 JUMP JUMPDEST SWAP3 SWAP2 POP POP JUMP JUMPDEST PUSH0 PUSH1 0x20 DUP3 DUP5 SUB SLT ISZERO PUSH2 0x4C4 JUMPI PUSH2 0x4C3 PUSH2 0x284 JUMP JUMPDEST JUMPDEST PUSH0 PUSH2 0x4D1 DUP5 DUP3 DUP6 ADD PUSH2 0x49B JUMP JUMPDEST SWAP2 POP POP SWAP3 SWAP2 POP POP JUMP JUMPDEST PUSH2 0x4E3 DUP2 PUSH2 0x28C JUMP JUMPDEST DUP3 MSTORE POP POP JUMP JUMPDEST PUSH0 PUSH1 0x20 DUP3 ADD SWAP1 POP PUSH2 0x4FC PUSH0 DUP4 ADD DUP5 PUSH2 0x4DA JUMP JUMPDEST SWAP3 SWAP2 POP POP JUMP JUMPDEST PUSH0 PUSH1 0x20 DUP3 DUP5 SUB SLT ISZERO PUSH2 0x517 JUMPI PUSH2 0x516 PUSH2 0x284 JUMP JUMPDEST JUMPDEST PUSH0 DUP3 ADD CALLDATALOAD PUSH8 0xFFFFFFFFFFFFFFFF DUP2 GT ISZERO PUSH2 0x534 JUMPI PUSH2 0x533 PUSH2 0x288 JUMP JUMPDEST JUMPDEST PUSH2 0x540 DUP5 DUP3 DUP6 ADD PUSH2 0x3CE JUMP JUMPDEST SWAP2 POP POP SWAP3 SWAP2 POP POP JUMP JUMPDEST PUSH0 PUSH1 0x20 DUP3 DUP5 SUB SLT ISZERO PUSH2 0x55E JUMPI PUSH2 0x55D PUSH2 0x284 JUMP JUMPDEST JUMPDEST PUSH0 PUSH2 0x56B DUP5 DUP3 DUP6 ADD PUSH2 0x2AB JUMP JUMPDEST SWAP2 POP POP SWAP3 SWAP2 POP POP JUMP JUMPDEST PUSH32 0x4E487B7100000000000000000000000000000000000000000000000000000000 PUSH0 MSTORE PUSH1 0x11 PUSH1 0x4 MSTORE PUSH1 0x24 PUSH0 REVERT JUMPDEST PUSH0 PUSH2 0x5AB DUP3 PUSH2 0x28C JUMP JUMPDEST SWAP2 POP PUSH2 0x5B6 DUP4 PUSH2 0x28C JUMP JUMPDEST SWAP3 POP DUP3 DUP3 MUL PUSH2 0x5C4 DUP2 PUSH2 0x28C JUMP JUMPDEST SWAP2 POP DUP3 DUP3 DIV DUP5 EQ DUP4 ISZERO OR PUSH2 0x5DB JUMPI PUSH2 0x5DA PUSH2 0x574 JUMP JUMPDEST JUMPDEST POP SWAP3 SWAP2 POP POP JUMP JUMPDEST PUSH0 DUP3 DUP3 MSTORE PUSH1 0x20 DUP3 ADD SWAP1 POP SWAP3 SWAP2 POP POP JUMP JUMPDEST PUSH32 0x496E73756666696369656E742062616C616E636520746F207374617274207468 PUSH0 DUP3 ADD MSTORE PUSH32 0x652067616D650000000000000000000000000000000000000000000000000000 PUSH1 0x20 DUP3 ADD MSTORE POP JUMP JUMPDEST PUSH0 PUSH2 0x64C PUSH1 0x26 DUP4 PUSH2 0x5E2 JUMP JUMPDEST SWAP2 POP PUSH2 0x657 DUP3 PUSH2 0x5F2 JUMP JUMPDEST PUSH1 0x40 DUP3 ADD SWAP1 POP SWAP2 SWAP1 POP JUMP JUMPDEST PUSH0 PUSH1 0x20 DUP3 ADD SWAP1 POP DUP2 DUP2 SUB PUSH0 DUP4 ADD MSTORE PUSH2 0x679 DUP2 PUSH2 0x640 JUMP JUMPDEST SWAP1 POP SWAP2 SWAP1 POP JUMP JUMPDEST PUSH0 PUSH2 0x68A DUP3 PUSH2 0x28C JUMP JUMPDEST SWAP2 POP PUSH2 0x695 DUP4 PUSH2 0x28C JUMP JUMPDEST SWAP3 POP DUP3 DUP3 SUB SWAP1 POP DUP2 DUP2 GT ISZERO PUSH2 0x6AD JUMPI PUSH2 0x6AC PUSH2 0x574 JUMP JUMPDEST JUMPDEST SWAP3 SWAP2 POP POP JUMP INVALID LOG2 PUSH5 0x6970667358 0x22 SLT KECCAK256 0xD1 MSTORE SWAP3 PUSH16 0xB74BAA531EF02EAB731390B9C8F3304D 0xF BASEFEE 0x27 DUP9 0xD0 CALLDATALOAD 0xB7 0xBD SIGNEXTEND XOR REVERT SELFDESTRUCT PUSH5 0x736F6C6343 STOP ADDMOD BYTE STOP CALLER "
				},
				"gasEstimates": {
					"creation": {
						"codeDepositCost": "353800",
						"executionCost": "391",
						"totalCost": "354191"
					},
					"external": {
						"blackjackOrBust(uint256,string)": "infinite",
						"calculateHandValue()": "390",
						"dealerAction()": "188",
						"decideWinner()": "166",
						"endGame()": "210",
						"playerAction(string)": "infinite",
						"playerBalances(address)": "2801",
						"startGame(uint256)": "infinite"
					}
				},
				"methodIdentifiers": {
					"blackjackOrBust(uint256,string)": "08f4ebcb",
					"calculateHandValue()": "fd794143",
					"dealerAction()": "30d7bc38",
					"decideWinner()": "25402e74",
					"endGame()": "6cbc2ded",
					"playerAction(string)": "d9cb46f0",
					"playerBalances(address)": "7b38314c",
					"startGame(uint256)": "e5ed1d59"
				}
			},
			"storageLayout": {
				"storage": [
					{
						"astId": 8,
						"contract": "contracts/blackjack.sol:Blackjack",
						"label": "playerBalances",
						"offset": 0,
						"slot": "0",
						"type": "t_mapping(t_address,t_uint256)"
					}
				],
				"types": {
					"t_address": {
						"encoding": "inplace",
						"label": "address",
						"numberOfBytes": "20"
					},
					"t_mapping(t_address,t_uint256)": {
						"encoding": "mapping",
						"key": "t_address",
						"label": "mapping(address => uint256)",
						"numberOfBytes": "32",
						"value": "t_uint256"
					},
					"t_uint256": {
						"encoding": "inplace",
						"label": "uint256",
						"numberOfBytes": "32"
					}
				}
			},
			"userdoc": {
				"kind": "user",
				"methods": {},
				"version": 1
			}
		}
	}
}