{
	"contracts/blackjack.sol": {
		"Blackjack": {
			"abi": [
				{
					"anonymous": false,
					"inputs": [],
					"name": "handValueUpdated",
					"type": "event"
				},
				{
					"inputs": [
						{
							"internalType": "uint256",
							"name": "handSum",
							"type": "uint256"
						},
						{
							"internalType": "string",
							"name": "playerType",
							"type": "string"
						}
					],
					"name": "blackjackOrBust",
					"outputs": [],
					"stateMutability": "nonpayable",
					"type": "function"
				},
				{
					"inputs": [],
					"name": "calculateHandValue",
					"outputs": [
						{
							"internalType": "uint256",
							"name": "",
							"type": "uint256"
						}
					],
					"stateMutability": "view",
					"type": "function"
				},
				{
					"inputs": [],
					"name": "dealerAction",
					"outputs": [],
					"stateMutability": "nonpayable",
					"type": "function"
				},
				{
					"inputs": [],
					"name": "decideWinner",
					"outputs": [],
					"stateMutability": "nonpayable",
					"type": "function"
				},
				{
					"inputs": [],
					"name": "endGame",
					"outputs": [],
					"stateMutability": "nonpayable",
					"type": "function"
				},
				{
					"inputs": [
						{
							"internalType": "string",
							"name": "action",
							"type": "string"
						}
					],
					"name": "playerAction",
					"outputs": [],
					"stateMutability": "nonpayable",
					"type": "function"
				},
				{
					"inputs": [
						{
							"internalType": "uint256",
							"name": "betAmount",
							"type": "uint256"
						}
					],
					"name": "startGame",
					"outputs": [],
					"stateMutability": "nonpayable",
					"type": "function"
				}
			],
			"devdoc": {
				"kind": "dev",
				"methods": {},
				"version": 1
			},
			"evm": {
				"assembly": "    /* \"contracts/blackjack.sol\":110:2696  contract Blackjack is BlackjackInterface { ... */\n  mstore(0x40, 0x80)\n  callvalue\n  dup1\n  iszero\n  tag_1\n  jumpi\n  0x00\n  dup1\n  revert\ntag_1:\n  pop\n  dataSize(sub_0)\n  dup1\n  dataOffset(sub_0)\n  0x00\n  codecopy\n  0x00\n  return\nstop\n\nsub_0: assembly {\n        /* \"contracts/blackjack.sol\":110:2696  contract Blackjack is BlackjackInterface { ... */\n      mstore(0x40, 0x80)\n      callvalue\n      dup1\n      iszero\n      tag_1\n      jumpi\n      0x00\n      dup1\n      revert\n    tag_1:\n      pop\n      jumpi(tag_2, lt(calldatasize, 0x04))\n      shr(0xe0, calldataload(0x00))\n      dup1\n      0x6cbc2ded\n      gt\n      tag_10\n      jumpi\n      dup1\n      0x6cbc2ded\n      eq\n      tag_6\n      jumpi\n      dup1\n      0xd9cb46f0\n      eq\n      tag_7\n      jumpi\n      dup1\n      0xe5ed1d59\n      eq\n      tag_8\n      jumpi\n      dup1\n      0xfd794143\n      eq\n      tag_9\n      jumpi\n      jump(tag_2)\n    tag_10:\n      dup1\n      0x08f4ebcb\n      eq\n      tag_3\n      jumpi\n      dup1\n      0x25402e74\n      eq\n      tag_4\n      jumpi\n      dup1\n      0x30d7bc38\n      eq\n      tag_5\n      jumpi\n    tag_2:\n      0x00\n      dup1\n      revert\n        /* \"contracts/blackjack.sol\":1728:1812  function blackjackOrBust(uint handSum, string memory playerType) external {... */\n    tag_3:\n      tag_11\n      0x04\n      dup1\n      calldatasize\n      sub\n      dup2\n      add\n      swap1\n      tag_12\n      swap2\n      swap1\n      tag_13\n      jump\t// in\n    tag_12:\n      tag_14\n      jump\t// in\n    tag_11:\n      stop\n        /* \"contracts/blackjack.sol\":2071:2114  function decideWinner() external {... */\n    tag_4:\n      tag_15\n      tag_16\n      jump\t// in\n    tag_15:\n      stop\n        /* \"contracts/blackjack.sol\":1403:1446  function dealerAction() external {... */\n    tag_5:\n      tag_17\n      tag_18\n      jump\t// in\n    tag_17:\n      stop\n        /* \"contracts/blackjack.sol\":2430:2468  function endGame() external {... */\n    tag_6:\n      tag_19\n      tag_20\n      jump\t// in\n    tag_19:\n      stop\n        /* \"contracts/blackjack.sol\":850:1271  function playerAction(string memory action) external { // apparently the only want to compare memory strings to a regular string is through keccack256... */\n    tag_7:\n      tag_21\n      0x04\n      dup1\n      calldatasize\n      sub\n      dup2\n      add\n      swap1\n      tag_22\n      swap2\n      swap1\n      tag_23\n      jump\t// in\n    tag_22:\n      tag_24\n      jump\t// in\n    tag_21:\n      stop\n        /* \"contracts/blackjack.sol\":264:617  function startGame(uint betAmount) external {... */\n    tag_8:\n      tag_25\n      0x04\n      dup1\n      calldatasize\n      sub\n      dup2\n      add\n      swap1\n      tag_26\n      swap2\n      swap1\n      tag_27\n      jump\t// in\n    tag_26:\n      tag_28\n      jump\t// in\n    tag_25:\n      stop\n        /* \"contracts/blackjack.sol\":2476:2691  function calculateHandValue() external view returns(uint) { // function to calculate hand value; might need to make a random number generator 1-10 ... */\n    tag_9:\n      tag_29\n      tag_30\n      jump\t// in\n    tag_29:\n      mload(0x40)\n      tag_31\n      swap2\n      swap1\n      tag_32\n      jump\t// in\n    tag_31:\n      mload(0x40)\n      dup1\n      swap2\n      sub\n      swap1\n      return\n        /* \"contracts/blackjack.sol\":1728:1812  function blackjackOrBust(uint handSum, string memory playerType) external {... */\n    tag_14:\n      pop\n      pop\n      jump\t// out\n        /* \"contracts/blackjack.sol\":2071:2114  function decideWinner() external {... */\n    tag_16:\n      jump\t// out\n        /* \"contracts/blackjack.sol\":1403:1446  function dealerAction() external {... */\n    tag_18:\n      jump\t// out\n        /* \"contracts/blackjack.sol\":2430:2468  function endGame() external {... */\n    tag_20:\n      jump\t// out\n        /* \"contracts/blackjack.sol\":850:1271  function playerAction(string memory action) external { // apparently the only want to compare memory strings to a regular string is through keccack256... */\n    tag_24:\n      pop\n      jump\t// out\n        /* \"contracts/blackjack.sol\":264:617  function startGame(uint betAmount) external {... */\n    tag_28:\n        /* \"contracts/blackjack.sol\":544:562  handValueUpdated() */\n      0x547c57d3ad5905405de82b8e681b8843daacca1468935c3c7963377aa4179469\n      mload(0x40)\n      mload(0x40)\n      dup1\n      swap2\n      sub\n      swap1\n      log1\n        /* \"contracts/blackjack.sol\":264:617  function startGame(uint betAmount) external {... */\n      pop\n      jump\t// out\n        /* \"contracts/blackjack.sol\":2476:2691  function calculateHandValue() external view returns(uint) { // function to calculate hand value; might need to make a random number generator 1-10 ... */\n    tag_30:\n        /* \"contracts/blackjack.sol\":2528:2532  uint */\n      0x00\n        /* \"contracts/blackjack.sol\":2476:2691  function calculateHandValue() external view returns(uint) { // function to calculate hand value; might need to make a random number generator 1-10 ... */\n      swap1\n      jump\t// out\n        /* \"#utility.yul\":7:82   */\n    tag_40:\n        /* \"#utility.yul\":40:46   */\n      0x00\n        /* \"#utility.yul\":73:75   */\n      0x40\n        /* \"#utility.yul\":67:76   */\n      mload\n        /* \"#utility.yul\":57:76   */\n      swap1\n      pop\n        /* \"#utility.yul\":7:82   */\n      swap1\n      jump\t// out\n        /* \"#utility.yul\":88:205   */\n    tag_41:\n        /* \"#utility.yul\":197:198   */\n      0x00\n        /* \"#utility.yul\":194:195   */\n      dup1\n        /* \"#utility.yul\":187:199   */\n      revert\n        /* \"#utility.yul\":211:328   */\n    tag_42:\n        /* \"#utility.yul\":320:321   */\n      0x00\n        /* \"#utility.yul\":317:318   */\n      dup1\n        /* \"#utility.yul\":310:322   */\n      revert\n        /* \"#utility.yul\":334:411   */\n    tag_43:\n        /* \"#utility.yul\":371:378   */\n      0x00\n        /* \"#utility.yul\":400:405   */\n      dup2\n        /* \"#utility.yul\":389:405   */\n      swap1\n      pop\n        /* \"#utility.yul\":334:411   */\n      swap2\n      swap1\n      pop\n      jump\t// out\n        /* \"#utility.yul\":417:539   */\n    tag_44:\n        /* \"#utility.yul\":490:514   */\n      tag_63\n        /* \"#utility.yul\":508:513   */\n      dup2\n        /* \"#utility.yul\":490:514   */\n      tag_43\n      jump\t// in\n    tag_63:\n        /* \"#utility.yul\":483:488   */\n      dup2\n        /* \"#utility.yul\":480:515   */\n      eq\n        /* \"#utility.yul\":470:533   */\n      tag_64\n      jumpi\n        /* \"#utility.yul\":529:530   */\n      0x00\n        /* \"#utility.yul\":526:527   */\n      dup1\n        /* \"#utility.yul\":519:531   */\n      revert\n        /* \"#utility.yul\":470:533   */\n    tag_64:\n        /* \"#utility.yul\":417:539   */\n      pop\n      jump\t// out\n        /* \"#utility.yul\":545:684   */\n    tag_45:\n        /* \"#utility.yul\":591:596   */\n      0x00\n        /* \"#utility.yul\":629:635   */\n      dup2\n        /* \"#utility.yul\":616:636   */\n      calldataload\n        /* \"#utility.yul\":607:636   */\n      swap1\n      pop\n        /* \"#utility.yul\":645:678   */\n      tag_66\n        /* \"#utility.yul\":672:677   */\n      dup2\n        /* \"#utility.yul\":645:678   */\n      tag_44\n      jump\t// in\n    tag_66:\n        /* \"#utility.yul\":545:684   */\n      swap3\n      swap2\n      pop\n      pop\n      jump\t// out\n        /* \"#utility.yul\":690:807   */\n    tag_46:\n        /* \"#utility.yul\":799:800   */\n      0x00\n        /* \"#utility.yul\":796:797   */\n      dup1\n        /* \"#utility.yul\":789:801   */\n      revert\n        /* \"#utility.yul\":813:930   */\n    tag_47:\n        /* \"#utility.yul\":922:923   */\n      0x00\n        /* \"#utility.yul\":919:920   */\n      dup1\n        /* \"#utility.yul\":912:924   */\n      revert\n        /* \"#utility.yul\":936:1038   */\n    tag_48:\n        /* \"#utility.yul\":977:983   */\n      0x00\n        /* \"#utility.yul\":1028:1030   */\n      0x1f\n        /* \"#utility.yul\":1024:1031   */\n      not\n        /* \"#utility.yul\":1019:1021   */\n      0x1f\n        /* \"#utility.yul\":1012:1017   */\n      dup4\n        /* \"#utility.yul\":1008:1022   */\n      add\n        /* \"#utility.yul\":1004:1032   */\n      and\n        /* \"#utility.yul\":994:1032   */\n      swap1\n      pop\n        /* \"#utility.yul\":936:1038   */\n      swap2\n      swap1\n      pop\n      jump\t// out\n        /* \"#utility.yul\":1044:1224   */\n    tag_49:\n        /* \"#utility.yul\":1092:1169   */\n      0x4e487b7100000000000000000000000000000000000000000000000000000000\n        /* \"#utility.yul\":1089:1090   */\n      0x00\n        /* \"#utility.yul\":1082:1170   */\n      mstore\n        /* \"#utility.yul\":1189:1193   */\n      0x41\n        /* \"#utility.yul\":1186:1187   */\n      0x04\n        /* \"#utility.yul\":1179:1194   */\n      mstore\n        /* \"#utility.yul\":1213:1217   */\n      0x24\n        /* \"#utility.yul\":1210:1211   */\n      0x00\n        /* \"#utility.yul\":1203:1218   */\n      revert\n        /* \"#utility.yul\":1230:1511   */\n    tag_50:\n        /* \"#utility.yul\":1313:1340   */\n      tag_72\n        /* \"#utility.yul\":1335:1339   */\n      dup3\n        /* \"#utility.yul\":1313:1340   */\n      tag_48\n      jump\t// in\n    tag_72:\n        /* \"#utility.yul\":1305:1311   */\n      dup2\n        /* \"#utility.yul\":1301:1341   */\n      add\n        /* \"#utility.yul\":1443:1449   */\n      dup2\n        /* \"#utility.yul\":1431:1441   */\n      dup2\n        /* \"#utility.yul\":1428:1450   */\n      lt\n        /* \"#utility.yul\":1407:1425   */\n      0xffffffffffffffff\n        /* \"#utility.yul\":1395:1405   */\n      dup3\n        /* \"#utility.yul\":1392:1426   */\n      gt\n        /* \"#utility.yul\":1389:1451   */\n      or\n        /* \"#utility.yul\":1386:1474   */\n      iszero\n      tag_73\n      jumpi\n        /* \"#utility.yul\":1454:1472   */\n      tag_74\n      tag_49\n      jump\t// in\n    tag_74:\n        /* \"#utility.yul\":1386:1474   */\n    tag_73:\n        /* \"#utility.yul\":1494:1504   */\n      dup1\n        /* \"#utility.yul\":1490:1492   */\n      0x40\n        /* \"#utility.yul\":1483:1505   */\n      mstore\n        /* \"#utility.yul\":1273:1511   */\n      pop\n        /* \"#utility.yul\":1230:1511   */\n      pop\n      pop\n      jump\t// out\n        /* \"#utility.yul\":1517:1646   */\n    tag_51:\n        /* \"#utility.yul\":1551:1557   */\n      0x00\n        /* \"#utility.yul\":1578:1598   */\n      tag_76\n      tag_40\n      jump\t// in\n    tag_76:\n        /* \"#utility.yul\":1568:1598   */\n      swap1\n      pop\n        /* \"#utility.yul\":1607:1640   */\n      tag_77\n        /* \"#utility.yul\":1635:1639   */\n      dup3\n        /* \"#utility.yul\":1627:1633   */\n      dup3\n        /* \"#utility.yul\":1607:1640   */\n      tag_50\n      jump\t// in\n    tag_77:\n        /* \"#utility.yul\":1517:1646   */\n      swap2\n      swap1\n      pop\n      jump\t// out\n        /* \"#utility.yul\":1652:1960   */\n    tag_52:\n        /* \"#utility.yul\":1714:1718   */\n      0x00\n        /* \"#utility.yul\":1804:1822   */\n      0xffffffffffffffff\n        /* \"#utility.yul\":1796:1802   */\n      dup3\n        /* \"#utility.yul\":1793:1823   */\n      gt\n        /* \"#utility.yul\":1790:1846   */\n      iszero\n      tag_79\n      jumpi\n        /* \"#utility.yul\":1826:1844   */\n      tag_80\n      tag_49\n      jump\t// in\n    tag_80:\n        /* \"#utility.yul\":1790:1846   */\n    tag_79:\n        /* \"#utility.yul\":1864:1893   */\n      tag_81\n        /* \"#utility.yul\":1886:1892   */\n      dup3\n        /* \"#utility.yul\":1864:1893   */\n      tag_48\n      jump\t// in\n    tag_81:\n        /* \"#utility.yul\":1856:1893   */\n      swap1\n      pop\n        /* \"#utility.yul\":1948:1952   */\n      0x20\n        /* \"#utility.yul\":1942:1946   */\n      dup2\n        /* \"#utility.yul\":1938:1953   */\n      add\n        /* \"#utility.yul\":1930:1953   */\n      swap1\n      pop\n        /* \"#utility.yul\":1652:1960   */\n      swap2\n      swap1\n      pop\n      jump\t// out\n        /* \"#utility.yul\":1966:2114   */\n    tag_53:\n        /* \"#utility.yul\":2064:2070   */\n      dup3\n        /* \"#utility.yul\":2059:2062   */\n      dup2\n        /* \"#utility.yul\":2054:2057   */\n      dup4\n        /* \"#utility.yul\":2041:2071   */\n      calldatacopy\n        /* \"#utility.yul\":2105:2106   */\n      0x00\n        /* \"#utility.yul\":2096:2102   */\n      dup4\n        /* \"#utility.yul\":2091:2094   */\n      dup4\n        /* \"#utility.yul\":2087:2103   */\n      add\n        /* \"#utility.yul\":2080:2107   */\n      mstore\n        /* \"#utility.yul\":1966:2114   */\n      pop\n      pop\n      pop\n      jump\t// out\n        /* \"#utility.yul\":2120:2545   */\n    tag_54:\n        /* \"#utility.yul\":2198:2203   */\n      0x00\n        /* \"#utility.yul\":2223:2289   */\n      tag_84\n        /* \"#utility.yul\":2239:2288   */\n      tag_85\n        /* \"#utility.yul\":2281:2287   */\n      dup5\n        /* \"#utility.yul\":2239:2288   */\n      tag_52\n      jump\t// in\n    tag_85:\n        /* \"#utility.yul\":2223:2289   */\n      tag_51\n      jump\t// in\n    tag_84:\n        /* \"#utility.yul\":2214:2289   */\n      swap1\n      pop\n        /* \"#utility.yul\":2312:2318   */\n      dup3\n        /* \"#utility.yul\":2305:2310   */\n      dup2\n        /* \"#utility.yul\":2298:2319   */\n      mstore\n        /* \"#utility.yul\":2350:2354   */\n      0x20\n        /* \"#utility.yul\":2343:2348   */\n      dup2\n        /* \"#utility.yul\":2339:2355   */\n      add\n        /* \"#utility.yul\":2388:2391   */\n      dup5\n        /* \"#utility.yul\":2379:2385   */\n      dup5\n        /* \"#utility.yul\":2374:2377   */\n      dup5\n        /* \"#utility.yul\":2370:2386   */\n      add\n        /* \"#utility.yul\":2367:2392   */\n      gt\n        /* \"#utility.yul\":2364:2476   */\n      iszero\n      tag_86\n      jumpi\n        /* \"#utility.yul\":2395:2474   */\n      tag_87\n      tag_47\n      jump\t// in\n    tag_87:\n        /* \"#utility.yul\":2364:2476   */\n    tag_86:\n        /* \"#utility.yul\":2485:2539   */\n      tag_88\n        /* \"#utility.yul\":2532:2538   */\n      dup5\n        /* \"#utility.yul\":2527:2530   */\n      dup3\n        /* \"#utility.yul\":2522:2525   */\n      dup6\n        /* \"#utility.yul\":2485:2539   */\n      tag_53\n      jump\t// in\n    tag_88:\n        /* \"#utility.yul\":2204:2545   */\n      pop\n        /* \"#utility.yul\":2120:2545   */\n      swap4\n      swap3\n      pop\n      pop\n      pop\n      jump\t// out\n        /* \"#utility.yul\":2565:2905   */\n    tag_55:\n        /* \"#utility.yul\":2621:2626   */\n      0x00\n        /* \"#utility.yul\":2670:2673   */\n      dup3\n        /* \"#utility.yul\":2663:2667   */\n      0x1f\n        /* \"#utility.yul\":2655:2661   */\n      dup4\n        /* \"#utility.yul\":2651:2668   */\n      add\n        /* \"#utility.yul\":2647:2674   */\n      slt\n        /* \"#utility.yul\":2637:2759   */\n      tag_90\n      jumpi\n        /* \"#utility.yul\":2678:2757   */\n      tag_91\n      tag_46\n      jump\t// in\n    tag_91:\n        /* \"#utility.yul\":2637:2759   */\n    tag_90:\n        /* \"#utility.yul\":2795:2801   */\n      dup2\n        /* \"#utility.yul\":2782:2802   */\n      calldataload\n        /* \"#utility.yul\":2820:2899   */\n      tag_92\n        /* \"#utility.yul\":2895:2898   */\n      dup5\n        /* \"#utility.yul\":2887:2893   */\n      dup3\n        /* \"#utility.yul\":2880:2884   */\n      0x20\n        /* \"#utility.yul\":2872:2878   */\n      dup7\n        /* \"#utility.yul\":2868:2885   */\n      add\n        /* \"#utility.yul\":2820:2899   */\n      tag_54\n      jump\t// in\n    tag_92:\n        /* \"#utility.yul\":2811:2899   */\n      swap2\n      pop\n        /* \"#utility.yul\":2627:2905   */\n      pop\n        /* \"#utility.yul\":2565:2905   */\n      swap3\n      swap2\n      pop\n      pop\n      jump\t// out\n        /* \"#utility.yul\":2911:3565   */\n    tag_13:\n        /* \"#utility.yul\":2989:2995   */\n      0x00\n        /* \"#utility.yul\":2997:3003   */\n      dup1\n        /* \"#utility.yul\":3046:3048   */\n      0x40\n        /* \"#utility.yul\":3034:3043   */\n      dup4\n        /* \"#utility.yul\":3025:3032   */\n      dup6\n        /* \"#utility.yul\":3021:3044   */\n      sub\n        /* \"#utility.yul\":3017:3049   */\n      slt\n        /* \"#utility.yul\":3014:3133   */\n      iszero\n      tag_94\n      jumpi\n        /* \"#utility.yul\":3052:3131   */\n      tag_95\n      tag_41\n      jump\t// in\n    tag_95:\n        /* \"#utility.yul\":3014:3133   */\n    tag_94:\n        /* \"#utility.yul\":3172:3173   */\n      0x00\n        /* \"#utility.yul\":3197:3250   */\n      tag_96\n        /* \"#utility.yul\":3242:3249   */\n      dup6\n        /* \"#utility.yul\":3233:3239   */\n      dup3\n        /* \"#utility.yul\":3222:3231   */\n      dup7\n        /* \"#utility.yul\":3218:3240   */\n      add\n        /* \"#utility.yul\":3197:3250   */\n      tag_45\n      jump\t// in\n    tag_96:\n        /* \"#utility.yul\":3187:3250   */\n      swap3\n      pop\n        /* \"#utility.yul\":3143:3260   */\n      pop\n        /* \"#utility.yul\":3327:3329   */\n      0x20\n        /* \"#utility.yul\":3316:3325   */\n      dup4\n        /* \"#utility.yul\":3312:3330   */\n      add\n        /* \"#utility.yul\":3299:3331   */\n      calldataload\n        /* \"#utility.yul\":3358:3376   */\n      0xffffffffffffffff\n        /* \"#utility.yul\":3350:3356   */\n      dup2\n        /* \"#utility.yul\":3347:3377   */\n      gt\n        /* \"#utility.yul\":3344:3461   */\n      iszero\n      tag_97\n      jumpi\n        /* \"#utility.yul\":3380:3459   */\n      tag_98\n      tag_42\n      jump\t// in\n    tag_98:\n        /* \"#utility.yul\":3344:3461   */\n    tag_97:\n        /* \"#utility.yul\":3485:3548   */\n      tag_99\n        /* \"#utility.yul\":3540:3547   */\n      dup6\n        /* \"#utility.yul\":3531:3537   */\n      dup3\n        /* \"#utility.yul\":3520:3529   */\n      dup7\n        /* \"#utility.yul\":3516:3538   */\n      add\n        /* \"#utility.yul\":3485:3548   */\n      tag_55\n      jump\t// in\n    tag_99:\n        /* \"#utility.yul\":3475:3548   */\n      swap2\n      pop\n        /* \"#utility.yul\":3270:3558   */\n      pop\n        /* \"#utility.yul\":2911:3565   */\n      swap3\n      pop\n      swap3\n      swap1\n      pop\n      jump\t// out\n        /* \"#utility.yul\":3571:4080   */\n    tag_23:\n        /* \"#utility.yul\":3640:3646   */\n      0x00\n        /* \"#utility.yul\":3689:3691   */\n      0x20\n        /* \"#utility.yul\":3677:3686   */\n      dup3\n        /* \"#utility.yul\":3668:3675   */\n      dup5\n        /* \"#utility.yul\":3664:3687   */\n      sub\n        /* \"#utility.yul\":3660:3692   */\n      slt\n        /* \"#utility.yul\":3657:3776   */\n      iszero\n      tag_101\n      jumpi\n        /* \"#utility.yul\":3695:3774   */\n      tag_102\n      tag_41\n      jump\t// in\n    tag_102:\n        /* \"#utility.yul\":3657:3776   */\n    tag_101:\n        /* \"#utility.yul\":3843:3844   */\n      0x00\n        /* \"#utility.yul\":3832:3841   */\n      dup3\n        /* \"#utility.yul\":3828:3845   */\n      add\n        /* \"#utility.yul\":3815:3846   */\n      calldataload\n        /* \"#utility.yul\":3873:3891   */\n      0xffffffffffffffff\n        /* \"#utility.yul\":3865:3871   */\n      dup2\n        /* \"#utility.yul\":3862:3892   */\n      gt\n        /* \"#utility.yul\":3859:3976   */\n      iszero\n      tag_103\n      jumpi\n        /* \"#utility.yul\":3895:3974   */\n      tag_104\n      tag_42\n      jump\t// in\n    tag_104:\n        /* \"#utility.yul\":3859:3976   */\n    tag_103:\n        /* \"#utility.yul\":4000:4063   */\n      tag_105\n        /* \"#utility.yul\":4055:4062   */\n      dup5\n        /* \"#utility.yul\":4046:4052   */\n      dup3\n        /* \"#utility.yul\":4035:4044   */\n      dup6\n        /* \"#utility.yul\":4031:4053   */\n      add\n        /* \"#utility.yul\":4000:4063   */\n      tag_55\n      jump\t// in\n    tag_105:\n        /* \"#utility.yul\":3990:4063   */\n      swap2\n      pop\n        /* \"#utility.yul\":3786:4073   */\n      pop\n        /* \"#utility.yul\":3571:4080   */\n      swap3\n      swap2\n      pop\n      pop\n      jump\t// out\n        /* \"#utility.yul\":4086:4415   */\n    tag_27:\n        /* \"#utility.yul\":4145:4151   */\n      0x00\n        /* \"#utility.yul\":4194:4196   */\n      0x20\n        /* \"#utility.yul\":4182:4191   */\n      dup3\n        /* \"#utility.yul\":4173:4180   */\n      dup5\n        /* \"#utility.yul\":4169:4192   */\n      sub\n        /* \"#utility.yul\":4165:4197   */\n      slt\n        /* \"#utility.yul\":4162:4281   */\n      iszero\n      tag_107\n      jumpi\n        /* \"#utility.yul\":4200:4279   */\n      tag_108\n      tag_41\n      jump\t// in\n    tag_108:\n        /* \"#utility.yul\":4162:4281   */\n    tag_107:\n        /* \"#utility.yul\":4320:4321   */\n      0x00\n        /* \"#utility.yul\":4345:4398   */\n      tag_109\n        /* \"#utility.yul\":4390:4397   */\n      dup5\n        /* \"#utility.yul\":4381:4387   */\n      dup3\n        /* \"#utility.yul\":4370:4379   */\n      dup6\n        /* \"#utility.yul\":4366:4388   */\n      add\n        /* \"#utility.yul\":4345:4398   */\n      tag_45\n      jump\t// in\n    tag_109:\n        /* \"#utility.yul\":4335:4398   */\n      swap2\n      pop\n        /* \"#utility.yul\":4291:4408   */\n      pop\n        /* \"#utility.yul\":4086:4415   */\n      swap3\n      swap2\n      pop\n      pop\n      jump\t// out\n        /* \"#utility.yul\":4421:4539   */\n    tag_56:\n        /* \"#utility.yul\":4508:4532   */\n      tag_111\n        /* \"#utility.yul\":4526:4531   */\n      dup2\n        /* \"#utility.yul\":4508:4532   */\n      tag_43\n      jump\t// in\n    tag_111:\n        /* \"#utility.yul\":4503:4506   */\n      dup3\n        /* \"#utility.yul\":4496:4533   */\n      mstore\n        /* \"#utility.yul\":4421:4539   */\n      pop\n      pop\n      jump\t// out\n        /* \"#utility.yul\":4545:4767   */\n    tag_32:\n        /* \"#utility.yul\":4638:4642   */\n      0x00\n        /* \"#utility.yul\":4676:4678   */\n      0x20\n        /* \"#utility.yul\":4665:4674   */\n      dup3\n        /* \"#utility.yul\":4661:4679   */\n      add\n        /* \"#utility.yul\":4653:4679   */\n      swap1\n      pop\n        /* \"#utility.yul\":4689:4760   */\n      tag_113\n        /* \"#utility.yul\":4757:4758   */\n      0x00\n        /* \"#utility.yul\":4746:4755   */\n      dup4\n        /* \"#utility.yul\":4742:4759   */\n      add\n        /* \"#utility.yul\":4733:4739   */\n      dup5\n        /* \"#utility.yul\":4689:4760   */\n      tag_56\n      jump\t// in\n    tag_113:\n        /* \"#utility.yul\":4545:4767   */\n      swap3\n      swap2\n      pop\n      pop\n      jump\t// out\n\n    auxdata: 0xa26469706673582212206ea6677acb1521d9589fd119caa89f9171882ad8537a4b38b64d6ff77b1d915164736f6c634300081a0033\n}\n",
				"bytecode": {
					"linkReferences": {},
					"object": "6080604052348015600e575f80fd5b506103f98061001c5f395ff3fe608060405234801561000f575f80fd5b506004361061007b575f3560e01c80636cbc2ded116100595780636cbc2ded146100af578063d9cb46f0146100b9578063e5ed1d59146100d5578063fd794143146100f15761007b565b806308f4ebcb1461007f57806325402e741461009b57806330d7bc38146100a5575b5f80fd5b610099600480360381019061009491906102cf565b61010f565b005b6100a3610113565b005b6100ad610115565b005b6100b7610117565b005b6100d360048036038101906100ce9190610329565b610119565b005b6100ef60048036038101906100ea9190610370565b61011c565b005b6100f961014b565b60405161010691906103aa565b60405180910390f35b5050565b565b565b565b50565b7f547c57d3ad5905405de82b8e681b8843daacca1468935c3c7963377aa417946960405160405180910390a150565b5f90565b5f604051905090565b5f80fd5b5f80fd5b5f819050919050565b61017281610160565b811461017c575f80fd5b50565b5f8135905061018d81610169565b92915050565b5f80fd5b5f80fd5b5f601f19601f8301169050919050565b7f4e487b71000000000000000000000000000000000000000000000000000000005f52604160045260245ffd5b6101e18261019b565b810181811067ffffffffffffffff82111715610200576101ff6101ab565b5b80604052505050565b5f61021261014f565b905061021e82826101d8565b919050565b5f67ffffffffffffffff82111561023d5761023c6101ab565b5b6102468261019b565b9050602081019050919050565b828183375f83830152505050565b5f61027361026e84610223565b610209565b90508281526020810184848401111561028f5761028e610197565b5b61029a848285610253565b509392505050565b5f82601f8301126102b6576102b5610193565b5b81356102c6848260208601610261565b91505092915050565b5f80604083850312156102e5576102e4610158565b5b5f6102f28582860161017f565b925050602083013567ffffffffffffffff8111156103135761031261015c565b5b61031f858286016102a2565b9150509250929050565b5f6020828403121561033e5761033d610158565b5b5f82013567ffffffffffffffff81111561035b5761035a61015c565b5b610367848285016102a2565b91505092915050565b5f6020828403121561038557610384610158565b5b5f6103928482850161017f565b91505092915050565b6103a481610160565b82525050565b5f6020820190506103bd5f83018461039b565b9291505056fea26469706673582212206ea6677acb1521d9589fd119caa89f9171882ad8537a4b38b64d6ff77b1d915164736f6c634300081a0033",
					"opcodes": "PUSH1 0x80 PUSH1 0x40 MSTORE CALLVALUE DUP1 ISZERO PUSH1 0xE JUMPI PUSH0 DUP1 REVERT JUMPDEST POP PUSH2 0x3F9 DUP1 PUSH2 0x1C PUSH0 CODECOPY PUSH0 RETURN INVALID PUSH1 0x80 PUSH1 0x40 MSTORE CALLVALUE DUP1 ISZERO PUSH2 0xF JUMPI PUSH0 DUP1 REVERT JUMPDEST POP PUSH1 0x4 CALLDATASIZE LT PUSH2 0x7B JUMPI PUSH0 CALLDATALOAD PUSH1 0xE0 SHR DUP1 PUSH4 0x6CBC2DED GT PUSH2 0x59 JUMPI DUP1 PUSH4 0x6CBC2DED EQ PUSH2 0xAF JUMPI DUP1 PUSH4 0xD9CB46F0 EQ PUSH2 0xB9 JUMPI DUP1 PUSH4 0xE5ED1D59 EQ PUSH2 0xD5 JUMPI DUP1 PUSH4 0xFD794143 EQ PUSH2 0xF1 JUMPI PUSH2 0x7B JUMP JUMPDEST DUP1 PUSH4 0x8F4EBCB EQ PUSH2 0x7F JUMPI DUP1 PUSH4 0x25402E74 EQ PUSH2 0x9B JUMPI DUP1 PUSH4 0x30D7BC38 EQ PUSH2 0xA5 JUMPI JUMPDEST PUSH0 DUP1 REVERT JUMPDEST PUSH2 0x99 PUSH1 0x4 DUP1 CALLDATASIZE SUB DUP2 ADD SWAP1 PUSH2 0x94 SWAP2 SWAP1 PUSH2 0x2CF JUMP JUMPDEST PUSH2 0x10F JUMP JUMPDEST STOP JUMPDEST PUSH2 0xA3 PUSH2 0x113 JUMP JUMPDEST STOP JUMPDEST PUSH2 0xAD PUSH2 0x115 JUMP JUMPDEST STOP JUMPDEST PUSH2 0xB7 PUSH2 0x117 JUMP JUMPDEST STOP JUMPDEST PUSH2 0xD3 PUSH1 0x4 DUP1 CALLDATASIZE SUB DUP2 ADD SWAP1 PUSH2 0xCE SWAP2 SWAP1 PUSH2 0x329 JUMP JUMPDEST PUSH2 0x119 JUMP JUMPDEST STOP JUMPDEST PUSH2 0xEF PUSH1 0x4 DUP1 CALLDATASIZE SUB DUP2 ADD SWAP1 PUSH2 0xEA SWAP2 SWAP1 PUSH2 0x370 JUMP JUMPDEST PUSH2 0x11C JUMP JUMPDEST STOP JUMPDEST PUSH2 0xF9 PUSH2 0x14B JUMP JUMPDEST PUSH1 0x40 MLOAD PUSH2 0x106 SWAP2 SWAP1 PUSH2 0x3AA JUMP JUMPDEST PUSH1 0x40 MLOAD DUP1 SWAP2 SUB SWAP1 RETURN JUMPDEST POP POP JUMP JUMPDEST JUMP JUMPDEST JUMP JUMPDEST JUMP JUMPDEST POP JUMP JUMPDEST PUSH32 0x547C57D3AD5905405DE82B8E681B8843DAACCA1468935C3C7963377AA4179469 PUSH1 0x40 MLOAD PUSH1 0x40 MLOAD DUP1 SWAP2 SUB SWAP1 LOG1 POP JUMP JUMPDEST PUSH0 SWAP1 JUMP JUMPDEST PUSH0 PUSH1 0x40 MLOAD SWAP1 POP SWAP1 JUMP JUMPDEST PUSH0 DUP1 REVERT JUMPDEST PUSH0 DUP1 REVERT JUMPDEST PUSH0 DUP2 SWAP1 POP SWAP2 SWAP1 POP JUMP JUMPDEST PUSH2 0x172 DUP2 PUSH2 0x160 JUMP JUMPDEST DUP2 EQ PUSH2 0x17C JUMPI PUSH0 DUP1 REVERT JUMPDEST POP JUMP JUMPDEST PUSH0 DUP2 CALLDATALOAD SWAP1 POP PUSH2 0x18D DUP2 PUSH2 0x169 JUMP JUMPDEST SWAP3 SWAP2 POP POP JUMP JUMPDEST PUSH0 DUP1 REVERT JUMPDEST PUSH0 DUP1 REVERT JUMPDEST PUSH0 PUSH1 0x1F NOT PUSH1 0x1F DUP4 ADD AND SWAP1 POP SWAP2 SWAP1 POP JUMP JUMPDEST PUSH32 0x4E487B7100000000000000000000000000000000000000000000000000000000 PUSH0 MSTORE PUSH1 0x41 PUSH1 0x4 MSTORE PUSH1 0x24 PUSH0 REVERT JUMPDEST PUSH2 0x1E1 DUP3 PUSH2 0x19B JUMP JUMPDEST DUP2 ADD DUP2 DUP2 LT PUSH8 0xFFFFFFFFFFFFFFFF DUP3 GT OR ISZERO PUSH2 0x200 JUMPI PUSH2 0x1FF PUSH2 0x1AB JUMP JUMPDEST JUMPDEST DUP1 PUSH1 0x40 MSTORE POP POP POP JUMP JUMPDEST PUSH0 PUSH2 0x212 PUSH2 0x14F JUMP JUMPDEST SWAP1 POP PUSH2 0x21E DUP3 DUP3 PUSH2 0x1D8 JUMP JUMPDEST SWAP2 SWAP1 POP JUMP JUMPDEST PUSH0 PUSH8 0xFFFFFFFFFFFFFFFF DUP3 GT ISZERO PUSH2 0x23D JUMPI PUSH2 0x23C PUSH2 0x1AB JUMP JUMPDEST JUMPDEST PUSH2 0x246 DUP3 PUSH2 0x19B JUMP JUMPDEST SWAP1 POP PUSH1 0x20 DUP2 ADD SWAP1 POP SWAP2 SWAP1 POP JUMP JUMPDEST DUP3 DUP2 DUP4 CALLDATACOPY PUSH0 DUP4 DUP4 ADD MSTORE POP POP POP JUMP JUMPDEST PUSH0 PUSH2 0x273 PUSH2 0x26E DUP5 PUSH2 0x223 JUMP JUMPDEST PUSH2 0x209 JUMP JUMPDEST SWAP1 POP DUP3 DUP2 MSTORE PUSH1 0x20 DUP2 ADD DUP5 DUP5 DUP5 ADD GT ISZERO PUSH2 0x28F JUMPI PUSH2 0x28E PUSH2 0x197 JUMP JUMPDEST JUMPDEST PUSH2 0x29A DUP5 DUP3 DUP6 PUSH2 0x253 JUMP JUMPDEST POP SWAP4 SWAP3 POP POP POP JUMP JUMPDEST PUSH0 DUP3 PUSH1 0x1F DUP4 ADD SLT PUSH2 0x2B6 JUMPI PUSH2 0x2B5 PUSH2 0x193 JUMP JUMPDEST JUMPDEST DUP2 CALLDATALOAD PUSH2 0x2C6 DUP5 DUP3 PUSH1 0x20 DUP7 ADD PUSH2 0x261 JUMP JUMPDEST SWAP2 POP POP SWAP3 SWAP2 POP POP JUMP JUMPDEST PUSH0 DUP1 PUSH1 0x40 DUP4 DUP6 SUB SLT ISZERO PUSH2 0x2E5 JUMPI PUSH2 0x2E4 PUSH2 0x158 JUMP JUMPDEST JUMPDEST PUSH0 PUSH2 0x2F2 DUP6 DUP3 DUP7 ADD PUSH2 0x17F JUMP JUMPDEST SWAP3 POP POP PUSH1 0x20 DUP4 ADD CALLDATALOAD PUSH8 0xFFFFFFFFFFFFFFFF DUP2 GT ISZERO PUSH2 0x313 JUMPI PUSH2 0x312 PUSH2 0x15C JUMP JUMPDEST JUMPDEST PUSH2 0x31F DUP6 DUP3 DUP7 ADD PUSH2 0x2A2 JUMP JUMPDEST SWAP2 POP POP SWAP3 POP SWAP3 SWAP1 POP JUMP JUMPDEST PUSH0 PUSH1 0x20 DUP3 DUP5 SUB SLT ISZERO PUSH2 0x33E JUMPI PUSH2 0x33D PUSH2 0x158 JUMP JUMPDEST JUMPDEST PUSH0 DUP3 ADD CALLDATALOAD PUSH8 0xFFFFFFFFFFFFFFFF DUP2 GT ISZERO PUSH2 0x35B JUMPI PUSH2 0x35A PUSH2 0x15C JUMP JUMPDEST JUMPDEST PUSH2 0x367 DUP5 DUP3 DUP6 ADD PUSH2 0x2A2 JUMP JUMPDEST SWAP2 POP POP SWAP3 SWAP2 POP POP JUMP JUMPDEST PUSH0 PUSH1 0x20 DUP3 DUP5 SUB SLT ISZERO PUSH2 0x385 JUMPI PUSH2 0x384 PUSH2 0x158 JUMP JUMPDEST JUMPDEST PUSH0 PUSH2 0x392 DUP5 DUP3 DUP6 ADD PUSH2 0x17F JUMP JUMPDEST SWAP2 POP POP SWAP3 SWAP2 POP POP JUMP JUMPDEST PUSH2 0x3A4 DUP2 PUSH2 0x160 JUMP JUMPDEST DUP3 MSTORE POP POP JUMP JUMPDEST PUSH0 PUSH1 0x20 DUP3 ADD SWAP1 POP PUSH2 0x3BD PUSH0 DUP4 ADD DUP5 PUSH2 0x39B JUMP JUMPDEST SWAP3 SWAP2 POP POP JUMP INVALID LOG2 PUSH5 0x6970667358 0x22 SLT KECCAK256 PUSH15 0xA6677ACB1521D9589FD119CAA89F91 PUSH18 0x882AD8537A4B38B64D6FF77B1D915164736F PUSH13 0x634300081A0033000000000000 "
				},
				"gasEstimates": {
					"creation": {
						"codeDepositCost": "203400",
						"executionCost": "243",
						"totalCost": "203643"
					},
					"external": {
						"blackjackOrBust(uint256,string)": "infinite",
						"calculateHandValue()": "390",
						"dealerAction()": "188",
						"decideWinner()": "166",
						"endGame()": "143",
						"playerAction(string)": "infinite",
						"startGame(uint256)": "1222"
					}
				},
				"methodIdentifiers": {
					"blackjackOrBust(uint256,string)": "08f4ebcb",
					"calculateHandValue()": "fd794143",
					"dealerAction()": "30d7bc38",
					"decideWinner()": "25402e74",
					"endGame()": "6cbc2ded",
					"playerAction(string)": "d9cb46f0",
					"startGame(uint256)": "e5ed1d59"
				}
			},
			"storageLayout": {
				"storage": [],
				"types": null
			},
			"userdoc": {
				"kind": "user",
				"methods": {},
				"version": 1
			}
		}
	}
}