{
	"data": {
		"bytecode": {
			"linkReferences": {},
			"object": "608060405260075f555f60015f6101000a81548160ff0219169083151502179055505f600255348015602f575f80fd5b506111998061003d5f395ff3fe608060405234801561000f575f80fd5b506004361061003f575f3560e01c80631ff47629146100435780637b38314c1461005f578063e5ed1d591461008f575b5f80fd5b61005d60048036038101906100589190610c48565b6100ab565b005b61007960048036038101906100749190610ccd565b6104a8565b6040516100869190610d10565b60405180910390f35b6100a960048036038101906100a49190610d53565b6104bd565b005b80156101fd5760055f3373ffffffffffffffffffffffffffffffffffffffff1673ffffffffffffffffffffffffffffffffffffffff1681526020019081526020015f205f016100f8610799565b908060018154018082558091505060019003905f5260205f20015f90919091909150553373ffffffffffffffffffffffffffffffffffffffff167fe253e6518a69ccffffb243cce683eafc40e1f53cf04def4e4340c79ad65654596101e760055f3373ffffffffffffffffffffffffffffffffffffffff1673ffffffffffffffffffffffffffffffffffffffff1681526020019081526020015f205f018054806020026020016040519081016040528092919081815260200182805480156101dd57602002820191905f5260205f20905b8154815260200190600101908083116101c9575b5050505050610809565b6040516101f49190610d10565b60405180910390a25b601561029360055f3373ffffffffffffffffffffffffffffffffffffffff1673ffffffffffffffffffffffffffffffffffffffff1681526020019081526020015f205f0180548060200260200160405190810160405280929190818152602001828054801561028957602002820191905f5260205f20905b815481526020019060010190808311610275575b5050505050610809565b106103375761033661032f60055f3373ffffffffffffffffffffffffffffffffffffffff1673ffffffffffffffffffffffffffffffffffffffff1681526020019081526020015f205f0180548060200260200160405190810160405280929190818152602001828054801561032557602002820191905f5260205f20905b815481526020019060010190808311610311575b5050505050610809565b6001610858565b5b601161039260065f0180548060200260200160405190810160405280929190818152602001828054801561038857602002820191905f5260205f20905b815481526020019060010190808311610374575b5050505050610809565b106103a45761039f6108e0565b6104a5565b60065f016103b0610799565b908060018154018082558091505060019003905f5260205f20015f9091909190915055601561042e60065f0180548060200260200160405190810160405280929190818152602001828054801561042457602002820191905f5260205f20905b815481526020019060010190808311610410575b5050505050610809565b10156104415761043c6108e0565b6104a4565b6104a361049d60065f0180548060200260200160405190810160405280929190818152602001828054801561049357602002820191905f5260205f20905b81548152602001906001019080831161047f575b5050505050610809565b5f610858565b5b5b50565b6004602052805f5260405f205f915090505481565b5f81116104ff576040517f08c379a00000000000000000000000000000000000000000000000000000000081526004016104f690610dd8565b60405180910390fd5b60028161050c9190610e23565b60045f3373ffffffffffffffffffffffffffffffffffffffff1673ffffffffffffffffffffffffffffffffffffffff1681526020019081526020015f2054101561058b576040517f08c379a000000000000000000000000000000000000000000000000000000000815260040161058290610efa565b60405180910390fd5b8060045f3373ffffffffffffffffffffffffffffffffffffffff1673ffffffffffffffffffffffffffffffffffffffff1681526020019081526020015f205f8282546105d79190610f18565b92505081905550806002819055506001805f6101000a81548160ff0219169083151502179055505f5b60028110156106af5760055f3373ffffffffffffffffffffffffffffffffffffffff1673ffffffffffffffffffffffffffffffffffffffff1681526020019081526020015f205f01610650610799565b908060018154018082558091505060019003905f5260205f20015f909190919091505560065f0161067f610799565b908060018154018082558091505060019003905f5260205f20015f90919091909150558080600101915050610600565b505f61074560055f3373ffffffffffffffffffffffffffffffffffffffff1673ffffffffffffffffffffffffffffffffffffffff1681526020019081526020015f205f0180548060200260200160405190810160405280929190818152602001828054801561073b57602002820191905f5260205f20905b815481526020019060010190808311610727575b5050505050610809565b90503373ffffffffffffffffffffffffffffffffffffffff167fe253e6518a69ccffffb243cce683eafc40e1f53cf04def4e4340c79ad65654598260405161078d9190610d10565b60405180910390a25050565b5f8033445f54306040516020016107b39493929190610fb0565b604051602081830303815290604052805190602001205f1c90505f6001600a836107dd919061102a565b6107e7919061105a565b905060015f808282546107fa919061105a565b92505081905550809250505090565b5f805f90505f5b835181101561084e5783818151811061082c5761082b61108d565b5b60200260200101518261083f919061105a565b91508080600101915050610810565b5080915050919050565b60158214801561086c575060011515811515145b80610886575060158211801561088557505f1515811515145b5b15610897575f6003819055506108d4565b6015821480156108aa57505f1515811515145b806108c557506015821180156108c4575060011515811515145b5b156108d35760016003819055505b5b6108dc610a69565b5050565b5f61097560055f3373ffffffffffffffffffffffffffffffffffffffff1673ffffffffffffffffffffffffffffffffffffffff1681526020019081526020015f205f0180548060200260200160405190810160405280929190818152602001828054801561096b57602002820191905f5260205f20905b815481526020019060010190808311610957575b5050505050610809565b90505f6109d160065f018054806020026020016040519081016040528092919081815260200182805480156109c757602002820191905f5260205f20905b8154815260200190600101908083116109b3575b5050505050610809565b905060158211156109e9576001600381905550610a5d565b60158111156109fe575f600381905550610a5c565b60158203610a12575f600381905550610a5b565b60158103610a27576001600381905550610a5a565b808203610a3b576002600381905550610a59565b80821115610a4f575f600381905550610a58565b60016003819055505b5b5b5b5b5b610a65610a69565b5050565b5f60035403610b2e575f3373ffffffffffffffffffffffffffffffffffffffff166002546002610a999190610e23565b604051610aa5906110e7565b5f6040518083038185875af1925050503d805f8114610adf576040519150601f19603f3d011682016040523d82523d5f602084013e610ae4565b606091505b5050905080610b28576040517f08c379a0000000000000000000000000000000000000000000000000000000008152600401610b1f90611145565b60405180910390fd5b50610bf4565b600160035403610b925760025460045f3373ffffffffffffffffffffffffffffffffffffffff1673ffffffffffffffffffffffffffffffffffffffff1681526020019081526020015f205f828254610b869190610f18565b92505081905550610bf3565b600260035403610bf25760025460045f3373ffffffffffffffffffffffffffffffffffffffff1673ffffffffffffffffffffffffffffffffffffffff1681526020019081526020015f205f828254610bea919061105a565b925050819055505b5b5b5f60015f6101000a81548160ff021916908315150217905550565b5f80fd5b5f8115159050919050565b610c2781610c13565b8114610c31575f80fd5b50565b5f81359050610c4281610c1e565b92915050565b5f60208284031215610c5d57610c5c610c0f565b5b5f610c6a84828501610c34565b91505092915050565b5f73ffffffffffffffffffffffffffffffffffffffff82169050919050565b5f610c9c82610c73565b9050919050565b610cac81610c92565b8114610cb6575f80fd5b50565b5f81359050610cc781610ca3565b92915050565b5f60208284031215610ce257610ce1610c0f565b5b5f610cef84828501610cb9565b91505092915050565b5f819050919050565b610d0a81610cf8565b82525050565b5f602082019050610d235f830184610d01565b92915050565b610d3281610cf8565b8114610d3c575f80fd5b50565b5f81359050610d4d81610d29565b92915050565b5f60208284031215610d6857610d67610c0f565b5b5f610d7584828501610d3f565b91505092915050565b5f82825260208201905092915050565b7f496e76616c6964204265742e20506c6561736520626964206f76657220302e005f82015250565b5f610dc2601f83610d7e565b9150610dcd82610d8e565b602082019050919050565b5f6020820190508181035f830152610def81610db6565b9050919050565b7f4e487b71000000000000000000000000000000000000000000000000000000005f52601160045260245ffd5b5f610e2d82610cf8565b9150610e3883610cf8565b9250828202610e4681610cf8565b91508282048414831517610e5d57610e5c610df6565b5b5092915050565b7f496e73756666696369656e742062616c616e636520746f2073746172742074685f8201527f652067616d652e20596f75206e65656420322074696d65732074686520616d6f60208201527f756e7420796f752062657420746f20706c61792e000000000000000000000000604082015250565b5f610ee4605483610d7e565b9150610eef82610e64565b606082019050919050565b5f6020820190508181035f830152610f1181610ed8565b9050919050565b5f610f2282610cf8565b9150610f2d83610cf8565b9250828203905081811115610f4557610f44610df6565b5b92915050565b5f8160601b9050919050565b5f610f6182610f4b565b9050919050565b5f610f7282610f57565b9050919050565b610f8a610f8582610c92565b610f68565b82525050565b5f819050919050565b610faa610fa582610cf8565b610f90565b82525050565b5f610fbb8287610f79565b601482019150610fcb8286610f99565b602082019150610fdb8285610f99565b602082019150610feb8284610f79565b60148201915081905095945050505050565b7f4e487b71000000000000000000000000000000000000000000000000000000005f52601260045260245ffd5b5f61103482610cf8565b915061103f83610cf8565b92508261104f5761104e610ffd565b5b828206905092915050565b5f61106482610cf8565b915061106f83610cf8565b925082820190508082111561108757611086610df6565b5b92915050565b7f4e487b71000000000000000000000000000000000000000000000000000000005f52603260045260245ffd5b5f81905092915050565b50565b5f6110d25f836110ba565b91506110dd826110c4565b5f82019050919050565b5f6110f1826110c7565b9150819050919050565b7f5472616e73666572206661696c65642e000000000000000000000000000000005f82015250565b5f61112f601083610d7e565b915061113a826110fb565b602082019050919050565b5f6020820190508181035f83015261115c81611123565b905091905056fea264697066735822122034c84fba679307ad2dcd7558d52bd3334ef3594eb8f8ecb49cf5198b4ef3d00c64736f6c634300081a0033",
			"opcodes": "PUSH1 0x80 PUSH1 0x40 MSTORE PUSH1 0x7 PUSH0 SSTORE PUSH0 PUSH1 0x1 PUSH0 PUSH2 0x100 EXP DUP2 SLOAD DUP2 PUSH1 0xFF MUL NOT AND SWAP1 DUP4 ISZERO ISZERO MUL OR SWAP1 SSTORE POP PUSH0 PUSH1 0x2 SSTORE CALLVALUE DUP1 ISZERO PUSH1 0x2F JUMPI PUSH0 DUP1 REVERT JUMPDEST POP PUSH2 0x1199 DUP1 PUSH2 0x3D PUSH0 CODECOPY PUSH0 RETURN INVALID PUSH1 0x80 PUSH1 0x40 MSTORE CALLVALUE DUP1 ISZERO PUSH2 0xF JUMPI PUSH0 DUP1 REVERT JUMPDEST POP PUSH1 0x4 CALLDATASIZE LT PUSH2 0x3F JUMPI PUSH0 CALLDATALOAD PUSH1 0xE0 SHR DUP1 PUSH4 0x1FF47629 EQ PUSH2 0x43 JUMPI DUP1 PUSH4 0x7B38314C EQ PUSH2 0x5F JUMPI DUP1 PUSH4 0xE5ED1D59 EQ PUSH2 0x8F JUMPI JUMPDEST PUSH0 DUP1 REVERT JUMPDEST PUSH2 0x5D PUSH1 0x4 DUP1 CALLDATASIZE SUB DUP2 ADD SWAP1 PUSH2 0x58 SWAP2 SWAP1 PUSH2 0xC48 JUMP JUMPDEST PUSH2 0xAB JUMP JUMPDEST STOP JUMPDEST PUSH2 0x79 PUSH1 0x4 DUP1 CALLDATASIZE SUB DUP2 ADD SWAP1 PUSH2 0x74 SWAP2 SWAP1 PUSH2 0xCCD JUMP JUMPDEST PUSH2 0x4A8 JUMP JUMPDEST PUSH1 0x40 MLOAD PUSH2 0x86 SWAP2 SWAP1 PUSH2 0xD10 JUMP JUMPDEST PUSH1 0x40 MLOAD DUP1 SWAP2 SUB SWAP1 RETURN JUMPDEST PUSH2 0xA9 PUSH1 0x4 DUP1 CALLDATASIZE SUB DUP2 ADD SWAP1 PUSH2 0xA4 SWAP2 SWAP1 PUSH2 0xD53 JUMP JUMPDEST PUSH2 0x4BD JUMP JUMPDEST STOP JUMPDEST DUP1 ISZERO PUSH2 0x1FD JUMPI PUSH1 0x5 PUSH0 CALLER PUSH20 0xFFFFFFFFFFFFFFFFFFFFFFFFFFFFFFFFFFFFFFFF AND PUSH20 0xFFFFFFFFFFFFFFFFFFFFFFFFFFFFFFFFFFFFFFFF AND DUP2 MSTORE PUSH1 0x20 ADD SWAP1 DUP2 MSTORE PUSH1 0x20 ADD PUSH0 KECCAK256 PUSH0 ADD PUSH2 0xF8 PUSH2 0x799 JUMP JUMPDEST SWAP1 DUP1 PUSH1 0x1 DUP2 SLOAD ADD DUP1 DUP3 SSTORE DUP1 SWAP2 POP POP PUSH1 0x1 SWAP1 SUB SWAP1 PUSH0 MSTORE PUSH1 0x20 PUSH0 KECCAK256 ADD PUSH0 SWAP1 SWAP2 SWAP1 SWAP2 SWAP1 SWAP2 POP SSTORE CALLER PUSH20 0xFFFFFFFFFFFFFFFFFFFFFFFFFFFFFFFFFFFFFFFF AND PUSH32 0xE253E6518A69CCFFFFB243CCE683EAFC40E1F53CF04DEF4E4340C79AD6565459 PUSH2 0x1E7 PUSH1 0x5 PUSH0 CALLER PUSH20 0xFFFFFFFFFFFFFFFFFFFFFFFFFFFFFFFFFFFFFFFF AND PUSH20 0xFFFFFFFFFFFFFFFFFFFFFFFFFFFFFFFFFFFFFFFF AND DUP2 MSTORE PUSH1 0x20 ADD SWAP1 DUP2 MSTORE PUSH1 0x20 ADD PUSH0 KECCAK256 PUSH0 ADD DUP1 SLOAD DUP1 PUSH1 0x20 MUL PUSH1 0x20 ADD PUSH1 0x40 MLOAD SWAP1 DUP2 ADD PUSH1 0x40 MSTORE DUP1 SWAP3 SWAP2 SWAP1 DUP2 DUP2 MSTORE PUSH1 0x20 ADD DUP3 DUP1 SLOAD DUP1 ISZERO PUSH2 0x1DD JUMPI PUSH1 0x20 MUL DUP3 ADD SWAP2 SWAP1 PUSH0 MSTORE PUSH1 0x20 PUSH0 KECCAK256 SWAP1 JUMPDEST DUP2 SLOAD DUP2 MSTORE PUSH1 0x20 ADD SWAP1 PUSH1 0x1 ADD SWAP1 DUP1 DUP4 GT PUSH2 0x1C9 JUMPI JUMPDEST POP POP POP POP POP PUSH2 0x809 JUMP JUMPDEST PUSH1 0x40 MLOAD PUSH2 0x1F4 SWAP2 SWAP1 PUSH2 0xD10 JUMP JUMPDEST PUSH1 0x40 MLOAD DUP1 SWAP2 SUB SWAP1 LOG2 JUMPDEST PUSH1 0x15 PUSH2 0x293 PUSH1 0x5 PUSH0 CALLER PUSH20 0xFFFFFFFFFFFFFFFFFFFFFFFFFFFFFFFFFFFFFFFF AND PUSH20 0xFFFFFFFFFFFFFFFFFFFFFFFFFFFFFFFFFFFFFFFF AND DUP2 MSTORE PUSH1 0x20 ADD SWAP1 DUP2 MSTORE PUSH1 0x20 ADD PUSH0 KECCAK256 PUSH0 ADD DUP1 SLOAD DUP1 PUSH1 0x20 MUL PUSH1 0x20 ADD PUSH1 0x40 MLOAD SWAP1 DUP2 ADD PUSH1 0x40 MSTORE DUP1 SWAP3 SWAP2 SWAP1 DUP2 DUP2 MSTORE PUSH1 0x20 ADD DUP3 DUP1 SLOAD DUP1 ISZERO PUSH2 0x289 JUMPI PUSH1 0x20 MUL DUP3 ADD SWAP2 SWAP1 PUSH0 MSTORE PUSH1 0x20 PUSH0 KECCAK256 SWAP1 JUMPDEST DUP2 SLOAD DUP2 MSTORE PUSH1 0x20 ADD SWAP1 PUSH1 0x1 ADD SWAP1 DUP1 DUP4 GT PUSH2 0x275 JUMPI JUMPDEST POP POP POP POP POP PUSH2 0x809 JUMP JUMPDEST LT PUSH2 0x337 JUMPI PUSH2 0x336 PUSH2 0x32F PUSH1 0x5 PUSH0 CALLER PUSH20 0xFFFFFFFFFFFFFFFFFFFFFFFFFFFFFFFFFFFFFFFF AND PUSH20 0xFFFFFFFFFFFFFFFFFFFFFFFFFFFFFFFFFFFFFFFF AND DUP2 MSTORE PUSH1 0x20 ADD SWAP1 DUP2 MSTORE PUSH1 0x20 ADD PUSH0 KECCAK256 PUSH0 ADD DUP1 SLOAD DUP1 PUSH1 0x20 MUL PUSH1 0x20 ADD PUSH1 0x40 MLOAD SWAP1 DUP2 ADD PUSH1 0x40 MSTORE DUP1 SWAP3 SWAP2 SWAP1 DUP2 DUP2 MSTORE PUSH1 0x20 ADD DUP3 DUP1 SLOAD DUP1 ISZERO PUSH2 0x325 JUMPI PUSH1 0x20 MUL DUP3 ADD SWAP2 SWAP1 PUSH0 MSTORE PUSH1 0x20 PUSH0 KECCAK256 SWAP1 JUMPDEST DUP2 SLOAD DUP2 MSTORE PUSH1 0x20 ADD SWAP1 PUSH1 0x1 ADD SWAP1 DUP1 DUP4 GT PUSH2 0x311 JUMPI JUMPDEST POP POP POP POP POP PUSH2 0x809 JUMP JUMPDEST PUSH1 0x1 PUSH2 0x858 JUMP JUMPDEST JUMPDEST PUSH1 0x11 PUSH2 0x392 PUSH1 0x6 PUSH0 ADD DUP1 SLOAD DUP1 PUSH1 0x20 MUL PUSH1 0x20 ADD PUSH1 0x40 MLOAD SWAP1 DUP2 ADD PUSH1 0x40 MSTORE DUP1 SWAP3 SWAP2 SWAP1 DUP2 DUP2 MSTORE PUSH1 0x20 ADD DUP3 DUP1 SLOAD DUP1 ISZERO PUSH2 0x388 JUMPI PUSH1 0x20 MUL DUP3 ADD SWAP2 SWAP1 PUSH0 MSTORE PUSH1 0x20 PUSH0 KECCAK256 SWAP1 JUMPDEST DUP2 SLOAD DUP2 MSTORE PUSH1 0x20 ADD SWAP1 PUSH1 0x1 ADD SWAP1 DUP1 DUP4 GT PUSH2 0x374 JUMPI JUMPDEST POP POP POP POP POP PUSH2 0x809 JUMP JUMPDEST LT PUSH2 0x3A4 JUMPI PUSH2 0x39F PUSH2 0x8E0 JUMP JUMPDEST PUSH2 0x4A5 JUMP JUMPDEST PUSH1 0x6 PUSH0 ADD PUSH2 0x3B0 PUSH2 0x799 JUMP JUMPDEST SWAP1 DUP1 PUSH1 0x1 DUP2 SLOAD ADD DUP1 DUP3 SSTORE DUP1 SWAP2 POP POP PUSH1 0x1 SWAP1 SUB SWAP1 PUSH0 MSTORE PUSH1 0x20 PUSH0 KECCAK256 ADD PUSH0 SWAP1 SWAP2 SWAP1 SWAP2 SWAP1 SWAP2 POP SSTORE PUSH1 0x15 PUSH2 0x42E PUSH1 0x6 PUSH0 ADD DUP1 SLOAD DUP1 PUSH1 0x20 MUL PUSH1 0x20 ADD PUSH1 0x40 MLOAD SWAP1 DUP2 ADD PUSH1 0x40 MSTORE DUP1 SWAP3 SWAP2 SWAP1 DUP2 DUP2 MSTORE PUSH1 0x20 ADD DUP3 DUP1 SLOAD DUP1 ISZERO PUSH2 0x424 JUMPI PUSH1 0x20 MUL DUP3 ADD SWAP2 SWAP1 PUSH0 MSTORE PUSH1 0x20 PUSH0 KECCAK256 SWAP1 JUMPDEST DUP2 SLOAD DUP2 MSTORE PUSH1 0x20 ADD SWAP1 PUSH1 0x1 ADD SWAP1 DUP1 DUP4 GT PUSH2 0x410 JUMPI JUMPDEST POP POP POP POP POP PUSH2 0x809 JUMP JUMPDEST LT ISZERO PUSH2 0x441 JUMPI PUSH2 0x43C PUSH2 0x8E0 JUMP JUMPDEST PUSH2 0x4A4 JUMP JUMPDEST PUSH2 0x4A3 PUSH2 0x49D PUSH1 0x6 PUSH0 ADD DUP1 SLOAD DUP1 PUSH1 0x20 MUL PUSH1 0x20 ADD PUSH1 0x40 MLOAD SWAP1 DUP2 ADD PUSH1 0x40 MSTORE DUP1 SWAP3 SWAP2 SWAP1 DUP2 DUP2 MSTORE PUSH1 0x20 ADD DUP3 DUP1 SLOAD DUP1 ISZERO PUSH2 0x493 JUMPI PUSH1 0x20 MUL DUP3 ADD SWAP2 SWAP1 PUSH0 MSTORE PUSH1 0x20 PUSH0 KECCAK256 SWAP1 JUMPDEST DUP2 SLOAD DUP2 MSTORE PUSH1 0x20 ADD SWAP1 PUSH1 0x1 ADD SWAP1 DUP1 DUP4 GT PUSH2 0x47F JUMPI JUMPDEST POP POP POP POP POP PUSH2 0x809 JUMP JUMPDEST PUSH0 PUSH2 0x858 JUMP JUMPDEST JUMPDEST JUMPDEST POP JUMP JUMPDEST PUSH1 0x4 PUSH1 0x20 MSTORE DUP1 PUSH0 MSTORE PUSH1 0x40 PUSH0 KECCAK256 PUSH0 SWAP2 POP SWAP1 POP SLOAD DUP2 JUMP JUMPDEST PUSH0 DUP2 GT PUSH2 0x4FF JUMPI PUSH1 0x40 MLOAD PUSH32 0x8C379A000000000000000000000000000000000000000000000000000000000 DUP2 MSTORE PUSH1 0x4 ADD PUSH2 0x4F6 SWAP1 PUSH2 0xDD8 JUMP JUMPDEST PUSH1 0x40 MLOAD DUP1 SWAP2 SUB SWAP1 REVERT JUMPDEST PUSH1 0x2 DUP2 PUSH2 0x50C SWAP2 SWAP1 PUSH2 0xE23 JUMP JUMPDEST PUSH1 0x4 PUSH0 CALLER PUSH20 0xFFFFFFFFFFFFFFFFFFFFFFFFFFFFFFFFFFFFFFFF AND PUSH20 0xFFFFFFFFFFFFFFFFFFFFFFFFFFFFFFFFFFFFFFFF AND DUP2 MSTORE PUSH1 0x20 ADD SWAP1 DUP2 MSTORE PUSH1 0x20 ADD PUSH0 KECCAK256 SLOAD LT ISZERO PUSH2 0x58B JUMPI PUSH1 0x40 MLOAD PUSH32 0x8C379A000000000000000000000000000000000000000000000000000000000 DUP2 MSTORE PUSH1 0x4 ADD PUSH2 0x582 SWAP1 PUSH2 0xEFA JUMP JUMPDEST PUSH1 0x40 MLOAD DUP1 SWAP2 SUB SWAP1 REVERT JUMPDEST DUP1 PUSH1 0x4 PUSH0 CALLER PUSH20 0xFFFFFFFFFFFFFFFFFFFFFFFFFFFFFFFFFFFFFFFF AND PUSH20 0xFFFFFFFFFFFFFFFFFFFFFFFFFFFFFFFFFFFFFFFF AND DUP2 MSTORE PUSH1 0x20 ADD SWAP1 DUP2 MSTORE PUSH1 0x20 ADD PUSH0 KECCAK256 PUSH0 DUP3 DUP3 SLOAD PUSH2 0x5D7 SWAP2 SWAP1 PUSH2 0xF18 JUMP JUMPDEST SWAP3 POP POP DUP2 SWAP1 SSTORE POP DUP1 PUSH1 0x2 DUP2 SWAP1 SSTORE POP PUSH1 0x1 DUP1 PUSH0 PUSH2 0x100 EXP DUP2 SLOAD DUP2 PUSH1 0xFF MUL NOT AND SWAP1 DUP4 ISZERO ISZERO MUL OR SWAP1 SSTORE POP PUSH0 JUMPDEST PUSH1 0x2 DUP2 LT ISZERO PUSH2 0x6AF JUMPI PUSH1 0x5 PUSH0 CALLER PUSH20 0xFFFFFFFFFFFFFFFFFFFFFFFFFFFFFFFFFFFFFFFF AND PUSH20 0xFFFFFFFFFFFFFFFFFFFFFFFFFFFFFFFFFFFFFFFF AND DUP2 MSTORE PUSH1 0x20 ADD SWAP1 DUP2 MSTORE PUSH1 0x20 ADD PUSH0 KECCAK256 PUSH0 ADD PUSH2 0x650 PUSH2 0x799 JUMP JUMPDEST SWAP1 DUP1 PUSH1 0x1 DUP2 SLOAD ADD DUP1 DUP3 SSTORE DUP1 SWAP2 POP POP PUSH1 0x1 SWAP1 SUB SWAP1 PUSH0 MSTORE PUSH1 0x20 PUSH0 KECCAK256 ADD PUSH0 SWAP1 SWAP2 SWAP1 SWAP2 SWAP1 SWAP2 POP SSTORE PUSH1 0x6 PUSH0 ADD PUSH2 0x67F PUSH2 0x799 JUMP JUMPDEST SWAP1 DUP1 PUSH1 0x1 DUP2 SLOAD ADD DUP1 DUP3 SSTORE DUP1 SWAP2 POP POP PUSH1 0x1 SWAP1 SUB SWAP1 PUSH0 MSTORE PUSH1 0x20 PUSH0 KECCAK256 ADD PUSH0 SWAP1 SWAP2 SWAP1 SWAP2 SWAP1 SWAP2 POP SSTORE DUP1 DUP1 PUSH1 0x1 ADD SWAP2 POP POP PUSH2 0x600 JUMP JUMPDEST POP PUSH0 PUSH2 0x745 PUSH1 0x5 PUSH0 CALLER PUSH20 0xFFFFFFFFFFFFFFFFFFFFFFFFFFFFFFFFFFFFFFFF AND PUSH20 0xFFFFFFFFFFFFFFFFFFFFFFFFFFFFFFFFFFFFFFFF AND DUP2 MSTORE PUSH1 0x20 ADD SWAP1 DUP2 MSTORE PUSH1 0x20 ADD PUSH0 KECCAK256 PUSH0 ADD DUP1 SLOAD DUP1 PUSH1 0x20 MUL PUSH1 0x20 ADD PUSH1 0x40 MLOAD SWAP1 DUP2 ADD PUSH1 0x40 MSTORE DUP1 SWAP3 SWAP2 SWAP1 DUP2 DUP2 MSTORE PUSH1 0x20 ADD DUP3 DUP1 SLOAD DUP1 ISZERO PUSH2 0x73B JUMPI PUSH1 0x20 MUL DUP3 ADD SWAP2 SWAP1 PUSH0 MSTORE PUSH1 0x20 PUSH0 KECCAK256 SWAP1 JUMPDEST DUP2 SLOAD DUP2 MSTORE PUSH1 0x20 ADD SWAP1 PUSH1 0x1 ADD SWAP1 DUP1 DUP4 GT PUSH2 0x727 JUMPI JUMPDEST POP POP POP POP POP PUSH2 0x809 JUMP JUMPDEST SWAP1 POP CALLER PUSH20 0xFFFFFFFFFFFFFFFFFFFFFFFFFFFFFFFFFFFFFFFF AND PUSH32 0xE253E6518A69CCFFFFB243CCE683EAFC40E1F53CF04DEF4E4340C79AD6565459 DUP3 PUSH1 0x40 MLOAD PUSH2 0x78D SWAP2 SWAP1 PUSH2 0xD10 JUMP JUMPDEST PUSH1 0x40 MLOAD DUP1 SWAP2 SUB SWAP1 LOG2 POP POP JUMP JUMPDEST PUSH0 DUP1 CALLER PREVRANDAO PUSH0 SLOAD ADDRESS PUSH1 0x40 MLOAD PUSH1 0x20 ADD PUSH2 0x7B3 SWAP5 SWAP4 SWAP3 SWAP2 SWAP1 PUSH2 0xFB0 JUMP JUMPDEST PUSH1 0x40 MLOAD PUSH1 0x20 DUP2 DUP4 SUB SUB DUP2 MSTORE SWAP1 PUSH1 0x40 MSTORE DUP1 MLOAD SWAP1 PUSH1 0x20 ADD KECCAK256 PUSH0 SHR SWAP1 POP PUSH0 PUSH1 0x1 PUSH1 0xA DUP4 PUSH2 0x7DD SWAP2 SWAP1 PUSH2 0x102A JUMP JUMPDEST PUSH2 0x7E7 SWAP2 SWAP1 PUSH2 0x105A JUMP JUMPDEST SWAP1 POP PUSH1 0x1 PUSH0 DUP1 DUP3 DUP3 SLOAD PUSH2 0x7FA SWAP2 SWAP1 PUSH2 0x105A JUMP JUMPDEST SWAP3 POP POP DUP2 SWAP1 SSTORE POP DUP1 SWAP3 POP POP POP SWAP1 JUMP JUMPDEST PUSH0 DUP1 PUSH0 SWAP1 POP PUSH0 JUMPDEST DUP4 MLOAD DUP2 LT ISZERO PUSH2 0x84E JUMPI DUP4 DUP2 DUP2 MLOAD DUP2 LT PUSH2 0x82C JUMPI PUSH2 0x82B PUSH2 0x108D JUMP JUMPDEST JUMPDEST PUSH1 0x20 MUL PUSH1 0x20 ADD ADD MLOAD DUP3 PUSH2 0x83F SWAP2 SWAP1 PUSH2 0x105A JUMP JUMPDEST SWAP2 POP DUP1 DUP1 PUSH1 0x1 ADD SWAP2 POP POP PUSH2 0x810 JUMP JUMPDEST POP DUP1 SWAP2 POP POP SWAP2 SWAP1 POP JUMP JUMPDEST PUSH1 0x15 DUP3 EQ DUP1 ISZERO PUSH2 0x86C JUMPI POP PUSH1 0x1 ISZERO ISZERO DUP2 ISZERO ISZERO EQ JUMPDEST DUP1 PUSH2 0x886 JUMPI POP PUSH1 0x15 DUP3 GT DUP1 ISZERO PUSH2 0x885 JUMPI POP PUSH0 ISZERO ISZERO DUP2 ISZERO ISZERO EQ JUMPDEST JUMPDEST ISZERO PUSH2 0x897 JUMPI PUSH0 PUSH1 0x3 DUP2 SWAP1 SSTORE POP PUSH2 0x8D4 JUMP JUMPDEST PUSH1 0x15 DUP3 EQ DUP1 ISZERO PUSH2 0x8AA JUMPI POP PUSH0 ISZERO ISZERO DUP2 ISZERO ISZERO EQ JUMPDEST DUP1 PUSH2 0x8C5 JUMPI POP PUSH1 0x15 DUP3 GT DUP1 ISZERO PUSH2 0x8C4 JUMPI POP PUSH1 0x1 ISZERO ISZERO DUP2 ISZERO ISZERO EQ JUMPDEST JUMPDEST ISZERO PUSH2 0x8D3 JUMPI PUSH1 0x1 PUSH1 0x3 DUP2 SWAP1 SSTORE POP JUMPDEST JUMPDEST PUSH2 0x8DC PUSH2 0xA69 JUMP JUMPDEST POP POP JUMP JUMPDEST PUSH0 PUSH2 0x975 PUSH1 0x5 PUSH0 CALLER PUSH20 0xFFFFFFFFFFFFFFFFFFFFFFFFFFFFFFFFFFFFFFFF AND PUSH20 0xFFFFFFFFFFFFFFFFFFFFFFFFFFFFFFFFFFFFFFFF AND DUP2 MSTORE PUSH1 0x20 ADD SWAP1 DUP2 MSTORE PUSH1 0x20 ADD PUSH0 KECCAK256 PUSH0 ADD DUP1 SLOAD DUP1 PUSH1 0x20 MUL PUSH1 0x20 ADD PUSH1 0x40 MLOAD SWAP1 DUP2 ADD PUSH1 0x40 MSTORE DUP1 SWAP3 SWAP2 SWAP1 DUP2 DUP2 MSTORE PUSH1 0x20 ADD DUP3 DUP1 SLOAD DUP1 ISZERO PUSH2 0x96B JUMPI PUSH1 0x20 MUL DUP3 ADD SWAP2 SWAP1 PUSH0 MSTORE PUSH1 0x20 PUSH0 KECCAK256 SWAP1 JUMPDEST DUP2 SLOAD DUP2 MSTORE PUSH1 0x20 ADD SWAP1 PUSH1 0x1 ADD SWAP1 DUP1 DUP4 GT PUSH2 0x957 JUMPI JUMPDEST POP POP POP POP POP PUSH2 0x809 JUMP JUMPDEST SWAP1 POP PUSH0 PUSH2 0x9D1 PUSH1 0x6 PUSH0 ADD DUP1 SLOAD DUP1 PUSH1 0x20 MUL PUSH1 0x20 ADD PUSH1 0x40 MLOAD SWAP1 DUP2 ADD PUSH1 0x40 MSTORE DUP1 SWAP3 SWAP2 SWAP1 DUP2 DUP2 MSTORE PUSH1 0x20 ADD DUP3 DUP1 SLOAD DUP1 ISZERO PUSH2 0x9C7 JUMPI PUSH1 0x20 MUL DUP3 ADD SWAP2 SWAP1 PUSH0 MSTORE PUSH1 0x20 PUSH0 KECCAK256 SWAP1 JUMPDEST DUP2 SLOAD DUP2 MSTORE PUSH1 0x20 ADD SWAP1 PUSH1 0x1 ADD SWAP1 DUP1 DUP4 GT PUSH2 0x9B3 JUMPI JUMPDEST POP POP POP POP POP PUSH2 0x809 JUMP JUMPDEST SWAP1 POP PUSH1 0x15 DUP3 GT ISZERO PUSH2 0x9E9 JUMPI PUSH1 0x1 PUSH1 0x3 DUP2 SWAP1 SSTORE POP PUSH2 0xA5D JUMP JUMPDEST PUSH1 0x15 DUP2 GT ISZERO PUSH2 0x9FE JUMPI PUSH0 PUSH1 0x3 DUP2 SWAP1 SSTORE POP PUSH2 0xA5C JUMP JUMPDEST PUSH1 0x15 DUP3 SUB PUSH2 0xA12 JUMPI PUSH0 PUSH1 0x3 DUP2 SWAP1 SSTORE POP PUSH2 0xA5B JUMP JUMPDEST PUSH1 0x15 DUP2 SUB PUSH2 0xA27 JUMPI PUSH1 0x1 PUSH1 0x3 DUP2 SWAP1 SSTORE POP PUSH2 0xA5A JUMP JUMPDEST DUP1 DUP3 SUB PUSH2 0xA3B JUMPI PUSH1 0x2 PUSH1 0x3 DUP2 SWAP1 SSTORE POP PUSH2 0xA59 JUMP JUMPDEST DUP1 DUP3 GT ISZERO PUSH2 0xA4F JUMPI PUSH0 PUSH1 0x3 DUP2 SWAP1 SSTORE POP PUSH2 0xA58 JUMP JUMPDEST PUSH1 0x1 PUSH1 0x3 DUP2 SWAP1 SSTORE POP JUMPDEST JUMPDEST JUMPDEST JUMPDEST JUMPDEST JUMPDEST PUSH2 0xA65 PUSH2 0xA69 JUMP JUMPDEST POP POP JUMP JUMPDEST PUSH0 PUSH1 0x3 SLOAD SUB PUSH2 0xB2E JUMPI PUSH0 CALLER PUSH20 0xFFFFFFFFFFFFFFFFFFFFFFFFFFFFFFFFFFFFFFFF AND PUSH1 0x2 SLOAD PUSH1 0x2 PUSH2 0xA99 SWAP2 SWAP1 PUSH2 0xE23 JUMP JUMPDEST PUSH1 0x40 MLOAD PUSH2 0xAA5 SWAP1 PUSH2 0x10E7 JUMP JUMPDEST PUSH0 PUSH1 0x40 MLOAD DUP1 DUP4 SUB DUP2 DUP6 DUP8 GAS CALL SWAP3 POP POP POP RETURNDATASIZE DUP1 PUSH0 DUP2 EQ PUSH2 0xADF JUMPI PUSH1 0x40 MLOAD SWAP2 POP PUSH1 0x1F NOT PUSH1 0x3F RETURNDATASIZE ADD AND DUP3 ADD PUSH1 0x40 MSTORE RETURNDATASIZE DUP3 MSTORE RETURNDATASIZE PUSH0 PUSH1 0x20 DUP5 ADD RETURNDATACOPY PUSH2 0xAE4 JUMP JUMPDEST PUSH1 0x60 SWAP2 POP JUMPDEST POP POP SWAP1 POP DUP1 PUSH2 0xB28 JUMPI PUSH1 0x40 MLOAD PUSH32 0x8C379A000000000000000000000000000000000000000000000000000000000 DUP2 MSTORE PUSH1 0x4 ADD PUSH2 0xB1F SWAP1 PUSH2 0x1145 JUMP JUMPDEST PUSH1 0x40 MLOAD DUP1 SWAP2 SUB SWAP1 REVERT JUMPDEST POP PUSH2 0xBF4 JUMP JUMPDEST PUSH1 0x1 PUSH1 0x3 SLOAD SUB PUSH2 0xB92 JUMPI PUSH1 0x2 SLOAD PUSH1 0x4 PUSH0 CALLER PUSH20 0xFFFFFFFFFFFFFFFFFFFFFFFFFFFFFFFFFFFFFFFF AND PUSH20 0xFFFFFFFFFFFFFFFFFFFFFFFFFFFFFFFFFFFFFFFF AND DUP2 MSTORE PUSH1 0x20 ADD SWAP1 DUP2 MSTORE PUSH1 0x20 ADD PUSH0 KECCAK256 PUSH0 DUP3 DUP3 SLOAD PUSH2 0xB86 SWAP2 SWAP1 PUSH2 0xF18 JUMP JUMPDEST SWAP3 POP POP DUP2 SWAP1 SSTORE POP PUSH2 0xBF3 JUMP JUMPDEST PUSH1 0x2 PUSH1 0x3 SLOAD SUB PUSH2 0xBF2 JUMPI PUSH1 0x2 SLOAD PUSH1 0x4 PUSH0 CALLER PUSH20 0xFFFFFFFFFFFFFFFFFFFFFFFFFFFFFFFFFFFFFFFF AND PUSH20 0xFFFFFFFFFFFFFFFFFFFFFFFFFFFFFFFFFFFFFFFF AND DUP2 MSTORE PUSH1 0x20 ADD SWAP1 DUP2 MSTORE PUSH1 0x20 ADD PUSH0 KECCAK256 PUSH0 DUP3 DUP3 SLOAD PUSH2 0xBEA SWAP2 SWAP1 PUSH2 0x105A JUMP JUMPDEST SWAP3 POP POP DUP2 SWAP1 SSTORE POP JUMPDEST JUMPDEST JUMPDEST PUSH0 PUSH1 0x1 PUSH0 PUSH2 0x100 EXP DUP2 SLOAD DUP2 PUSH1 0xFF MUL NOT AND SWAP1 DUP4 ISZERO ISZERO MUL OR SWAP1 SSTORE POP JUMP JUMPDEST PUSH0 DUP1 REVERT JUMPDEST PUSH0 DUP2 ISZERO ISZERO SWAP1 POP SWAP2 SWAP1 POP JUMP JUMPDEST PUSH2 0xC27 DUP2 PUSH2 0xC13 JUMP JUMPDEST DUP2 EQ PUSH2 0xC31 JUMPI PUSH0 DUP1 REVERT JUMPDEST POP JUMP JUMPDEST PUSH0 DUP2 CALLDATALOAD SWAP1 POP PUSH2 0xC42 DUP2 PUSH2 0xC1E JUMP JUMPDEST SWAP3 SWAP2 POP POP JUMP JUMPDEST PUSH0 PUSH1 0x20 DUP3 DUP5 SUB SLT ISZERO PUSH2 0xC5D JUMPI PUSH2 0xC5C PUSH2 0xC0F JUMP JUMPDEST JUMPDEST PUSH0 PUSH2 0xC6A DUP5 DUP3 DUP6 ADD PUSH2 0xC34 JUMP JUMPDEST SWAP2 POP POP SWAP3 SWAP2 POP POP JUMP JUMPDEST PUSH0 PUSH20 0xFFFFFFFFFFFFFFFFFFFFFFFFFFFFFFFFFFFFFFFF DUP3 AND SWAP1 POP SWAP2 SWAP1 POP JUMP JUMPDEST PUSH0 PUSH2 0xC9C DUP3 PUSH2 0xC73 JUMP JUMPDEST SWAP1 POP SWAP2 SWAP1 POP JUMP JUMPDEST PUSH2 0xCAC DUP2 PUSH2 0xC92 JUMP JUMPDEST DUP2 EQ PUSH2 0xCB6 JUMPI PUSH0 DUP1 REVERT JUMPDEST POP JUMP JUMPDEST PUSH0 DUP2 CALLDATALOAD SWAP1 POP PUSH2 0xCC7 DUP2 PUSH2 0xCA3 JUMP JUMPDEST SWAP3 SWAP2 POP POP JUMP JUMPDEST PUSH0 PUSH1 0x20 DUP3 DUP5 SUB SLT ISZERO PUSH2 0xCE2 JUMPI PUSH2 0xCE1 PUSH2 0xC0F JUMP JUMPDEST JUMPDEST PUSH0 PUSH2 0xCEF DUP5 DUP3 DUP6 ADD PUSH2 0xCB9 JUMP JUMPDEST SWAP2 POP POP SWAP3 SWAP2 POP POP JUMP JUMPDEST PUSH0 DUP2 SWAP1 POP SWAP2 SWAP1 POP JUMP JUMPDEST PUSH2 0xD0A DUP2 PUSH2 0xCF8 JUMP JUMPDEST DUP3 MSTORE POP POP JUMP JUMPDEST PUSH0 PUSH1 0x20 DUP3 ADD SWAP1 POP PUSH2 0xD23 PUSH0 DUP4 ADD DUP5 PUSH2 0xD01 JUMP JUMPDEST SWAP3 SWAP2 POP POP JUMP JUMPDEST PUSH2 0xD32 DUP2 PUSH2 0xCF8 JUMP JUMPDEST DUP2 EQ PUSH2 0xD3C JUMPI PUSH0 DUP1 REVERT JUMPDEST POP JUMP JUMPDEST PUSH0 DUP2 CALLDATALOAD SWAP1 POP PUSH2 0xD4D DUP2 PUSH2 0xD29 JUMP JUMPDEST SWAP3 SWAP2 POP POP JUMP JUMPDEST PUSH0 PUSH1 0x20 DUP3 DUP5 SUB SLT ISZERO PUSH2 0xD68 JUMPI PUSH2 0xD67 PUSH2 0xC0F JUMP JUMPDEST JUMPDEST PUSH0 PUSH2 0xD75 DUP5 DUP3 DUP6 ADD PUSH2 0xD3F JUMP JUMPDEST SWAP2 POP POP SWAP3 SWAP2 POP POP JUMP JUMPDEST PUSH0 DUP3 DUP3 MSTORE PUSH1 0x20 DUP3 ADD SWAP1 POP SWAP3 SWAP2 POP POP JUMP JUMPDEST PUSH32 0x496E76616C6964204265742E20506C6561736520626964206F76657220302E00 PUSH0 DUP3 ADD MSTORE POP JUMP JUMPDEST PUSH0 PUSH2 0xDC2 PUSH1 0x1F DUP4 PUSH2 0xD7E JUMP JUMPDEST SWAP2 POP PUSH2 0xDCD DUP3 PUSH2 0xD8E JUMP JUMPDEST PUSH1 0x20 DUP3 ADD SWAP1 POP SWAP2 SWAP1 POP JUMP JUMPDEST PUSH0 PUSH1 0x20 DUP3 ADD SWAP1 POP DUP2 DUP2 SUB PUSH0 DUP4 ADD MSTORE PUSH2 0xDEF DUP2 PUSH2 0xDB6 JUMP JUMPDEST SWAP1 POP SWAP2 SWAP1 POP JUMP JUMPDEST PUSH32 0x4E487B7100000000000000000000000000000000000000000000000000000000 PUSH0 MSTORE PUSH1 0x11 PUSH1 0x4 MSTORE PUSH1 0x24 PUSH0 REVERT JUMPDEST PUSH0 PUSH2 0xE2D DUP3 PUSH2 0xCF8 JUMP JUMPDEST SWAP2 POP PUSH2 0xE38 DUP4 PUSH2 0xCF8 JUMP JUMPDEST SWAP3 POP DUP3 DUP3 MUL PUSH2 0xE46 DUP2 PUSH2 0xCF8 JUMP JUMPDEST SWAP2 POP DUP3 DUP3 DIV DUP5 EQ DUP4 ISZERO OR PUSH2 0xE5D JUMPI PUSH2 0xE5C PUSH2 0xDF6 JUMP JUMPDEST JUMPDEST POP SWAP3 SWAP2 POP POP JUMP JUMPDEST PUSH32 0x496E73756666696369656E742062616C616E636520746F207374617274207468 PUSH0 DUP3 ADD MSTORE PUSH32 0x652067616D652E20596F75206E65656420322074696D65732074686520616D6F PUSH1 0x20 DUP3 ADD MSTORE PUSH32 0x756E7420796F752062657420746F20706C61792E000000000000000000000000 PUSH1 0x40 DUP3 ADD MSTORE POP JUMP JUMPDEST PUSH0 PUSH2 0xEE4 PUSH1 0x54 DUP4 PUSH2 0xD7E JUMP JUMPDEST SWAP2 POP PUSH2 0xEEF DUP3 PUSH2 0xE64 JUMP JUMPDEST PUSH1 0x60 DUP3 ADD SWAP1 POP SWAP2 SWAP1 POP JUMP JUMPDEST PUSH0 PUSH1 0x20 DUP3 ADD SWAP1 POP DUP2 DUP2 SUB PUSH0 DUP4 ADD MSTORE PUSH2 0xF11 DUP2 PUSH2 0xED8 JUMP JUMPDEST SWAP1 POP SWAP2 SWAP1 POP JUMP JUMPDEST PUSH0 PUSH2 0xF22 DUP3 PUSH2 0xCF8 JUMP JUMPDEST SWAP2 POP PUSH2 0xF2D DUP4 PUSH2 0xCF8 JUMP JUMPDEST SWAP3 POP DUP3 DUP3 SUB SWAP1 POP DUP2 DUP2 GT ISZERO PUSH2 0xF45 JUMPI PUSH2 0xF44 PUSH2 0xDF6 JUMP JUMPDEST JUMPDEST SWAP3 SWAP2 POP POP JUMP JUMPDEST PUSH0 DUP2 PUSH1 0x60 SHL SWAP1 POP SWAP2 SWAP1 POP JUMP JUMPDEST PUSH0 PUSH2 0xF61 DUP3 PUSH2 0xF4B JUMP JUMPDEST SWAP1 POP SWAP2 SWAP1 POP JUMP JUMPDEST PUSH0 PUSH2 0xF72 DUP3 PUSH2 0xF57 JUMP JUMPDEST SWAP1 POP SWAP2 SWAP1 POP JUMP JUMPDEST PUSH2 0xF8A PUSH2 0xF85 DUP3 PUSH2 0xC92 JUMP JUMPDEST PUSH2 0xF68 JUMP JUMPDEST DUP3 MSTORE POP POP JUMP JUMPDEST PUSH0 DUP2 SWAP1 POP SWAP2 SWAP1 POP JUMP JUMPDEST PUSH2 0xFAA PUSH2 0xFA5 DUP3 PUSH2 0xCF8 JUMP JUMPDEST PUSH2 0xF90 JUMP JUMPDEST DUP3 MSTORE POP POP JUMP JUMPDEST PUSH0 PUSH2 0xFBB DUP3 DUP8 PUSH2 0xF79 JUMP JUMPDEST PUSH1 0x14 DUP3 ADD SWAP2 POP PUSH2 0xFCB DUP3 DUP7 PUSH2 0xF99 JUMP JUMPDEST PUSH1 0x20 DUP3 ADD SWAP2 POP PUSH2 0xFDB DUP3 DUP6 PUSH2 0xF99 JUMP JUMPDEST PUSH1 0x20 DUP3 ADD SWAP2 POP PUSH2 0xFEB DUP3 DUP5 PUSH2 0xF79 JUMP JUMPDEST PUSH1 0x14 DUP3 ADD SWAP2 POP DUP2 SWAP1 POP SWAP6 SWAP5 POP POP POP POP POP JUMP JUMPDEST PUSH32 0x4E487B7100000000000000000000000000000000000000000000000000000000 PUSH0 MSTORE PUSH1 0x12 PUSH1 0x4 MSTORE PUSH1 0x24 PUSH0 REVERT JUMPDEST PUSH0 PUSH2 0x1034 DUP3 PUSH2 0xCF8 JUMP JUMPDEST SWAP2 POP PUSH2 0x103F DUP4 PUSH2 0xCF8 JUMP JUMPDEST SWAP3 POP DUP3 PUSH2 0x104F JUMPI PUSH2 0x104E PUSH2 0xFFD JUMP JUMPDEST JUMPDEST DUP3 DUP3 MOD SWAP1 POP SWAP3 SWAP2 POP POP JUMP JUMPDEST PUSH0 PUSH2 0x1064 DUP3 PUSH2 0xCF8 JUMP JUMPDEST SWAP2 POP PUSH2 0x106F DUP4 PUSH2 0xCF8 JUMP JUMPDEST SWAP3 POP DUP3 DUP3 ADD SWAP1 POP DUP1 DUP3 GT ISZERO PUSH2 0x1087 JUMPI PUSH2 0x1086 PUSH2 0xDF6 JUMP JUMPDEST JUMPDEST SWAP3 SWAP2 POP POP JUMP JUMPDEST PUSH32 0x4E487B7100000000000000000000000000000000000000000000000000000000 PUSH0 MSTORE PUSH1 0x32 PUSH1 0x4 MSTORE PUSH1 0x24 PUSH0 REVERT JUMPDEST PUSH0 DUP2 SWAP1 POP SWAP3 SWAP2 POP POP JUMP JUMPDEST POP JUMP JUMPDEST PUSH0 PUSH2 0x10D2 PUSH0 DUP4 PUSH2 0x10BA JUMP JUMPDEST SWAP2 POP PUSH2 0x10DD DUP3 PUSH2 0x10C4 JUMP JUMPDEST PUSH0 DUP3 ADD SWAP1 POP SWAP2 SWAP1 POP JUMP JUMPDEST PUSH0 PUSH2 0x10F1 DUP3 PUSH2 0x10C7 JUMP JUMPDEST SWAP2 POP DUP2 SWAP1 POP SWAP2 SWAP1 POP JUMP JUMPDEST PUSH32 0x5472616E73666572206661696C65642E00000000000000000000000000000000 PUSH0 DUP3 ADD MSTORE POP JUMP JUMPDEST PUSH0 PUSH2 0x112F PUSH1 0x10 DUP4 PUSH2 0xD7E JUMP JUMPDEST SWAP2 POP PUSH2 0x113A DUP3 PUSH2 0x10FB JUMP JUMPDEST PUSH1 0x20 DUP3 ADD SWAP1 POP SWAP2 SWAP1 POP JUMP JUMPDEST PUSH0 PUSH1 0x20 DUP3 ADD SWAP1 POP DUP2 DUP2 SUB PUSH0 DUP4 ADD MSTORE PUSH2 0x115C DUP2 PUSH2 0x1123 JUMP JUMPDEST SWAP1 POP SWAP2 SWAP1 POP JUMP INVALID LOG2 PUSH5 0x6970667358 0x22 SLT KECCAK256 CALLVALUE 0xC8 0x4F 0xBA PUSH8 0x9307AD2DCD7558D5 0x2B 0xD3 CALLER 0x4E RETURN MSIZE 0x4E 0xB8 0xF8 0xEC 0xB4 SWAP13 CREATE2 NOT DUP12 0x4E RETURN 0xD0 0xC PUSH5 0x736F6C6343 STOP ADDMOD BYTE STOP CALLER "
		},
		"gasEstimates": {
			"creation": {
				"codeDepositCost": "901000",
				"executionCost": "52308",
				"totalCost": "953308"
			},
			"external": {
				"playerAction(bool)": "infinite",
				"playerBalances(address)": "2802",
				"startGame(uint256)": "infinite"
			},
			"internal": {
				"blackjackOrBust(uint256,bool)": "infinite",
				"calculateHandValue(uint256[] memory)": "infinite",
				"deal()": "infinite",
				"decideWinner()": "infinite",
				"endGame()": "infinite"
			}
		},
		"methodIdentifiers": {
			"playerAction(bool)": "1ff47629",
			"playerBalances(address)": "7b38314c",
			"startGame(uint256)": "e5ed1d59"
		}
	},
	"abi": [
		{
			"anonymous": false,
			"inputs": [
				{
					"indexed": true,
					"internalType": "address",
					"name": "player",
					"type": "address"
				},
				{
					"indexed": false,
					"internalType": "uint256",
					"name": "handValue",
					"type": "uint256"
				}
			],
			"name": "handValueUpdated",
			"type": "event"
		},
		{
			"inputs": [
				{
					"internalType": "bool",
					"name": "hit",
					"type": "bool"
				}
			],
			"name": "playerAction",
			"outputs": [],
			"stateMutability": "nonpayable",
			"type": "function"
		},
		{
			"inputs": [
				{
					"internalType": "address",
					"name": "",
					"type": "address"
				}
			],
			"name": "playerBalances",
			"outputs": [
				{
					"internalType": "uint256",
					"name": "",
					"type": "uint256"
				}
			],
			"stateMutability": "view",
			"type": "function"
		},
		{
			"inputs": [
				{
					"internalType": "uint256",
					"name": "betAmount",
					"type": "uint256"
				}
			],
			"name": "startGame",
			"outputs": [],
			"stateMutability": "nonpayable",
			"type": "function"
		}
	]
}